{
  "_format": "hh-sol-artifact-1",
  "contractName": "BaseWrite",
  "sourceName": "contracts/BaseWrite.sol",
  "abi": [
    {
      "inputs": [
        {
          "internalType": "address",
          "name": "diskAddress",
          "type": "address"
        }
      ],
      "stateMutability": "nonpayable",
      "type": "constructor"
    },
    {
      "inputs": [
        {
          "internalType": "address",
          "name": "sender",
          "type": "address"
        },
        {
          "internalType": "uint256",
          "name": "tokenId",
          "type": "uint256"
        },
        {
          "internalType": "address",
          "name": "owner",
          "type": "address"
        }
      ],
      "name": "ERC721IncorrectOwner",
      "type": "error"
    },
    {
      "inputs": [
        {
          "internalType": "address",
          "name": "operator",
          "type": "address"
        },
        {
          "internalType": "uint256",
          "name": "tokenId",
          "type": "uint256"
        }
      ],
      "name": "ERC721InsufficientApproval",
      "type": "error"
    },
    {
      "inputs": [
        {
          "internalType": "address",
          "name": "approver",
          "type": "address"
        }
      ],
      "name": "ERC721InvalidApprover",
      "type": "error"
    },
    {
      "inputs": [
        {
          "internalType": "address",
          "name": "operator",
          "type": "address"
        }
      ],
      "name": "ERC721InvalidOperator",
      "type": "error"
    },
    {
      "inputs": [
        {
          "internalType": "address",
          "name": "owner",
          "type": "address"
        }
      ],
      "name": "ERC721InvalidOwner",
      "type": "error"
    },
    {
      "inputs": [
        {
          "internalType": "address",
          "name": "receiver",
          "type": "address"
        }
      ],
      "name": "ERC721InvalidReceiver",
      "type": "error"
    },
    {
      "inputs": [
        {
          "internalType": "address",
          "name": "sender",
          "type": "address"
        }
      ],
      "name": "ERC721InvalidSender",
      "type": "error"
    },
    {
      "inputs": [
        {
          "internalType": "uint256",
          "name": "tokenId",
          "type": "uint256"
        }
      ],
      "name": "ERC721NonexistentToken",
      "type": "error"
    },
    {
      "inputs": [
        {
          "internalType": "address",
          "name": "owner",
          "type": "address"
        }
      ],
      "name": "OwnableInvalidOwner",
      "type": "error"
    },
    {
      "inputs": [
        {
          "internalType": "address",
          "name": "account",
          "type": "address"
        }
      ],
      "name": "OwnableUnauthorizedAccount",
      "type": "error"
    },
    {
      "anonymous": false,
      "inputs": [
        {
          "indexed": false,
          "internalType": "address",
          "name": "agent",
          "type": "address"
        }
      ],
      "name": "AgentRemoved",
      "type": "event"
    },
    {
      "anonymous": false,
      "inputs": [
        {
          "indexed": false,
          "internalType": "address",
          "name": "agent",
          "type": "address"
        }
      ],
      "name": "AgentWhitelisted",
      "type": "event"
    },
    {
      "anonymous": false,
      "inputs": [
        {
          "indexed": true,
          "internalType": "address",
          "name": "owner",
          "type": "address"
        },
        {
          "indexed": true,
          "internalType": "address",
          "name": "approved",
          "type": "address"
        },
        {
          "indexed": true,
          "internalType": "uint256",
          "name": "tokenId",
          "type": "uint256"
        }
      ],
      "name": "Approval",
      "type": "event"
    },
    {
      "anonymous": false,
      "inputs": [
        {
          "indexed": true,
          "internalType": "address",
          "name": "owner",
          "type": "address"
        },
        {
          "indexed": true,
          "internalType": "address",
          "name": "operator",
          "type": "address"
        },
        {
          "indexed": false,
          "internalType": "bool",
          "name": "approved",
          "type": "bool"
        }
      ],
      "name": "ApprovalForAll",
      "type": "event"
    },
    {
      "anonymous": false,
      "inputs": [
        {
          "indexed": false,
          "internalType": "uint256",
          "name": "_fromTokenId",
          "type": "uint256"
        },
        {
          "indexed": false,
          "internalType": "uint256",
          "name": "_toTokenId",
          "type": "uint256"
        }
      ],
      "name": "BatchMetadataUpdate",
      "type": "event"
    },
    {
      "anonymous": false,
      "inputs": [
        {
          "indexed": false,
          "internalType": "uint256",
          "name": "storyId",
          "type": "uint256"
        },
        {
          "indexed": false,
          "internalType": "uint256",
          "name": "tokenId",
          "type": "uint256"
        },
        {
          "indexed": false,
          "internalType": "address",
          "name": "author",
          "type": "address"
        },
        {
          "indexed": false,
          "internalType": "uint256",
          "name": "count",
          "type": "uint256"
        },
        {
          "indexed": false,
          "internalType": "string",
          "name": "contribution",
          "type": "string"
        }
      ],
      "name": "ContributionCreated",
      "type": "event"
    },
    {
      "anonymous": false,
      "inputs": [
        {
          "indexed": false,
          "internalType": "uint256",
          "name": "_tokenId",
          "type": "uint256"
        }
      ],
      "name": "MetadataUpdate",
      "type": "event"
    },
    {
      "anonymous": false,
      "inputs": [
        {
          "indexed": true,
          "internalType": "address",
          "name": "previousOwner",
          "type": "address"
        },
        {
          "indexed": true,
          "internalType": "address",
          "name": "newOwner",
          "type": "address"
        }
      ],
      "name": "OwnershipTransferred",
      "type": "event"
    },
    {
      "anonymous": false,
      "inputs": [
        {
          "indexed": false,
          "internalType": "uint256",
          "name": "storyId",
          "type": "uint256"
        }
      ],
      "name": "StoryEnded",
      "type": "event"
    },
    {
      "anonymous": false,
      "inputs": [
        {
          "indexed": false,
          "internalType": "uint256",
          "name": "storyId",
          "type": "uint256"
        }
      ],
      "name": "StoryStarted",
      "type": "event"
    },
    {
      "anonymous": false,
      "inputs": [
        {
          "indexed": true,
          "internalType": "address",
          "name": "from",
          "type": "address"
        },
        {
          "indexed": true,
          "internalType": "address",
          "name": "to",
          "type": "address"
        },
        {
          "indexed": true,
          "internalType": "uint256",
          "name": "tokenId",
          "type": "uint256"
        }
      ],
      "name": "Transfer",
      "type": "event"
    },
    {
      "inputs": [
        {
          "internalType": "address",
          "name": "to",
          "type": "address"
        },
        {
          "internalType": "uint256",
          "name": "tokenId",
          "type": "uint256"
        }
      ],
      "name": "approve",
      "outputs": [],
      "stateMutability": "nonpayable",
      "type": "function"
    },
    {
      "inputs": [
        {
          "internalType": "address",
          "name": "owner",
          "type": "address"
        }
      ],
      "name": "balanceOf",
      "outputs": [
        {
          "internalType": "uint256",
          "name": "",
          "type": "uint256"
        }
      ],
      "stateMutability": "view",
      "type": "function"
    },
    {
      "inputs": [
        {
          "internalType": "uint256",
          "name": "storyId",
          "type": "uint256"
        },
        {
          "internalType": "address",
          "name": "author",
          "type": "address"
        }
      ],
      "name": "charactersUsed",
      "outputs": [
        {
          "internalType": "uint256",
          "name": "",
          "type": "uint256"
        }
      ],
      "stateMutability": "view",
      "type": "function"
    },
    {
      "inputs": [
        {
          "internalType": "uint256",
          "name": "storyId",
          "type": "uint256"
        },
        {
          "internalType": "uint256",
          "name": "diskId",
          "type": "uint256"
        },
        {
          "internalType": "uint256",
          "name": "length",
          "type": "uint256"
        },
        {
          "internalType": "string",
          "name": "contribution",
          "type": "string"
        }
      ],
      "name": "contribute",
      "outputs": [],
      "stateMutability": "nonpayable",
      "type": "function"
    },
    {
      "inputs": [],
      "name": "disk",
      "outputs": [
        {
          "internalType": "contract IDisk",
          "name": "",
          "type": "address"
        }
      ],
      "stateMutability": "view",
      "type": "function"
    },
    {
      "inputs": [
        {
          "internalType": "uint256",
          "name": "storyId",
          "type": "uint256"
        }
      ],
      "name": "endDailyStory",
      "outputs": [],
      "stateMutability": "nonpayable",
      "type": "function"
    },
    {
      "inputs": [
        {
          "internalType": "uint256",
          "name": "tokenId",
          "type": "uint256"
        }
      ],
      "name": "getApproved",
      "outputs": [
        {
          "internalType": "address",
          "name": "",
          "type": "address"
        }
      ],
      "stateMutability": "view",
      "type": "function"
    },
    {
      "inputs": [
        {
          "internalType": "address",
          "name": "owner",
          "type": "address"
        },
        {
          "internalType": "address",
          "name": "operator",
          "type": "address"
        }
      ],
      "name": "isApprovedForAll",
      "outputs": [
        {
          "internalType": "bool",
          "name": "",
          "type": "bool"
        }
      ],
      "stateMutability": "view",
      "type": "function"
    },
    {
      "inputs": [],
      "name": "name",
      "outputs": [
        {
          "internalType": "string",
          "name": "",
          "type": "string"
        }
      ],
      "stateMutability": "view",
      "type": "function"
    },
    {
      "inputs": [],
      "name": "owner",
      "outputs": [
        {
          "internalType": "address",
          "name": "",
          "type": "address"
        }
      ],
      "stateMutability": "view",
      "type": "function"
    },
    {
      "inputs": [
        {
          "internalType": "uint256",
          "name": "tokenId",
          "type": "uint256"
        }
      ],
      "name": "ownerOf",
      "outputs": [
        {
          "internalType": "address",
          "name": "",
          "type": "address"
        }
      ],
      "stateMutability": "view",
      "type": "function"
    },
    {
      "inputs": [
        {
          "internalType": "address",
          "name": "agent",
          "type": "address"
        }
      ],
      "name": "removeAgent",
      "outputs": [],
      "stateMutability": "nonpayable",
      "type": "function"
    },
    {
      "inputs": [],
      "name": "renounceOwnership",
      "outputs": [],
      "stateMutability": "nonpayable",
      "type": "function"
    },
    {
      "inputs": [
        {
          "internalType": "address",
          "name": "from",
          "type": "address"
        },
        {
          "internalType": "address",
          "name": "to",
          "type": "address"
        },
        {
          "internalType": "uint256",
          "name": "tokenId",
          "type": "uint256"
        }
      ],
      "name": "safeTransferFrom",
      "outputs": [],
      "stateMutability": "nonpayable",
      "type": "function"
    },
    {
      "inputs": [
        {
          "internalType": "address",
          "name": "from",
          "type": "address"
        },
        {
          "internalType": "address",
          "name": "to",
          "type": "address"
        },
        {
          "internalType": "uint256",
          "name": "tokenId",
          "type": "uint256"
        },
        {
          "internalType": "bytes",
          "name": "data",
          "type": "bytes"
        }
      ],
      "name": "safeTransferFrom",
      "outputs": [],
      "stateMutability": "nonpayable",
      "type": "function"
    },
    {
      "inputs": [
        {
          "internalType": "address",
          "name": "operator",
          "type": "address"
        },
        {
          "internalType": "bool",
          "name": "approved",
          "type": "bool"
        }
      ],
      "name": "setApprovalForAll",
      "outputs": [],
      "stateMutability": "nonpayable",
      "type": "function"
    },
    {
      "inputs": [],
      "name": "startDailyStory",
      "outputs": [],
      "stateMutability": "nonpayable",
      "type": "function"
    },
    {
      "inputs": [
        {
          "internalType": "uint256",
          "name": "storyId",
          "type": "uint256"
        }
      ],
      "name": "stories",
      "outputs": [
        {
          "internalType": "bool",
          "name": "isActive",
          "type": "bool"
        },
        {
          "internalType": "uint256",
          "name": "startTime",
          "type": "uint256"
        }
      ],
      "stateMutability": "view",
      "type": "function"
    },
    {
      "inputs": [],
      "name": "storyCount",
      "outputs": [
        {
          "internalType": "uint256",
          "name": "",
          "type": "uint256"
        }
      ],
      "stateMutability": "view",
      "type": "function"
    },
    {
      "inputs": [
        {
          "internalType": "bytes4",
          "name": "interfaceId",
          "type": "bytes4"
        }
      ],
      "name": "supportsInterface",
      "outputs": [
        {
          "internalType": "bool",
          "name": "",
          "type": "bool"
        }
      ],
      "stateMutability": "view",
      "type": "function"
    },
    {
      "inputs": [],
      "name": "symbol",
      "outputs": [
        {
          "internalType": "string",
          "name": "",
          "type": "string"
        }
      ],
      "stateMutability": "view",
      "type": "function"
    },
    {
      "inputs": [
        {
          "internalType": "uint256",
          "name": "storyId",
          "type": "uint256"
        },
        {
          "internalType": "uint256",
          "name": "diskId",
          "type": "uint256"
        }
      ],
      "name": "tokenIdToCharacterCount",
      "outputs": [
        {
          "internalType": "uint256",
          "name": "",
          "type": "uint256"
        }
      ],
      "stateMutability": "view",
      "type": "function"
    },
    {
      "inputs": [
        {
          "internalType": "uint256",
          "name": "tokenId",
          "type": "uint256"
        }
      ],
      "name": "tokenURI",
      "outputs": [
        {
          "internalType": "string",
          "name": "",
          "type": "string"
        }
      ],
      "stateMutability": "view",
      "type": "function"
    },
    {
      "inputs": [
        {
          "internalType": "address",
          "name": "from",
          "type": "address"
        },
        {
          "internalType": "address",
          "name": "to",
          "type": "address"
        },
        {
          "internalType": "uint256",
          "name": "tokenId",
          "type": "uint256"
        }
      ],
      "name": "transferFrom",
      "outputs": [],
      "stateMutability": "nonpayable",
      "type": "function"
    },
    {
      "inputs": [
        {
          "internalType": "address",
          "name": "newOwner",
          "type": "address"
        }
      ],
      "name": "transferOwnership",
      "outputs": [],
      "stateMutability": "nonpayable",
      "type": "function"
    },
    {
      "inputs": [
        {
          "internalType": "address",
          "name": "agent",
          "type": "address"
        }
      ],
      "name": "whitelistAgent",
      "outputs": [],
      "stateMutability": "nonpayable",
      "type": "function"
    },
    {
      "inputs": [
        {
          "internalType": "address",
          "name": "",
          "type": "address"
        }
      ],
      "name": "whitelistedAgents",
      "outputs": [
        {
          "internalType": "bool",
          "name": "",
          "type": "bool"
        }
      ],
      "stateMutability": "view",
      "type": "function"
    }
  ],
  "bytecode": "0x608060405234801561001057600080fd5b506040516137c23803806137c2833981810160405281019061003291906102b3565b336040518060400160405280600981526020017f42617365577269746500000000000000000000000000000000000000000000008152506040518060400160405280600381526020017f425753000000000000000000000000000000000000000000000000000000000081525081600090816100ae9190610530565b5080600190816100be9190610530565b505050600073ffffffffffffffffffffffffffffffffffffffff168173ffffffffffffffffffffffffffffffffffffffff16036101335760006040517f1e4fbdf700000000000000000000000000000000000000000000000000000000815260040161012a9190610611565b60405180910390fd5b6101428161018a60201b60201c565b5080600860006101000a81548173ffffffffffffffffffffffffffffffffffffffff021916908373ffffffffffffffffffffffffffffffffffffffff1602179055505061062c565b6000600760009054906101000a900473ffffffffffffffffffffffffffffffffffffffff16905081600760006101000a81548173ffffffffffffffffffffffffffffffffffffffff021916908373ffffffffffffffffffffffffffffffffffffffff1602179055508173ffffffffffffffffffffffffffffffffffffffff168173ffffffffffffffffffffffffffffffffffffffff167f8be0079c531659141344cd1fd0a4f28419497f9722a3daafe3b4186f6b6457e060405160405180910390a35050565b600080fd5b600073ffffffffffffffffffffffffffffffffffffffff82169050919050565b600061028082610255565b9050919050565b61029081610275565b811461029b57600080fd5b50565b6000815190506102ad81610287565b92915050565b6000602082840312156102c9576102c8610250565b5b60006102d78482850161029e565b91505092915050565b600081519050919050565b7f4e487b7100000000000000000000000000000000000000000000000000000000600052604160045260246000fd5b7f4e487b7100000000000000000000000000000000000000000000000000000000600052602260045260246000fd5b6000600282049050600182168061036157607f821691505b6020821081036103745761037361031a565b5b50919050565b60008190508160005260206000209050919050565b60006020601f8301049050919050565b600082821b905092915050565b6000600883026103dc7fffffffffffffffffffffffffffffffffffffffffffffffffffffffffffffffff8261039f565b6103e6868361039f565b95508019841693508086168417925050509392505050565b6000819050919050565b6000819050919050565b600061042d610428610423846103fe565b610408565b6103fe565b9050919050565b6000819050919050565b61044783610412565b61045b61045382610434565b8484546103ac565b825550505050565b600090565b610470610463565b61047b81848461043e565b505050565b5b8181101561049f57610494600082610468565b600181019050610481565b5050565b601f8211156104e4576104b58161037a565b6104be8461038f565b810160208510156104cd578190505b6104e16104d98561038f565b830182610480565b50505b505050565b600082821c905092915050565b6000610507600019846008026104e9565b1980831691505092915050565b600061052083836104f6565b9150826002028217905092915050565b610539826102e0565b67ffffffffffffffff811115610552576105516102eb565b5b61055c8254610349565b6105678282856104a3565b600060209050601f83116001811461059a5760008415610588578287015190505b6105928582610514565b8655506105fa565b601f1984166105a88661037a565b60005b828110156105d0578489015182556001820191506020850194506020810190506105ab565b868310156105ed57848901516105e9601f8916826104f6565b8355505b6001600288020188555050505b505050505050565b61060b81610275565b82525050565b60006020820190506106266000830184610602565b92915050565b6131878061063b6000396000f3fe608060405234801561001057600080fd5b50600436106101a95760003560e01c8063715018a6116100f9578063b88d4fde11610097578063e985e9c511610071578063e985e9c5146104b9578063f1d8690b146104e9578063f2fde38b14610505578063fe6932a114610521576101a9565b8063b88d4fde14610463578063c87b56dd1461047f578063e7f0dff4146104af576101a9565b806392b44293116100d357806392b44293146103dd57806395d89b411461040d57806397a6278e1461042b578063a22cb46514610447576101a9565b8063715018a6146103845780638a3b6ab81461038e5780638da5cb5b146103bf576101a9565b806323b872dd116101665780635b1f95a8116101405780635b1f95a8146102ea5780635f9abadf146103065780636352211e1461032457806370a0823114610354576101a9565b806323b872dd1461029457806342842e0e146102b05780634c7e9ecc146102cc576101a9565b806301ffc9a7146101ae578063033f9e75146101de57806306fdde03146101fa578063081812fc14610218578063095ea7b3146102485780631ee479f814610264575b600080fd5b6101c860048036038101906101c39190612351565b610551565b6040516101d59190612399565b60405180910390f35b6101f860048036038101906101f391906123ea565b6105b2565b005b6102026106cf565b60405161020f91906124a7565b60405180910390f35b610232600480360381019061022d91906123ea565b610761565b60405161023f919061250a565b60405180910390f35b610262600480360381019061025d9190612551565b61077d565b005b61027e60048036038101906102799190612591565b610793565b60405161028b91906125e0565b60405180910390f35b6102ae60048036038101906102a991906125fb565b6107f1565b005b6102ca60048036038101906102c591906125fb565b6108f3565b005b6102d4610913565b6040516102e191906125e0565b60405180910390f35b61030460048036038101906102ff919061264e565b610919565b005b61030e6109b3565b60405161031b91906126da565b60405180910390f35b61033e600480360381019061033991906123ea565b6109d9565b60405161034b919061250a565b60405180910390f35b61036e6004803603810190610369919061264e565b6109eb565b60405161037b91906125e0565b60405180910390f35b61038c610aa5565b005b6103a860048036038101906103a391906123ea565b610ab9565b6040516103b69291906126f5565b60405180910390f35b6103c7610aea565b6040516103d4919061250a565b60405180910390f35b6103f760048036038101906103f2919061271e565b610b14565b60405161040491906125e0565b60405180910390f35b610415610b46565b60405161042291906124a7565b60405180910390f35b6104456004803603810190610440919061264e565b610bd8565b005b610461600480360381019061045c919061278a565b610c72565b005b61047d600480360381019061047891906128ff565b610c88565b005b610499600480360381019061049491906123ea565b610cad565b6040516104a691906124a7565b60405180910390f35b6104b7610dc0565b005b6104d360048036038101906104ce9190612982565b610ecd565b6040516104e09190612399565b60405180910390f35b61050360048036038101906104fe9190612a22565b610f61565b005b61051f600480360381019061051a919061264e565b61135c565b005b61053b6004803603810190610536919061264e565b6113e2565b6040516105489190612399565b60405180910390f35b6000634906490660e01b7bffffffffffffffffffffffffffffffffffffffffffffffffffffffff1916827bffffffffffffffffffffffffffffffffffffffffffffffffffffffff191614806105ab57506105aa82611402565b5b9050919050565b6105ba6114e4565b6000600a600083815260200190815260200160002090508060000160009054906101000a900460ff16610622576040517f08c379a000000000000000000000000000000000000000000000000000000000815260040161061990612af6565b60405180910390fd5b6201518081600101546106359190612b45565b421015610677576040517f08c379a000000000000000000000000000000000000000000000000000000000815260040161066e90612bc5565b60405180910390fd5b60008160000160006101000a81548160ff0219169083151502179055507fa54df5ae85627c320995e60cba2ecb69c535e3e3f54b2f64ba6bf278476d6ba2826040516106c391906125e0565b60405180910390a15050565b6060600080546106de90612c14565b80601f016020809104026020016040519081016040528092919081815260200182805461070a90612c14565b80156107575780601f1061072c57610100808354040283529160200191610757565b820191906000526020600020905b81548152906001019060200180831161073a57829003601f168201915b5050505050905090565b600061076c8261156b565b50610776826115f3565b9050919050565b61078f828261078a611630565b611638565b5050565b6000600a600084815260200190815260200160002060020160008373ffffffffffffffffffffffffffffffffffffffff1673ffffffffffffffffffffffffffffffffffffffff16815260200190815260200160002054905092915050565b600073ffffffffffffffffffffffffffffffffffffffff168273ffffffffffffffffffffffffffffffffffffffff16036108635760006040517f64a0ae9200000000000000000000000000000000000000000000000000000000815260040161085a919061250a565b60405180910390fd5b60006108778383610872611630565b61164a565b90508373ffffffffffffffffffffffffffffffffffffffff168173ffffffffffffffffffffffffffffffffffffffff16146108ed578382826040517f64283d7b0000000000000000000000000000000000000000000000000000000081526004016108e493929190612c45565b60405180910390fd5b50505050565b61090e83838360405180602001604052806000815250610c88565b505050565b60095481565b6109216114e4565b6001600b60008373ffffffffffffffffffffffffffffffffffffffff1673ffffffffffffffffffffffffffffffffffffffff16815260200190815260200160002060006101000a81548160ff0219169083151502179055507fd39a381f419f0fc53e110f17f90095585db0034586dbf907597ac38780af30dd816040516109a8919061250a565b60405180910390a150565b600860009054906101000a900473ffffffffffffffffffffffffffffffffffffffff1681565b60006109e48261156b565b9050919050565b60008073ffffffffffffffffffffffffffffffffffffffff168273ffffffffffffffffffffffffffffffffffffffff1603610a5e5760006040517f89c62b64000000000000000000000000000000000000000000000000000000008152600401610a55919061250a565b60405180910390fd5b600360008373ffffffffffffffffffffffffffffffffffffffff1673ffffffffffffffffffffffffffffffffffffffff168152602001908152602001600020549050919050565b610aad6114e4565b610ab76000611864565b565b600a6020528060005260406000206000915090508060000160009054906101000a900460ff16908060010154905082565b6000600760009054906101000a900473ffffffffffffffffffffffffffffffffffffffff16905090565b6000600a6000848152602001908152602001600020600301600083815260200190815260200160002054905092915050565b606060018054610b5590612c14565b80601f0160208091040260200160405190810160405280929190818152602001828054610b8190612c14565b8015610bce5780601f10610ba357610100808354040283529160200191610bce565b820191906000526020600020905b815481529060010190602001808311610bb157829003601f168201915b5050505050905090565b610be06114e4565b6000600b60008373ffffffffffffffffffffffffffffffffffffffff1673ffffffffffffffffffffffffffffffffffffffff16815260200190815260200160002060006101000a81548160ff0219169083151502179055507fed9c8ad8d5a0a66898ea49d2956929c93ae2e8bd50281b2ed897c5d1a6737e0b81604051610c67919061250a565b60405180910390a150565b610c84610c7d611630565b838361192a565b5050565b610c938484846107f1565b610ca7610c9e611630565b85858585611a99565b50505050565b6060610cb88261156b565b506000600660008481526020019081526020016000208054610cd990612c14565b80601f0160208091040260200160405190810160405280929190818152602001828054610d0590612c14565b8015610d525780601f10610d2757610100808354040283529160200191610d52565b820191906000526020600020905b815481529060010190602001808311610d3557829003601f168201915b505050505090506000610d63611c4a565b90506000815103610d78578192505050610dbb565b600082511115610dad578082604051602001610d95929190612cb8565b60405160208183030381529060405292505050610dbb565b610db684611c6a565b925050505b919050565b610dc86114e4565b60006009541115610e3a57600a6000600954815260200190815260200160002060000160009054906101000a900460ff1615610e39576040517f08c379a0000000000000000000000000000000000000000000000000000000008152600401610e3090612d28565b60405180910390fd5b5b60096000815480929190610e4d90612d48565b91905055506000600a60006009548152602001908152602001600020905060018160000160006101000a81548160ff0219169083151502179055504281600101819055507f91be3744df3a3c4558fd3addf17f1e8bb5b8f9d6cf799cc6008eba50cefc1356600954604051610ec291906125e0565b60405180910390a150565b6000600560008473ffffffffffffffffffffffffffffffffffffffff1673ffffffffffffffffffffffffffffffffffffffff16815260200190815260200160002060008373ffffffffffffffffffffffffffffffffffffffff1673ffffffffffffffffffffffffffffffffffffffff16815260200190815260200160002060009054906101000a900460ff16905092915050565b600a600086815260200190815260200160002060000160009054906101000a900460ff16610fc4576040517f08c379a0000000000000000000000000000000000000000000000000000000008152600401610fbb90612af6565b60405180910390fd5b62015180600a600087815260200190815260200160002060010154610fe99190612b45565b421061102a576040517f08c379a000000000000000000000000000000000000000000000000000000000815260040161102190612ddc565b60405180910390fd5b6000600a60008781526020019081526020016000209050600b60003373ffffffffffffffffffffffffffffffffffffffff1673ffffffffffffffffffffffffffffffffffffffff16815260200190815260200160002060009054906101000a900460ff166112bb57600860009054906101000a900473ffffffffffffffffffffffffffffffffffffffff1673ffffffffffffffffffffffffffffffffffffffff16636352211e866040518263ffffffff1660e01b81526004016110ed91906125e0565b602060405180830381865afa15801561110a573d6000803e3d6000fd5b505050506040513d601f19601f8201168201806040525081019061112e9190612e11565b73ffffffffffffffffffffffffffffffffffffffff163373ffffffffffffffffffffffffffffffffffffffff161461119b576040517f08c379a000000000000000000000000000000000000000000000000000000000815260040161119290612e8a565b60405180910390fd5b8381600301600087815260200190815260200160002060008282546111c09190612b45565b92505081905550600860009054906101000a900473ffffffffffffffffffffffffffffffffffffffff1673ffffffffffffffffffffffffffffffffffffffff1663a20cccb3866040518263ffffffff1660e01b815260040161122291906125e0565b602060405180830381865afa15801561123f573d6000803e3d6000fd5b505050506040513d601f19601f820116820180604052508101906112639190612ebf565b8160030160008781526020019081526020016000205411156112ba576040517f08c379a00000000000000000000000000000000000000000000000000000000081526004016112b190612f38565b60405180910390fd5b5b838160020160003373ffffffffffffffffffffffffffffffffffffffff1673ffffffffffffffffffffffffffffffffffffffff168152602001908152602001600020600082825461130c9190612b45565b925050819055507f103a78c453b2bca2324ad37a75bdf9a134435b2914fdf4418d8e0de90f09656a86863387878760405161134c96959493929190612f85565b60405180910390a1505050505050565b6113646114e4565b600073ffffffffffffffffffffffffffffffffffffffff168173ffffffffffffffffffffffffffffffffffffffff16036113d65760006040517f1e4fbdf70000000000000000000000000000000000000000000000000000000081526004016113cd919061250a565b60405180910390fd5b6113df81611864565b50565b600b6020528060005260406000206000915054906101000a900460ff1681565b60007f80ac58cd000000000000000000000000000000000000000000000000000000007bffffffffffffffffffffffffffffffffffffffffffffffffffffffff1916827bffffffffffffffffffffffffffffffffffffffffffffffffffffffff191614806114cd57507f5b5e139f000000000000000000000000000000000000000000000000000000007bffffffffffffffffffffffffffffffffffffffffffffffffffffffff1916827bffffffffffffffffffffffffffffffffffffffffffffffffffffffff1916145b806114dd57506114dc82611cd3565b5b9050919050565b6114ec611630565b73ffffffffffffffffffffffffffffffffffffffff1661150a610aea565b73ffffffffffffffffffffffffffffffffffffffff16146115695761152d611630565b6040517f118cdaa7000000000000000000000000000000000000000000000000000000008152600401611560919061250a565b60405180910390fd5b565b60008061157783611d3d565b9050600073ffffffffffffffffffffffffffffffffffffffff168173ffffffffffffffffffffffffffffffffffffffff16036115ea57826040517f7e2732890000000000000000000000000000000000000000000000000000000081526004016115e191906125e0565b60405180910390fd5b80915050919050565b60006004600083815260200190815260200160002060009054906101000a900473ffffffffffffffffffffffffffffffffffffffff169050919050565b600033905090565b6116458383836001611d7a565b505050565b60008061165684611d3d565b9050600073ffffffffffffffffffffffffffffffffffffffff168373ffffffffffffffffffffffffffffffffffffffff161461169857611697818486611f3f565b5b600073ffffffffffffffffffffffffffffffffffffffff168173ffffffffffffffffffffffffffffffffffffffff1614611729576116da600085600080611d7a565b6001600360008373ffffffffffffffffffffffffffffffffffffffff1673ffffffffffffffffffffffffffffffffffffffff168152602001908152602001600020600082825403925050819055505b600073ffffffffffffffffffffffffffffffffffffffff168573ffffffffffffffffffffffffffffffffffffffff16146117ac576001600360008773ffffffffffffffffffffffffffffffffffffffff1673ffffffffffffffffffffffffffffffffffffffff168152602001908152602001600020600082825401925050819055505b846002600086815260200190815260200160002060006101000a81548173ffffffffffffffffffffffffffffffffffffffff021916908373ffffffffffffffffffffffffffffffffffffffff160217905550838573ffffffffffffffffffffffffffffffffffffffff168273ffffffffffffffffffffffffffffffffffffffff167fddf252ad1be2c89b69c2b068fc378daa952ba7f163c4a11628f55a4df523b3ef60405160405180910390a4809150509392505050565b6000600760009054906101000a900473ffffffffffffffffffffffffffffffffffffffff16905081600760006101000a81548173ffffffffffffffffffffffffffffffffffffffff021916908373ffffffffffffffffffffffffffffffffffffffff1602179055508173ffffffffffffffffffffffffffffffffffffffff168173ffffffffffffffffffffffffffffffffffffffff167f8be0079c531659141344cd1fd0a4f28419497f9722a3daafe3b4186f6b6457e060405160405180910390a35050565b600073ffffffffffffffffffffffffffffffffffffffff168273ffffffffffffffffffffffffffffffffffffffff160361199b57816040517f5b08ba18000000000000000000000000000000000000000000000000000000008152600401611992919061250a565b60405180910390fd5b80600560008573ffffffffffffffffffffffffffffffffffffffff1673ffffffffffffffffffffffffffffffffffffffff16815260200190815260200160002060008473ffffffffffffffffffffffffffffffffffffffff1673ffffffffffffffffffffffffffffffffffffffff16815260200190815260200160002060006101000a81548160ff0219169083151502179055508173ffffffffffffffffffffffffffffffffffffffff168373ffffffffffffffffffffffffffffffffffffffff167f17307eab39ab6107e8899845ad3d59bd9653f200f220920489ca2b5937696c3183604051611a8c9190612399565b60405180910390a3505050565b60008373ffffffffffffffffffffffffffffffffffffffff163b1115611c43578273ffffffffffffffffffffffffffffffffffffffff1663150b7a02868685856040518563ffffffff1660e01b8152600401611af89493929190613036565b6020604051808303816000875af1925050508015611b3457506040513d601f19601f82011682018060405250810190611b319190613097565b60015b611bb8573d8060008114611b64576040519150601f19603f3d011682016040523d82523d6000602084013e611b69565b606091505b506000815103611bb057836040517f64a0ae92000000000000000000000000000000000000000000000000000000008152600401611ba7919061250a565b60405180910390fd5b805181602001fd5b63150b7a0260e01b7bffffffffffffffffffffffffffffffffffffffffffffffffffffffff1916817bffffffffffffffffffffffffffffffffffffffffffffffffffffffff191614611c4157836040517f64a0ae92000000000000000000000000000000000000000000000000000000008152600401611c38919061250a565b60405180910390fd5b505b5050505050565b606060405180606001604052806035815260200161311d60359139905090565b6060611c758261156b565b506000611c80611c4a565b90506000815111611ca05760405180602001604052806000815250611ccb565b80611caa84612003565b604051602001611cbb929190612cb8565b6040516020818303038152906040525b915050919050565b60007f01ffc9a7000000000000000000000000000000000000000000000000000000007bffffffffffffffffffffffffffffffffffffffffffffffffffffffff1916827bffffffffffffffffffffffffffffffffffffffffffffffffffffffff1916149050919050565b60006002600083815260200190815260200160002060009054906101000a900473ffffffffffffffffffffffffffffffffffffffff169050919050565b8080611db35750600073ffffffffffffffffffffffffffffffffffffffff168273ffffffffffffffffffffffffffffffffffffffff1614155b15611ee7576000611dc38461156b565b9050600073ffffffffffffffffffffffffffffffffffffffff168373ffffffffffffffffffffffffffffffffffffffff1614158015611e2e57508273ffffffffffffffffffffffffffffffffffffffff168173ffffffffffffffffffffffffffffffffffffffff1614155b8015611e415750611e3f8184610ecd565b155b15611e8357826040517fa9fbf51f000000000000000000000000000000000000000000000000000000008152600401611e7a919061250a565b60405180910390fd5b8115611ee557838573ffffffffffffffffffffffffffffffffffffffff168273ffffffffffffffffffffffffffffffffffffffff167f8c5be1e5ebec7d5bd14f71427d1e84f3dd0314c0f7b2291e5b200ac8c7c3b92560405160405180910390a45b505b836004600085815260200190815260200160002060006101000a81548173ffffffffffffffffffffffffffffffffffffffff021916908373ffffffffffffffffffffffffffffffffffffffff16021790555050505050565b611f4a8383836120d1565b611ffe57600073ffffffffffffffffffffffffffffffffffffffff168373ffffffffffffffffffffffffffffffffffffffff1603611fbf57806040517f7e273289000000000000000000000000000000000000000000000000000000008152600401611fb691906125e0565b60405180910390fd5b81816040517f177e802f000000000000000000000000000000000000000000000000000000008152600401611ff59291906130c4565b60405180910390fd5b505050565b60606000600161201284612192565b01905060008167ffffffffffffffff811115612031576120306127d4565b5b6040519080825280601f01601f1916602001820160405280156120635781602001600182028036833780820191505090505b509050600082602001820190505b6001156120c6578080600190039150507f3031323334353637383961626364656600000000000000000000000000000000600a86061a8153600a85816120ba576120b96130ed565b5b04945060008503612071575b819350505050919050565b60008073ffffffffffffffffffffffffffffffffffffffff168373ffffffffffffffffffffffffffffffffffffffff161415801561218957508273ffffffffffffffffffffffffffffffffffffffff168473ffffffffffffffffffffffffffffffffffffffff16148061214a57506121498484610ecd565b5b8061218857508273ffffffffffffffffffffffffffffffffffffffff16612170836115f3565b73ffffffffffffffffffffffffffffffffffffffff16145b5b90509392505050565b600080600090507a184f03e93ff9f4daa797ed6e38ed64bf6a1f01000000000000000083106121f0577a184f03e93ff9f4daa797ed6e38ed64bf6a1f01000000000000000083816121e6576121e56130ed565b5b0492506040810190505b6d04ee2d6d415b85acef8100000000831061222d576d04ee2d6d415b85acef81000000008381612223576122226130ed565b5b0492506020810190505b662386f26fc10000831061225c57662386f26fc100008381612252576122516130ed565b5b0492506010810190505b6305f5e1008310612285576305f5e100838161227b5761227a6130ed565b5b0492506008810190505b61271083106122aa5761271083816122a05761229f6130ed565b5b0492506004810190505b606483106122cd57606483816122c3576122c26130ed565b5b0492506002810190505b600a83106122dc576001810190505b80915050919050565b6000604051905090565b600080fd5b600080fd5b60007fffffffff0000000000000000000000000000000000000000000000000000000082169050919050565b61232e816122f9565b811461233957600080fd5b50565b60008135905061234b81612325565b92915050565b600060208284031215612367576123666122ef565b5b60006123758482850161233c565b91505092915050565b60008115159050919050565b6123938161237e565b82525050565b60006020820190506123ae600083018461238a565b92915050565b6000819050919050565b6123c7816123b4565b81146123d257600080fd5b50565b6000813590506123e4816123be565b92915050565b600060208284031215612400576123ff6122ef565b5b600061240e848285016123d5565b91505092915050565b600081519050919050565b600082825260208201905092915050565b60005b83811015612451578082015181840152602081019050612436565b60008484015250505050565b6000601f19601f8301169050919050565b600061247982612417565b6124838185612422565b9350612493818560208601612433565b61249c8161245d565b840191505092915050565b600060208201905081810360008301526124c1818461246e565b905092915050565b600073ffffffffffffffffffffffffffffffffffffffff82169050919050565b60006124f4826124c9565b9050919050565b612504816124e9565b82525050565b600060208201905061251f60008301846124fb565b92915050565b61252e816124e9565b811461253957600080fd5b50565b60008135905061254b81612525565b92915050565b60008060408385031215612568576125676122ef565b5b60006125768582860161253c565b9250506020612587858286016123d5565b9150509250929050565b600080604083850312156125a8576125a76122ef565b5b60006125b6858286016123d5565b92505060206125c78582860161253c565b9150509250929050565b6125da816123b4565b82525050565b60006020820190506125f560008301846125d1565b92915050565b600080600060608486031215612614576126136122ef565b5b60006126228682870161253c565b93505060206126338682870161253c565b9250506040612644868287016123d5565b9150509250925092565b600060208284031215612664576126636122ef565b5b60006126728482850161253c565b91505092915050565b6000819050919050565b60006126a061269b612696846124c9565b61267b565b6124c9565b9050919050565b60006126b282612685565b9050919050565b60006126c4826126a7565b9050919050565b6126d4816126b9565b82525050565b60006020820190506126ef60008301846126cb565b92915050565b600060408201905061270a600083018561238a565b61271760208301846125d1565b9392505050565b60008060408385031215612735576127346122ef565b5b6000612743858286016123d5565b9250506020612754858286016123d5565b9150509250929050565b6127678161237e565b811461277257600080fd5b50565b6000813590506127848161275e565b92915050565b600080604083850312156127a1576127a06122ef565b5b60006127af8582860161253c565b92505060206127c085828601612775565b9150509250929050565b600080fd5b600080fd5b7f4e487b7100000000000000000000000000000000000000000000000000000000600052604160045260246000fd5b61280c8261245d565b810181811067ffffffffffffffff8211171561282b5761282a6127d4565b5b80604052505050565b600061283e6122e5565b905061284a8282612803565b919050565b600067ffffffffffffffff82111561286a576128696127d4565b5b6128738261245d565b9050602081019050919050565b82818337600083830152505050565b60006128a261289d8461284f565b612834565b9050828152602081018484840111156128be576128bd6127cf565b5b6128c9848285612880565b509392505050565b600082601f8301126128e6576128e56127ca565b5b81356128f684826020860161288f565b91505092915050565b60008060008060808587031215612919576129186122ef565b5b60006129278782880161253c565b94505060206129388782880161253c565b9350506040612949878288016123d5565b925050606085013567ffffffffffffffff81111561296a576129696122f4565b5b612976878288016128d1565b91505092959194509250565b60008060408385031215612999576129986122ef565b5b60006129a78582860161253c565b92505060206129b88582860161253c565b9150509250929050565b600080fd5b600080fd5b60008083601f8401126129e2576129e16127ca565b5b8235905067ffffffffffffffff8111156129ff576129fe6129c2565b5b602083019150836001820283011115612a1b57612a1a6129c7565b5b9250929050565b600080600080600060808688031215612a3e57612a3d6122ef565b5b6000612a4c888289016123d5565b9550506020612a5d888289016123d5565b9450506040612a6e888289016123d5565b935050606086013567ffffffffffffffff811115612a8f57612a8e6122f4565b5b612a9b888289016129cc565b92509250509295509295909350565b7f53746f7279206e6f742061637469766500000000000000000000000000000000600082015250565b6000612ae0601083612422565b9150612aeb82612aaa565b602082019050919050565b60006020820190508181036000830152612b0f81612ad3565b9050919050565b7f4e487b7100000000000000000000000000000000000000000000000000000000600052601160045260246000fd5b6000612b50826123b4565b9150612b5b836123b4565b9250828201905080821115612b7357612b72612b16565b5b92915050565b7f53746f7279207374696c6c206163746976650000000000000000000000000000600082015250565b6000612baf601283612422565b9150612bba82612b79565b602082019050919050565b60006020820190508181036000830152612bde81612ba2565b9050919050565b7f4e487b7100000000000000000000000000000000000000000000000000000000600052602260045260246000fd5b60006002820490506001821680612c2c57607f821691505b602082108103612c3f57612c3e612be5565b5b50919050565b6000606082019050612c5a60008301866124fb565b612c6760208301856125d1565b612c7460408301846124fb565b949350505050565b600081905092915050565b6000612c9282612417565b612c9c8185612c7c565b9350612cac818560208601612433565b80840191505092915050565b6000612cc48285612c87565b9150612cd08284612c87565b91508190509392505050565b7f43757272656e742073746f7279207374696c6c20616374697665000000000000600082015250565b6000612d12601a83612422565b9150612d1d82612cdc565b602082019050919050565b60006020820190508181036000830152612d4181612d05565b9050919050565b6000612d53826123b4565b91507fffffffffffffffffffffffffffffffffffffffffffffffffffffffffffffffff8203612d8557612d84612b16565b5b600182019050919050565b7f53746f7279206578706972656400000000000000000000000000000000000000600082015250565b6000612dc6600d83612422565b9150612dd182612d90565b602082019050919050565b60006020820190508181036000830152612df581612db9565b9050919050565b600081519050612e0b81612525565b92915050565b600060208284031215612e2757612e266122ef565b5b6000612e3584828501612dfc565b91505092915050565b7f4e6f74206469736b206f776e6572000000000000000000000000000000000000600082015250565b6000612e74600e83612422565b9150612e7f82612e3e565b602082019050919050565b60006020820190508181036000830152612ea381612e67565b9050919050565b600081519050612eb9816123be565b92915050565b600060208284031215612ed557612ed46122ef565b5b6000612ee384828501612eaa565b91505092915050565b7f4e6f7420656e6f75676820636861726163746572730000000000000000000000600082015250565b6000612f22601583612422565b9150612f2d82612eec565b602082019050919050565b60006020820190508181036000830152612f5181612f15565b9050919050565b6000612f648385612422565b9350612f71838584612880565b612f7a8361245d565b840190509392505050565b600060a082019050612f9a60008301896125d1565b612fa760208301886125d1565b612fb460408301876124fb565b612fc160608301866125d1565b8181036080830152612fd4818486612f58565b9050979650505050505050565b600081519050919050565b600082825260208201905092915050565b600061300882612fe1565b6130128185612fec565b9350613022818560208601612433565b61302b8161245d565b840191505092915050565b600060808201905061304b60008301876124fb565b61305860208301866124fb565b61306560408301856125d1565b81810360608301526130778184612ffd565b905095945050505050565b60008151905061309181612325565b92915050565b6000602082840312156130ad576130ac6122ef565b5b60006130bb84828501613082565b91505092915050565b60006040820190506130d960008301856124fb565b6130e660208301846125d1565b9392505050565b7f4e487b7100000000000000000000000000000000000000000000000000000000600052601260045260246000fdfe68747470733a2f2f6261736577726974652d6e696e652e76657263656c2e6170702f6170692f6d657461646174612f73746f72792fa264697066735822122086e898a91cb7446fba0b792d2e5255408cd044045bf41821539b5b94967aab9464736f6c634300081c0033",
  "linkReferences": {},
  "deployedLinkReferences": {}
}