{
  "_format": "hh-sol-artifact-1",
  "contractName": "BaseWrite",
  "sourceName": "contracts/BaseWrite.sol",
  "abi": [
    {
      "inputs": [
        {
          "internalType": "address",
          "name": "diskAddress",
          "type": "address"
        }
      ],
      "stateMutability": "nonpayable",
      "type": "constructor"
    },
    {
      "inputs": [
        {
          "internalType": "address",
          "name": "sender",
          "type": "address"
        },
        {
          "internalType": "uint256",
          "name": "tokenId",
          "type": "uint256"
        },
        {
          "internalType": "address",
          "name": "owner",
          "type": "address"
        }
      ],
      "name": "ERC721IncorrectOwner",
      "type": "error"
    },
    {
      "inputs": [
        {
          "internalType": "address",
          "name": "operator",
          "type": "address"
        },
        {
          "internalType": "uint256",
          "name": "tokenId",
          "type": "uint256"
        }
      ],
      "name": "ERC721InsufficientApproval",
      "type": "error"
    },
    {
      "inputs": [
        {
          "internalType": "address",
          "name": "approver",
          "type": "address"
        }
      ],
      "name": "ERC721InvalidApprover",
      "type": "error"
    },
    {
      "inputs": [
        {
          "internalType": "address",
          "name": "operator",
          "type": "address"
        }
      ],
      "name": "ERC721InvalidOperator",
      "type": "error"
    },
    {
      "inputs": [
        {
          "internalType": "address",
          "name": "owner",
          "type": "address"
        }
      ],
      "name": "ERC721InvalidOwner",
      "type": "error"
    },
    {
      "inputs": [
        {
          "internalType": "address",
          "name": "receiver",
          "type": "address"
        }
      ],
      "name": "ERC721InvalidReceiver",
      "type": "error"
    },
    {
      "inputs": [
        {
          "internalType": "address",
          "name": "sender",
          "type": "address"
        }
      ],
      "name": "ERC721InvalidSender",
      "type": "error"
    },
    {
      "inputs": [
        {
          "internalType": "uint256",
          "name": "tokenId",
          "type": "uint256"
        }
      ],
      "name": "ERC721NonexistentToken",
      "type": "error"
    },
    {
      "inputs": [
        {
          "internalType": "address",
          "name": "owner",
          "type": "address"
        }
      ],
      "name": "OwnableInvalidOwner",
      "type": "error"
    },
    {
      "inputs": [
        {
          "internalType": "address",
          "name": "account",
          "type": "address"
        }
      ],
      "name": "OwnableUnauthorizedAccount",
      "type": "error"
    },
    {
      "anonymous": false,
      "inputs": [
        {
          "indexed": true,
          "internalType": "address",
          "name": "owner",
          "type": "address"
        },
        {
          "indexed": true,
          "internalType": "address",
          "name": "approved",
          "type": "address"
        },
        {
          "indexed": true,
          "internalType": "uint256",
          "name": "tokenId",
          "type": "uint256"
        }
      ],
      "name": "Approval",
      "type": "event"
    },
    {
      "anonymous": false,
      "inputs": [
        {
          "indexed": true,
          "internalType": "address",
          "name": "owner",
          "type": "address"
        },
        {
          "indexed": true,
          "internalType": "address",
          "name": "operator",
          "type": "address"
        },
        {
          "indexed": false,
          "internalType": "bool",
          "name": "approved",
          "type": "bool"
        }
      ],
      "name": "ApprovalForAll",
      "type": "event"
    },
    {
      "anonymous": false,
      "inputs": [
        {
          "indexed": false,
          "internalType": "uint256",
          "name": "_fromTokenId",
          "type": "uint256"
        },
        {
          "indexed": false,
          "internalType": "uint256",
          "name": "_toTokenId",
          "type": "uint256"
        }
      ],
      "name": "BatchMetadataUpdate",
      "type": "event"
    },
    {
      "anonymous": false,
      "inputs": [
        {
          "indexed": false,
          "internalType": "uint256",
          "name": "storyId",
          "type": "uint256"
        },
        {
          "indexed": false,
          "internalType": "uint256",
          "name": "tokenId",
          "type": "uint256"
        },
        {
          "indexed": false,
          "internalType": "address",
          "name": "author",
          "type": "address"
        },
        {
          "indexed": false,
          "internalType": "uint256",
          "name": "count",
          "type": "uint256"
        }
      ],
      "name": "ContributionCreated",
      "type": "event"
    },
    {
      "anonymous": false,
      "inputs": [
        {
          "indexed": false,
          "internalType": "uint256",
          "name": "_tokenId",
          "type": "uint256"
        }
      ],
      "name": "MetadataUpdate",
      "type": "event"
    },
    {
      "anonymous": false,
      "inputs": [
        {
          "indexed": true,
          "internalType": "address",
          "name": "previousOwner",
          "type": "address"
        },
        {
          "indexed": true,
          "internalType": "address",
          "name": "newOwner",
          "type": "address"
        }
      ],
      "name": "OwnershipTransferred",
      "type": "event"
    },
    {
      "anonymous": false,
      "inputs": [
        {
          "indexed": false,
          "internalType": "uint256",
          "name": "storyId",
          "type": "uint256"
        }
      ],
      "name": "StoryStarted",
      "type": "event"
    },
    {
      "anonymous": false,
      "inputs": [
        {
          "indexed": true,
          "internalType": "address",
          "name": "from",
          "type": "address"
        },
        {
          "indexed": true,
          "internalType": "address",
          "name": "to",
          "type": "address"
        },
        {
          "indexed": true,
          "internalType": "uint256",
          "name": "tokenId",
          "type": "uint256"
        }
      ],
      "name": "Transfer",
      "type": "event"
    },
    {
      "inputs": [
        {
          "internalType": "address",
          "name": "to",
          "type": "address"
        },
        {
          "internalType": "uint256",
          "name": "tokenId",
          "type": "uint256"
        }
      ],
      "name": "approve",
      "outputs": [],
      "stateMutability": "nonpayable",
      "type": "function"
    },
    {
      "inputs": [
        {
          "internalType": "address",
          "name": "owner",
          "type": "address"
        }
      ],
      "name": "balanceOf",
      "outputs": [
        {
          "internalType": "uint256",
          "name": "",
          "type": "uint256"
        }
      ],
      "stateMutability": "view",
      "type": "function"
    },
    {
      "inputs": [
        {
          "internalType": "uint256",
          "name": "storyId",
          "type": "uint256"
        },
        {
          "internalType": "address",
          "name": "author",
          "type": "address"
        }
      ],
      "name": "charactersUsed",
      "outputs": [
        {
          "internalType": "uint256",
          "name": "",
          "type": "uint256"
        }
      ],
      "stateMutability": "view",
      "type": "function"
    },
    {
      "inputs": [
        {
          "internalType": "uint256",
          "name": "storyId",
          "type": "uint256"
        },
        {
          "internalType": "uint256",
          "name": "diskId",
          "type": "uint256"
        },
        {
          "internalType": "uint256",
          "name": "length",
          "type": "uint256"
        }
      ],
      "name": "contribute",
      "outputs": [],
      "stateMutability": "nonpayable",
      "type": "function"
    },
    {
      "inputs": [],
      "name": "disk",
      "outputs": [
        {
          "internalType": "contract IDisk",
          "name": "",
          "type": "address"
        }
      ],
      "stateMutability": "view",
      "type": "function"
    },
    {
      "inputs": [
        {
          "internalType": "uint256",
          "name": "tokenId",
          "type": "uint256"
        }
      ],
      "name": "getApproved",
      "outputs": [
        {
          "internalType": "address",
          "name": "",
          "type": "address"
        }
      ],
      "stateMutability": "view",
      "type": "function"
    },
    {
      "inputs": [
        {
          "internalType": "address",
          "name": "owner",
          "type": "address"
        },
        {
          "internalType": "address",
          "name": "operator",
          "type": "address"
        }
      ],
      "name": "isApprovedForAll",
      "outputs": [
        {
          "internalType": "bool",
          "name": "",
          "type": "bool"
        }
      ],
      "stateMutability": "view",
      "type": "function"
    },
    {
      "inputs": [],
      "name": "name",
      "outputs": [
        {
          "internalType": "string",
          "name": "",
          "type": "string"
        }
      ],
      "stateMutability": "view",
      "type": "function"
    },
    {
      "inputs": [],
      "name": "owner",
      "outputs": [
        {
          "internalType": "address",
          "name": "",
          "type": "address"
        }
      ],
      "stateMutability": "view",
      "type": "function"
    },
    {
      "inputs": [
        {
          "internalType": "uint256",
          "name": "tokenId",
          "type": "uint256"
        }
      ],
      "name": "ownerOf",
      "outputs": [
        {
          "internalType": "address",
          "name": "",
          "type": "address"
        }
      ],
      "stateMutability": "view",
      "type": "function"
    },
    {
      "inputs": [],
      "name": "renounceOwnership",
      "outputs": [],
      "stateMutability": "nonpayable",
      "type": "function"
    },
    {
      "inputs": [
        {
          "internalType": "address",
          "name": "from",
          "type": "address"
        },
        {
          "internalType": "address",
          "name": "to",
          "type": "address"
        },
        {
          "internalType": "uint256",
          "name": "tokenId",
          "type": "uint256"
        }
      ],
      "name": "safeTransferFrom",
      "outputs": [],
      "stateMutability": "nonpayable",
      "type": "function"
    },
    {
      "inputs": [
        {
          "internalType": "address",
          "name": "from",
          "type": "address"
        },
        {
          "internalType": "address",
          "name": "to",
          "type": "address"
        },
        {
          "internalType": "uint256",
          "name": "tokenId",
          "type": "uint256"
        },
        {
          "internalType": "bytes",
          "name": "data",
          "type": "bytes"
        }
      ],
      "name": "safeTransferFrom",
      "outputs": [],
      "stateMutability": "nonpayable",
      "type": "function"
    },
    {
      "inputs": [
        {
          "internalType": "address",
          "name": "operator",
          "type": "address"
        },
        {
          "internalType": "bool",
          "name": "approved",
          "type": "bool"
        }
      ],
      "name": "setApprovalForAll",
      "outputs": [],
      "stateMutability": "nonpayable",
      "type": "function"
    },
    {
      "inputs": [],
      "name": "startStory",
      "outputs": [],
      "stateMutability": "nonpayable",
      "type": "function"
    },
    {
      "inputs": [
        {
          "internalType": "uint256",
          "name": "storyId",
          "type": "uint256"
        }
      ],
      "name": "stories",
      "outputs": [
        {
          "internalType": "bool",
          "name": "isActive",
          "type": "bool"
        },
        {
          "internalType": "uint256",
          "name": "totalContributions",
          "type": "uint256"
        }
      ],
      "stateMutability": "view",
      "type": "function"
    },
    {
      "inputs": [],
      "name": "storyCount",
      "outputs": [
        {
          "internalType": "uint256",
          "name": "",
          "type": "uint256"
        }
      ],
      "stateMutability": "view",
      "type": "function"
    },
    {
      "inputs": [
        {
          "internalType": "bytes4",
          "name": "interfaceId",
          "type": "bytes4"
        }
      ],
      "name": "supportsInterface",
      "outputs": [
        {
          "internalType": "bool",
          "name": "",
          "type": "bool"
        }
      ],
      "stateMutability": "view",
      "type": "function"
    },
    {
      "inputs": [],
      "name": "symbol",
      "outputs": [
        {
          "internalType": "string",
          "name": "",
          "type": "string"
        }
      ],
      "stateMutability": "view",
      "type": "function"
    },
    {
      "inputs": [
        {
          "internalType": "uint256",
          "name": "storyId",
          "type": "uint256"
        },
        {
          "internalType": "uint256",
          "name": "diskId",
          "type": "uint256"
        }
      ],
      "name": "tokenIdToCharacterCount",
      "outputs": [
        {
          "internalType": "uint256",
          "name": "",
          "type": "uint256"
        }
      ],
      "stateMutability": "view",
      "type": "function"
    },
    {
      "inputs": [
        {
          "internalType": "uint256",
          "name": "tokenId",
          "type": "uint256"
        }
      ],
      "name": "tokenURI",
      "outputs": [
        {
          "internalType": "string",
          "name": "",
          "type": "string"
        }
      ],
      "stateMutability": "view",
      "type": "function"
    },
    {
      "inputs": [
        {
          "internalType": "address",
          "name": "from",
          "type": "address"
        },
        {
          "internalType": "address",
          "name": "to",
          "type": "address"
        },
        {
          "internalType": "uint256",
          "name": "tokenId",
          "type": "uint256"
        }
      ],
      "name": "transferFrom",
      "outputs": [],
      "stateMutability": "nonpayable",
      "type": "function"
    },
    {
      "inputs": [
        {
          "internalType": "address",
          "name": "newOwner",
          "type": "address"
        }
      ],
      "name": "transferOwnership",
      "outputs": [],
      "stateMutability": "nonpayable",
      "type": "function"
    }
  ],
  "bytecode": "0x608060405234801561001057600080fd5b5060405161333b38038061333b8339818101604052810190610032919061041e565b336040518060400160405280600981526020017f42617365577269746500000000000000000000000000000000000000000000008152506040518060400160405280600381526020017f425753000000000000000000000000000000000000000000000000000000000081525081600090816100ae919061069b565b5080600190816100be919061069b565b505050600073ffffffffffffffffffffffffffffffffffffffff168173ffffffffffffffffffffffffffffffffffffffff16036101335760006040517f1e4fbdf700000000000000000000000000000000000000000000000000000000815260040161012a919061077c565b60405180910390fd5b6101428161019860201b60201c565b5080600860006101000a81548173ffffffffffffffffffffffffffffffffffffffff021916908373ffffffffffffffffffffffffffffffffffffffff16021790555061019261025e60201b60201c565b50610838565b6000600760009054906101000a900473ffffffffffffffffffffffffffffffffffffffff16905081600760006101000a81548173ffffffffffffffffffffffffffffffffffffffff021916908373ffffffffffffffffffffffffffffffffffffffff1602179055508173ffffffffffffffffffffffffffffffffffffffff168173ffffffffffffffffffffffffffffffffffffffff167f8be0079c531659141344cd1fd0a4f28419497f9722a3daafe3b4186f6b6457e060405160405180910390a35050565b61026c6102f060201b60201c565b6009600081548092919061027f906107c6565b91905055506001600a6000600954815260200190815260200160002060000160006101000a81548160ff0219169083151502179055507f91be3744df3a3c4558fd3addf17f1e8bb5b8f9d6cf799cc6008eba50cefc13566009546040516102e6919061081d565b60405180910390a1565b6102fe61038960201b60201c565b73ffffffffffffffffffffffffffffffffffffffff1661032261039160201b60201c565b73ffffffffffffffffffffffffffffffffffffffff16146103875761034b61038960201b60201c565b6040517f118cdaa700000000000000000000000000000000000000000000000000000000815260040161037e919061077c565b60405180910390fd5b565b600033905090565b6000600760009054906101000a900473ffffffffffffffffffffffffffffffffffffffff16905090565b600080fd5b600073ffffffffffffffffffffffffffffffffffffffff82169050919050565b60006103eb826103c0565b9050919050565b6103fb816103e0565b811461040657600080fd5b50565b600081519050610418816103f2565b92915050565b600060208284031215610434576104336103bb565b5b600061044284828501610409565b91505092915050565b600081519050919050565b7f4e487b7100000000000000000000000000000000000000000000000000000000600052604160045260246000fd5b7f4e487b7100000000000000000000000000000000000000000000000000000000600052602260045260246000fd5b600060028204905060018216806104cc57607f821691505b6020821081036104df576104de610485565b5b50919050565b60008190508160005260206000209050919050565b60006020601f8301049050919050565b600082821b905092915050565b6000600883026105477fffffffffffffffffffffffffffffffffffffffffffffffffffffffffffffffff8261050a565b610551868361050a565b95508019841693508086168417925050509392505050565b6000819050919050565b6000819050919050565b600061059861059361058e84610569565b610573565b610569565b9050919050565b6000819050919050565b6105b28361057d565b6105c66105be8261059f565b848454610517565b825550505050565b600090565b6105db6105ce565b6105e68184846105a9565b505050565b5b8181101561060a576105ff6000826105d3565b6001810190506105ec565b5050565b601f82111561064f57610620816104e5565b610629846104fa565b81016020851015610638578190505b61064c610644856104fa565b8301826105eb565b50505b505050565b600082821c905092915050565b600061067260001984600802610654565b1980831691505092915050565b600061068b8383610661565b9150826002028217905092915050565b6106a48261044b565b67ffffffffffffffff8111156106bd576106bc610456565b5b6106c782546104b4565b6106d282828561060e565b600060209050601f83116001811461070557600084156106f3578287015190505b6106fd858261067f565b865550610765565b601f198416610713866104e5565b60005b8281101561073b57848901518255600182019150602085019450602081019050610716565b868310156107585784890151610754601f891682610661565b8355505b6001600288020188555050505b505050505050565b610776816103e0565b82525050565b6000602082019050610791600083018461076d565b92915050565b7f4e487b7100000000000000000000000000000000000000000000000000000000600052601160045260246000fd5b60006107d182610569565b91507fffffffffffffffffffffffffffffffffffffffffffffffffffffffffffffffff820361080357610802610797565b5b600182019050919050565b61081781610569565b82525050565b6000602082019050610832600083018461080e565b92915050565b612af4806108476000396000f3fe608060405234801561001057600080fd5b506004361061014d5760003560e01c806370a08231116100c357806395d89b411161007c57806395d89b411461039f578063a22cb465146103bd578063b88d4fde146103d9578063c87b56dd146103f5578063e985e9c514610425578063f2fde38b146104555761014d565b806370a08231146102ca578063715018a6146102fa5780637d98adaf146103045780638a3b6ab8146103205780638da5cb5b1461035157806392b442931461036f5761014d565b806323b872dd1161011557806323b872dd1461021c57806342842e0e146102385780634c7e9ecc1461025457806353330e49146102725780635f9abadf1461027c5780636352211e1461029a5761014d565b806301ffc9a71461015257806306fdde0314610182578063081812fc146101a0578063095ea7b3146101d05780631ee479f8146101ec575b600080fd5b61016c60048036038101906101679190611edb565b610471565b6040516101799190611f23565b60405180910390f35b61018a6104d2565b6040516101979190611fce565b60405180910390f35b6101ba60048036038101906101b59190612026565b610564565b6040516101c79190612094565b60405180910390f35b6101ea60048036038101906101e591906120db565b610580565b005b6102066004803603810190610201919061211b565b610596565b604051610213919061216a565b60405180910390f35b61023660048036038101906102319190612185565b6105f4565b005b610252600480360381019061024d9190612185565b6106f6565b005b61025c610716565b604051610269919061216a565b60405180910390f35b61027a61071c565b005b6102846107a8565b6040516102919190612237565b60405180910390f35b6102b460048036038101906102af9190612026565b6107ce565b6040516102c19190612094565b60405180910390f35b6102e460048036038101906102df9190612252565b6107e0565b6040516102f1919061216a565b60405180910390f35b61030261089a565b005b61031e6004803603810190610319919061227f565b6108ae565b005b61033a60048036038101906103359190612026565b610c05565b6040516103489291906122d2565b60405180910390f35b610359610c36565b6040516103669190612094565b60405180910390f35b610389600480360381019061038491906122fb565b610c60565b604051610396919061216a565b60405180910390f35b6103a7610c92565b6040516103b49190611fce565b60405180910390f35b6103d760048036038101906103d29190612367565b610d24565b005b6103f360048036038101906103ee91906124dc565b610d3a565b005b61040f600480360381019061040a9190612026565b610d5f565b60405161041c9190611fce565b60405180910390f35b61043f600480360381019061043a919061255f565b610e72565b60405161044c9190611f23565b60405180910390f35b61046f600480360381019061046a9190612252565b610f06565b005b6000634906490660e01b7bffffffffffffffffffffffffffffffffffffffffffffffffffffffff1916827bffffffffffffffffffffffffffffffffffffffffffffffffffffffff191614806104cb57506104ca82610f8c565b5b9050919050565b6060600080546104e1906125ce565b80601f016020809104026020016040519081016040528092919081815260200182805461050d906125ce565b801561055a5780601f1061052f5761010080835404028352916020019161055a565b820191906000526020600020905b81548152906001019060200180831161053d57829003601f168201915b5050505050905090565b600061056f8261106e565b50610579826110f6565b9050919050565b610592828261058d611133565b61113b565b5050565b6000600a600084815260200190815260200160002060020160008373ffffffffffffffffffffffffffffffffffffffff1673ffffffffffffffffffffffffffffffffffffffff16815260200190815260200160002054905092915050565b600073ffffffffffffffffffffffffffffffffffffffff168273ffffffffffffffffffffffffffffffffffffffff16036106665760006040517f64a0ae9200000000000000000000000000000000000000000000000000000000815260040161065d9190612094565b60405180910390fd5b600061067a8383610675611133565b61114d565b90508373ffffffffffffffffffffffffffffffffffffffff168173ffffffffffffffffffffffffffffffffffffffff16146106f0578382826040517f64283d7b0000000000000000000000000000000000000000000000000000000081526004016106e7939291906125ff565b60405180910390fd5b50505050565b61071183838360405180602001604052806000815250610d3a565b505050565b60095481565b610724611367565b6009600081548092919061073790612665565b91905055506001600a6000600954815260200190815260200160002060000160006101000a81548160ff0219169083151502179055507f91be3744df3a3c4558fd3addf17f1e8bb5b8f9d6cf799cc6008eba50cefc135660095460405161079e919061216a565b60405180910390a1565b600860009054906101000a900473ffffffffffffffffffffffffffffffffffffffff1681565b60006107d98261106e565b9050919050565b60008073ffffffffffffffffffffffffffffffffffffffff168273ffffffffffffffffffffffffffffffffffffffff16036108535760006040517f89c62b6400000000000000000000000000000000000000000000000000000000815260040161084a9190612094565b60405180910390fd5b600360008373ffffffffffffffffffffffffffffffffffffffff1673ffffffffffffffffffffffffffffffffffffffff168152602001908152602001600020549050919050565b6108a2611367565b6108ac60006113ee565b565b600a600084815260200190815260200160002060000160009054906101000a900460ff16610911576040517f08c379a0000000000000000000000000000000000000000000000000000000008152600401610908906126f9565b60405180910390fd5b600860009054906101000a900473ffffffffffffffffffffffffffffffffffffffff1673ffffffffffffffffffffffffffffffffffffffff16636352211e836040518263ffffffff1660e01b815260040161096c919061216a565b602060405180830381865afa158015610989573d6000803e3d6000fd5b505050506040513d601f19601f820116820180604052508101906109ad919061272e565b73ffffffffffffffffffffffffffffffffffffffff163373ffffffffffffffffffffffffffffffffffffffff1614610a1a576040517f08c379a0000000000000000000000000000000000000000000000000000000008152600401610a11906127a7565b60405180910390fd5b6000600a60008581526020019081526020016000209050818160020160003373ffffffffffffffffffffffffffffffffffffffff1673ffffffffffffffffffffffffffffffffffffffff1681526020019081526020016000206000828254610a8291906127c7565b92505081905550818160030160008581526020019081526020016000206000828254610aae91906127c7565b92505081905550806001016000815480929190610aca90612665565b9190505550600860009054906101000a900473ffffffffffffffffffffffffffffffffffffffff1673ffffffffffffffffffffffffffffffffffffffff1663a20cccb3846040518263ffffffff1660e01b8152600401610b2a919061216a565b602060405180830381865afa158015610b47573d6000803e3d6000fd5b505050506040513d601f19601f82011682018060405250810190610b6b9190612810565b816003016000858152602001908152602001600020541115610bc2576040517f08c379a0000000000000000000000000000000000000000000000000000000008152600401610bb990612889565b60405180910390fd5b7f07cb81d16ae9cfdc4ce889174340145d873198d20f7bf61170a9776a224ba33684843385604051610bf794939291906128a9565b60405180910390a150505050565b600a6020528060005260406000206000915090508060000160009054906101000a900460ff16908060010154905082565b6000600760009054906101000a900473ffffffffffffffffffffffffffffffffffffffff16905090565b6000600a6000848152602001908152602001600020600301600083815260200190815260200160002054905092915050565b606060018054610ca1906125ce565b80601f0160208091040260200160405190810160405280929190818152602001828054610ccd906125ce565b8015610d1a5780601f10610cef57610100808354040283529160200191610d1a565b820191906000526020600020905b815481529060010190602001808311610cfd57829003601f168201915b5050505050905090565b610d36610d2f611133565b83836114b4565b5050565b610d458484846105f4565b610d59610d50611133565b85858585611623565b50505050565b6060610d6a8261106e565b506000600660008481526020019081526020016000208054610d8b906125ce565b80601f0160208091040260200160405190810160405280929190818152602001828054610db7906125ce565b8015610e045780601f10610dd957610100808354040283529160200191610e04565b820191906000526020600020905b815481529060010190602001808311610de757829003601f168201915b505050505090506000610e156117d4565b90506000815103610e2a578192505050610e6d565b600082511115610e5f578082604051602001610e4792919061292a565b60405160208183030381529060405292505050610e6d565b610e68846117f4565b925050505b919050565b6000600560008473ffffffffffffffffffffffffffffffffffffffff1673ffffffffffffffffffffffffffffffffffffffff16815260200190815260200160002060008373ffffffffffffffffffffffffffffffffffffffff1673ffffffffffffffffffffffffffffffffffffffff16815260200190815260200160002060009054906101000a900460ff16905092915050565b610f0e611367565b600073ffffffffffffffffffffffffffffffffffffffff168173ffffffffffffffffffffffffffffffffffffffff1603610f805760006040517f1e4fbdf7000000000000000000000000000000000000000000000000000000008152600401610f779190612094565b60405180910390fd5b610f89816113ee565b50565b60007f80ac58cd000000000000000000000000000000000000000000000000000000007bffffffffffffffffffffffffffffffffffffffffffffffffffffffff1916827bffffffffffffffffffffffffffffffffffffffffffffffffffffffff1916148061105757507f5b5e139f000000000000000000000000000000000000000000000000000000007bffffffffffffffffffffffffffffffffffffffffffffffffffffffff1916827bffffffffffffffffffffffffffffffffffffffffffffffffffffffff1916145b8061106757506110668261185d565b5b9050919050565b60008061107a836118c7565b9050600073ffffffffffffffffffffffffffffffffffffffff168173ffffffffffffffffffffffffffffffffffffffff16036110ed57826040517f7e2732890000000000000000000000000000000000000000000000000000000081526004016110e4919061216a565b60405180910390fd5b80915050919050565b60006004600083815260200190815260200160002060009054906101000a900473ffffffffffffffffffffffffffffffffffffffff169050919050565b600033905090565b6111488383836001611904565b505050565b600080611159846118c7565b9050600073ffffffffffffffffffffffffffffffffffffffff168373ffffffffffffffffffffffffffffffffffffffff161461119b5761119a818486611ac9565b5b600073ffffffffffffffffffffffffffffffffffffffff168173ffffffffffffffffffffffffffffffffffffffff161461122c576111dd600085600080611904565b6001600360008373ffffffffffffffffffffffffffffffffffffffff1673ffffffffffffffffffffffffffffffffffffffff168152602001908152602001600020600082825403925050819055505b600073ffffffffffffffffffffffffffffffffffffffff168573ffffffffffffffffffffffffffffffffffffffff16146112af576001600360008773ffffffffffffffffffffffffffffffffffffffff1673ffffffffffffffffffffffffffffffffffffffff168152602001908152602001600020600082825401925050819055505b846002600086815260200190815260200160002060006101000a81548173ffffffffffffffffffffffffffffffffffffffff021916908373ffffffffffffffffffffffffffffffffffffffff160217905550838573ffffffffffffffffffffffffffffffffffffffff168273ffffffffffffffffffffffffffffffffffffffff167fddf252ad1be2c89b69c2b068fc378daa952ba7f163c4a11628f55a4df523b3ef60405160405180910390a4809150509392505050565b61136f611133565b73ffffffffffffffffffffffffffffffffffffffff1661138d610c36565b73ffffffffffffffffffffffffffffffffffffffff16146113ec576113b0611133565b6040517f118cdaa70000000000000000000000000000000000000000000000000000000081526004016113e39190612094565b60405180910390fd5b565b6000600760009054906101000a900473ffffffffffffffffffffffffffffffffffffffff16905081600760006101000a81548173ffffffffffffffffffffffffffffffffffffffff021916908373ffffffffffffffffffffffffffffffffffffffff1602179055508173ffffffffffffffffffffffffffffffffffffffff168173ffffffffffffffffffffffffffffffffffffffff167f8be0079c531659141344cd1fd0a4f28419497f9722a3daafe3b4186f6b6457e060405160405180910390a35050565b600073ffffffffffffffffffffffffffffffffffffffff168273ffffffffffffffffffffffffffffffffffffffff160361152557816040517f5b08ba1800000000000000000000000000000000000000000000000000000000815260040161151c9190612094565b60405180910390fd5b80600560008573ffffffffffffffffffffffffffffffffffffffff1673ffffffffffffffffffffffffffffffffffffffff16815260200190815260200160002060008473ffffffffffffffffffffffffffffffffffffffff1673ffffffffffffffffffffffffffffffffffffffff16815260200190815260200160002060006101000a81548160ff0219169083151502179055508173ffffffffffffffffffffffffffffffffffffffff168373ffffffffffffffffffffffffffffffffffffffff167f17307eab39ab6107e8899845ad3d59bd9653f200f220920489ca2b5937696c31836040516116169190611f23565b60405180910390a3505050565b60008373ffffffffffffffffffffffffffffffffffffffff163b11156117cd578273ffffffffffffffffffffffffffffffffffffffff1663150b7a02868685856040518563ffffffff1660e01b815260040161168294939291906129a3565b6020604051808303816000875af19250505080156116be57506040513d601f19601f820116820180604052508101906116bb9190612a04565b60015b611742573d80600081146116ee576040519150601f19603f3d011682016040523d82523d6000602084013e6116f3565b606091505b50600081510361173a57836040517f64a0ae920000000000000000000000000000000000000000000000000000000081526004016117319190612094565b60405180910390fd5b805181602001fd5b63150b7a0260e01b7bffffffffffffffffffffffffffffffffffffffffffffffffffffffff1916817bffffffffffffffffffffffffffffffffffffffffffffffffffffffff1916146117cb57836040517f64a0ae920000000000000000000000000000000000000000000000000000000081526004016117c29190612094565b60405180910390fd5b505b5050505050565b6060604051806060016040528060358152602001612a8a60359139905090565b60606117ff8261106e565b50600061180a6117d4565b9050600081511161182a5760405180602001604052806000815250611855565b8061183484611b8d565b60405160200161184592919061292a565b6040516020818303038152906040525b915050919050565b60007f01ffc9a7000000000000000000000000000000000000000000000000000000007bffffffffffffffffffffffffffffffffffffffffffffffffffffffff1916827bffffffffffffffffffffffffffffffffffffffffffffffffffffffff1916149050919050565b60006002600083815260200190815260200160002060009054906101000a900473ffffffffffffffffffffffffffffffffffffffff169050919050565b808061193d5750600073ffffffffffffffffffffffffffffffffffffffff168273ffffffffffffffffffffffffffffffffffffffff1614155b15611a7157600061194d8461106e565b9050600073ffffffffffffffffffffffffffffffffffffffff168373ffffffffffffffffffffffffffffffffffffffff16141580156119b857508273ffffffffffffffffffffffffffffffffffffffff168173ffffffffffffffffffffffffffffffffffffffff1614155b80156119cb57506119c98184610e72565b155b15611a0d57826040517fa9fbf51f000000000000000000000000000000000000000000000000000000008152600401611a049190612094565b60405180910390fd5b8115611a6f57838573ffffffffffffffffffffffffffffffffffffffff168273ffffffffffffffffffffffffffffffffffffffff167f8c5be1e5ebec7d5bd14f71427d1e84f3dd0314c0f7b2291e5b200ac8c7c3b92560405160405180910390a45b505b836004600085815260200190815260200160002060006101000a81548173ffffffffffffffffffffffffffffffffffffffff021916908373ffffffffffffffffffffffffffffffffffffffff16021790555050505050565b611ad4838383611c5b565b611b8857600073ffffffffffffffffffffffffffffffffffffffff168373ffffffffffffffffffffffffffffffffffffffff1603611b4957806040517f7e273289000000000000000000000000000000000000000000000000000000008152600401611b40919061216a565b60405180910390fd5b81816040517f177e802f000000000000000000000000000000000000000000000000000000008152600401611b7f929190612a31565b60405180910390fd5b505050565b606060006001611b9c84611d1c565b01905060008167ffffffffffffffff811115611bbb57611bba6123b1565b5b6040519080825280601f01601f191660200182016040528015611bed5781602001600182028036833780820191505090505b509050600082602001820190505b600115611c50578080600190039150507f3031323334353637383961626364656600000000000000000000000000000000600a86061a8153600a8581611c4457611c43612a5a565b5b04945060008503611bfb575b819350505050919050565b60008073ffffffffffffffffffffffffffffffffffffffff168373ffffffffffffffffffffffffffffffffffffffff1614158015611d1357508273ffffffffffffffffffffffffffffffffffffffff168473ffffffffffffffffffffffffffffffffffffffff161480611cd45750611cd38484610e72565b5b80611d1257508273ffffffffffffffffffffffffffffffffffffffff16611cfa836110f6565b73ffffffffffffffffffffffffffffffffffffffff16145b5b90509392505050565b600080600090507a184f03e93ff9f4daa797ed6e38ed64bf6a1f0100000000000000008310611d7a577a184f03e93ff9f4daa797ed6e38ed64bf6a1f0100000000000000008381611d7057611d6f612a5a565b5b0492506040810190505b6d04ee2d6d415b85acef81000000008310611db7576d04ee2d6d415b85acef81000000008381611dad57611dac612a5a565b5b0492506020810190505b662386f26fc100008310611de657662386f26fc100008381611ddc57611ddb612a5a565b5b0492506010810190505b6305f5e1008310611e0f576305f5e1008381611e0557611e04612a5a565b5b0492506008810190505b6127108310611e34576127108381611e2a57611e29612a5a565b5b0492506004810190505b60648310611e575760648381611e4d57611e4c612a5a565b5b0492506002810190505b600a8310611e66576001810190505b80915050919050565b6000604051905090565b600080fd5b600080fd5b60007fffffffff0000000000000000000000000000000000000000000000000000000082169050919050565b611eb881611e83565b8114611ec357600080fd5b50565b600081359050611ed581611eaf565b92915050565b600060208284031215611ef157611ef0611e79565b5b6000611eff84828501611ec6565b91505092915050565b60008115159050919050565b611f1d81611f08565b82525050565b6000602082019050611f386000830184611f14565b92915050565b600081519050919050565b600082825260208201905092915050565b60005b83811015611f78578082015181840152602081019050611f5d565b60008484015250505050565b6000601f19601f8301169050919050565b6000611fa082611f3e565b611faa8185611f49565b9350611fba818560208601611f5a565b611fc381611f84565b840191505092915050565b60006020820190508181036000830152611fe88184611f95565b905092915050565b6000819050919050565b61200381611ff0565b811461200e57600080fd5b50565b60008135905061202081611ffa565b92915050565b60006020828403121561203c5761203b611e79565b5b600061204a84828501612011565b91505092915050565b600073ffffffffffffffffffffffffffffffffffffffff82169050919050565b600061207e82612053565b9050919050565b61208e81612073565b82525050565b60006020820190506120a96000830184612085565b92915050565b6120b881612073565b81146120c357600080fd5b50565b6000813590506120d5816120af565b92915050565b600080604083850312156120f2576120f1611e79565b5b6000612100858286016120c6565b925050602061211185828601612011565b9150509250929050565b6000806040838503121561213257612131611e79565b5b600061214085828601612011565b9250506020612151858286016120c6565b9150509250929050565b61216481611ff0565b82525050565b600060208201905061217f600083018461215b565b92915050565b60008060006060848603121561219e5761219d611e79565b5b60006121ac868287016120c6565b93505060206121bd868287016120c6565b92505060406121ce86828701612011565b9150509250925092565b6000819050919050565b60006121fd6121f86121f384612053565b6121d8565b612053565b9050919050565b600061220f826121e2565b9050919050565b600061222182612204565b9050919050565b61223181612216565b82525050565b600060208201905061224c6000830184612228565b92915050565b60006020828403121561226857612267611e79565b5b6000612276848285016120c6565b91505092915050565b60008060006060848603121561229857612297611e79565b5b60006122a686828701612011565b93505060206122b786828701612011565b92505060406122c886828701612011565b9150509250925092565b60006040820190506122e76000830185611f14565b6122f4602083018461215b565b9392505050565b6000806040838503121561231257612311611e79565b5b600061232085828601612011565b925050602061233185828601612011565b9150509250929050565b61234481611f08565b811461234f57600080fd5b50565b6000813590506123618161233b565b92915050565b6000806040838503121561237e5761237d611e79565b5b600061238c858286016120c6565b925050602061239d85828601612352565b9150509250929050565b600080fd5b600080fd5b7f4e487b7100000000000000000000000000000000000000000000000000000000600052604160045260246000fd5b6123e982611f84565b810181811067ffffffffffffffff82111715612408576124076123b1565b5b80604052505050565b600061241b611e6f565b905061242782826123e0565b919050565b600067ffffffffffffffff821115612447576124466123b1565b5b61245082611f84565b9050602081019050919050565b82818337600083830152505050565b600061247f61247a8461242c565b612411565b90508281526020810184848401111561249b5761249a6123ac565b5b6124a684828561245d565b509392505050565b600082601f8301126124c3576124c26123a7565b5b81356124d384826020860161246c565b91505092915050565b600080600080608085870312156124f6576124f5611e79565b5b6000612504878288016120c6565b9450506020612515878288016120c6565b935050604061252687828801612011565b925050606085013567ffffffffffffffff81111561254757612546611e7e565b5b612553878288016124ae565b91505092959194509250565b6000806040838503121561257657612575611e79565b5b6000612584858286016120c6565b9250506020612595858286016120c6565b9150509250929050565b7f4e487b7100000000000000000000000000000000000000000000000000000000600052602260045260246000fd5b600060028204905060018216806125e657607f821691505b6020821081036125f9576125f861259f565b5b50919050565b60006060820190506126146000830186612085565b612621602083018561215b565b61262e6040830184612085565b949350505050565b7f4e487b7100000000000000000000000000000000000000000000000000000000600052601160045260246000fd5b600061267082611ff0565b91507fffffffffffffffffffffffffffffffffffffffffffffffffffffffffffffffff82036126a2576126a1612636565b5b600182019050919050565b7f53746f7279206e6f742061637469766500000000000000000000000000000000600082015250565b60006126e3601083611f49565b91506126ee826126ad565b602082019050919050565b60006020820190508181036000830152612712816126d6565b9050919050565b600081519050612728816120af565b92915050565b60006020828403121561274457612743611e79565b5b600061275284828501612719565b91505092915050565b7f4e6f74206f776e65720000000000000000000000000000000000000000000000600082015250565b6000612791600983611f49565b915061279c8261275b565b602082019050919050565b600060208201905081810360008301526127c081612784565b9050919050565b60006127d282611ff0565b91506127dd83611ff0565b92508282019050808211156127f5576127f4612636565b5b92915050565b60008151905061280a81611ffa565b92915050565b60006020828403121561282657612825611e79565b5b6000612834848285016127fb565b91505092915050565b7f4e6f7420656e6f75676820636861726163746572730000000000000000000000600082015250565b6000612873601583611f49565b915061287e8261283d565b602082019050919050565b600060208201905081810360008301526128a281612866565b9050919050565b60006080820190506128be600083018761215b565b6128cb602083018661215b565b6128d86040830185612085565b6128e5606083018461215b565b95945050505050565b600081905092915050565b600061290482611f3e565b61290e81856128ee565b935061291e818560208601611f5a565b80840191505092915050565b600061293682856128f9565b915061294282846128f9565b91508190509392505050565b600081519050919050565b600082825260208201905092915050565b60006129758261294e565b61297f8185612959565b935061298f818560208601611f5a565b61299881611f84565b840191505092915050565b60006080820190506129b86000830187612085565b6129c56020830186612085565b6129d2604083018561215b565b81810360608301526129e4818461296a565b905095945050505050565b6000815190506129fe81611eaf565b92915050565b600060208284031215612a1a57612a19611e79565b5b6000612a28848285016129ef565b91505092915050565b6000604082019050612a466000830185612085565b612a53602083018461215b565b9392505050565b7f4e487b7100000000000000000000000000000000000000000000000000000000600052601260045260246000fdfe68747470733a2f2f6261736577726974652d6e696e652e76657263656c2e6170702f6170692f6d657461646174612f73746f72792fa264697066735822122057eec9bf1de3e6fe222b1950261b609497069204a9bf56a1656daa5217dd85c264736f6c634300081c0033",
  "linkReferences": {},
  "deployedLinkReferences": {}
}