{
  "_format": "hh-sol-artifact-1",
  "contractName": "Disk",
  "sourceName": "contracts/Disk.sol",
  "abi": [
    {
      "inputs": [
        {
          "internalType": "uint256",
          "name": "initalLimit",
          "type": "uint256"
        }
      ],
      "stateMutability": "nonpayable",
      "type": "constructor"
    },
    {
      "inputs": [],
      "name": "ERC721EnumerableForbiddenBatchMint",
      "type": "error"
    },
    {
      "inputs": [
        {
          "internalType": "address",
          "name": "sender",
          "type": "address"
        },
        {
          "internalType": "uint256",
          "name": "tokenId",
          "type": "uint256"
        },
        {
          "internalType": "address",
          "name": "owner",
          "type": "address"
        }
      ],
      "name": "ERC721IncorrectOwner",
      "type": "error"
    },
    {
      "inputs": [
        {
          "internalType": "address",
          "name": "operator",
          "type": "address"
        },
        {
          "internalType": "uint256",
          "name": "tokenId",
          "type": "uint256"
        }
      ],
      "name": "ERC721InsufficientApproval",
      "type": "error"
    },
    {
      "inputs": [
        {
          "internalType": "address",
          "name": "approver",
          "type": "address"
        }
      ],
      "name": "ERC721InvalidApprover",
      "type": "error"
    },
    {
      "inputs": [
        {
          "internalType": "address",
          "name": "operator",
          "type": "address"
        }
      ],
      "name": "ERC721InvalidOperator",
      "type": "error"
    },
    {
      "inputs": [
        {
          "internalType": "address",
          "name": "owner",
          "type": "address"
        }
      ],
      "name": "ERC721InvalidOwner",
      "type": "error"
    },
    {
      "inputs": [
        {
          "internalType": "address",
          "name": "receiver",
          "type": "address"
        }
      ],
      "name": "ERC721InvalidReceiver",
      "type": "error"
    },
    {
      "inputs": [
        {
          "internalType": "address",
          "name": "sender",
          "type": "address"
        }
      ],
      "name": "ERC721InvalidSender",
      "type": "error"
    },
    {
      "inputs": [
        {
          "internalType": "uint256",
          "name": "tokenId",
          "type": "uint256"
        }
      ],
      "name": "ERC721NonexistentToken",
      "type": "error"
    },
    {
      "inputs": [
        {
          "internalType": "address",
          "name": "owner",
          "type": "address"
        },
        {
          "internalType": "uint256",
          "name": "index",
          "type": "uint256"
        }
      ],
      "name": "ERC721OutOfBoundsIndex",
      "type": "error"
    },
    {
      "inputs": [
        {
          "internalType": "address",
          "name": "owner",
          "type": "address"
        }
      ],
      "name": "OwnableInvalidOwner",
      "type": "error"
    },
    {
      "inputs": [
        {
          "internalType": "address",
          "name": "account",
          "type": "address"
        }
      ],
      "name": "OwnableUnauthorizedAccount",
      "type": "error"
    },
    {
      "anonymous": false,
      "inputs": [
        {
          "indexed": true,
          "internalType": "address",
          "name": "owner",
          "type": "address"
        },
        {
          "indexed": true,
          "internalType": "address",
          "name": "approved",
          "type": "address"
        },
        {
          "indexed": true,
          "internalType": "uint256",
          "name": "tokenId",
          "type": "uint256"
        }
      ],
      "name": "Approval",
      "type": "event"
    },
    {
      "anonymous": false,
      "inputs": [
        {
          "indexed": true,
          "internalType": "address",
          "name": "owner",
          "type": "address"
        },
        {
          "indexed": true,
          "internalType": "address",
          "name": "operator",
          "type": "address"
        },
        {
          "indexed": false,
          "internalType": "bool",
          "name": "approved",
          "type": "bool"
        }
      ],
      "name": "ApprovalForAll",
      "type": "event"
    },
    {
      "anonymous": false,
      "inputs": [
        {
          "indexed": false,
          "internalType": "uint256",
          "name": "_fromTokenId",
          "type": "uint256"
        },
        {
          "indexed": false,
          "internalType": "uint256",
          "name": "_toTokenId",
          "type": "uint256"
        }
      ],
      "name": "BatchMetadataUpdate",
      "type": "event"
    },
    {
      "anonymous": false,
      "inputs": [
        {
          "indexed": false,
          "internalType": "uint256",
          "name": "_tokenId",
          "type": "uint256"
        }
      ],
      "name": "MetadataUpdate",
      "type": "event"
    },
    {
      "anonymous": false,
      "inputs": [
        {
          "indexed": true,
          "internalType": "address",
          "name": "previousOwner",
          "type": "address"
        },
        {
          "indexed": true,
          "internalType": "address",
          "name": "newOwner",
          "type": "address"
        }
      ],
      "name": "OwnershipTransferred",
      "type": "event"
    },
    {
      "anonymous": false,
      "inputs": [
        {
          "indexed": true,
          "internalType": "address",
          "name": "from",
          "type": "address"
        },
        {
          "indexed": true,
          "internalType": "address",
          "name": "to",
          "type": "address"
        },
        {
          "indexed": true,
          "internalType": "uint256",
          "name": "tokenId",
          "type": "uint256"
        }
      ],
      "name": "Transfer",
      "type": "event"
    },
    {
      "inputs": [
        {
          "internalType": "address",
          "name": "to",
          "type": "address"
        },
        {
          "internalType": "uint256",
          "name": "tokenId",
          "type": "uint256"
        }
      ],
      "name": "approve",
      "outputs": [],
      "stateMutability": "nonpayable",
      "type": "function"
    },
    {
      "inputs": [
        {
          "internalType": "address",
          "name": "owner",
          "type": "address"
        }
      ],
      "name": "balanceOf",
      "outputs": [
        {
          "internalType": "uint256",
          "name": "",
          "type": "uint256"
        }
      ],
      "stateMutability": "view",
      "type": "function"
    },
    {
      "inputs": [
        {
          "internalType": "uint256",
          "name": "",
          "type": "uint256"
        }
      ],
      "name": "charLimits",
      "outputs": [
        {
          "internalType": "uint256",
          "name": "",
          "type": "uint256"
        }
      ],
      "stateMutability": "view",
      "type": "function"
    },
    {
      "inputs": [],
      "name": "defaultCharLimit",
      "outputs": [
        {
          "internalType": "uint256",
          "name": "",
          "type": "uint256"
        }
      ],
      "stateMutability": "view",
      "type": "function"
    },
    {
      "inputs": [
        {
          "internalType": "uint256",
          "name": "tokenId",
          "type": "uint256"
        }
      ],
      "name": "getApproved",
      "outputs": [
        {
          "internalType": "address",
          "name": "",
          "type": "address"
        }
      ],
      "stateMutability": "view",
      "type": "function"
    },
    {
      "inputs": [
        {
          "internalType": "address",
          "name": "owner",
          "type": "address"
        },
        {
          "internalType": "address",
          "name": "operator",
          "type": "address"
        }
      ],
      "name": "isApprovedForAll",
      "outputs": [
        {
          "internalType": "bool",
          "name": "",
          "type": "bool"
        }
      ],
      "stateMutability": "view",
      "type": "function"
    },
    {
      "inputs": [],
      "name": "mint",
      "outputs": [
        {
          "internalType": "uint256",
          "name": "",
          "type": "uint256"
        }
      ],
      "stateMutability": "nonpayable",
      "type": "function"
    },
    {
      "inputs": [],
      "name": "name",
      "outputs": [
        {
          "internalType": "string",
          "name": "",
          "type": "string"
        }
      ],
      "stateMutability": "view",
      "type": "function"
    },
    {
      "inputs": [],
      "name": "owner",
      "outputs": [
        {
          "internalType": "address",
          "name": "",
          "type": "address"
        }
      ],
      "stateMutability": "view",
      "type": "function"
    },
    {
      "inputs": [
        {
          "internalType": "uint256",
          "name": "tokenId",
          "type": "uint256"
        }
      ],
      "name": "ownerOf",
      "outputs": [
        {
          "internalType": "address",
          "name": "",
          "type": "address"
        }
      ],
      "stateMutability": "view",
      "type": "function"
    },
    {
      "inputs": [],
      "name": "renounceOwnership",
      "outputs": [],
      "stateMutability": "nonpayable",
      "type": "function"
    },
    {
      "inputs": [
        {
          "internalType": "address",
          "name": "from",
          "type": "address"
        },
        {
          "internalType": "address",
          "name": "to",
          "type": "address"
        },
        {
          "internalType": "uint256",
          "name": "tokenId",
          "type": "uint256"
        }
      ],
      "name": "safeTransferFrom",
      "outputs": [],
      "stateMutability": "nonpayable",
      "type": "function"
    },
    {
      "inputs": [
        {
          "internalType": "address",
          "name": "from",
          "type": "address"
        },
        {
          "internalType": "address",
          "name": "to",
          "type": "address"
        },
        {
          "internalType": "uint256",
          "name": "tokenId",
          "type": "uint256"
        },
        {
          "internalType": "bytes",
          "name": "data",
          "type": "bytes"
        }
      ],
      "name": "safeTransferFrom",
      "outputs": [],
      "stateMutability": "nonpayable",
      "type": "function"
    },
    {
      "inputs": [
        {
          "internalType": "address",
          "name": "operator",
          "type": "address"
        },
        {
          "internalType": "bool",
          "name": "approved",
          "type": "bool"
        }
      ],
      "name": "setApprovalForAll",
      "outputs": [],
      "stateMutability": "nonpayable",
      "type": "function"
    },
    {
      "inputs": [
        {
          "internalType": "bytes4",
          "name": "interfaceId",
          "type": "bytes4"
        }
      ],
      "name": "supportsInterface",
      "outputs": [
        {
          "internalType": "bool",
          "name": "",
          "type": "bool"
        }
      ],
      "stateMutability": "view",
      "type": "function"
    },
    {
      "inputs": [],
      "name": "symbol",
      "outputs": [
        {
          "internalType": "string",
          "name": "",
          "type": "string"
        }
      ],
      "stateMutability": "view",
      "type": "function"
    },
    {
      "inputs": [
        {
          "internalType": "uint256",
          "name": "index",
          "type": "uint256"
        }
      ],
      "name": "tokenByIndex",
      "outputs": [
        {
          "internalType": "uint256",
          "name": "",
          "type": "uint256"
        }
      ],
      "stateMutability": "view",
      "type": "function"
    },
    {
      "inputs": [],
      "name": "tokenCount",
      "outputs": [
        {
          "internalType": "uint256",
          "name": "",
          "type": "uint256"
        }
      ],
      "stateMutability": "view",
      "type": "function"
    },
    {
      "inputs": [
        {
          "internalType": "address",
          "name": "owner",
          "type": "address"
        },
        {
          "internalType": "uint256",
          "name": "index",
          "type": "uint256"
        }
      ],
      "name": "tokenOfOwnerByIndex",
      "outputs": [
        {
          "internalType": "uint256",
          "name": "",
          "type": "uint256"
        }
      ],
      "stateMutability": "view",
      "type": "function"
    },
    {
      "inputs": [
        {
          "internalType": "uint256",
          "name": "tokenId",
          "type": "uint256"
        }
      ],
      "name": "tokenURI",
      "outputs": [
        {
          "internalType": "string",
          "name": "",
          "type": "string"
        }
      ],
      "stateMutability": "view",
      "type": "function"
    },
    {
      "inputs": [],
      "name": "totalSupply",
      "outputs": [
        {
          "internalType": "uint256",
          "name": "",
          "type": "uint256"
        }
      ],
      "stateMutability": "view",
      "type": "function"
    },
    {
      "inputs": [
        {
          "internalType": "address",
          "name": "from",
          "type": "address"
        },
        {
          "internalType": "address",
          "name": "to",
          "type": "address"
        },
        {
          "internalType": "uint256",
          "name": "tokenId",
          "type": "uint256"
        }
      ],
      "name": "transferFrom",
      "outputs": [],
      "stateMutability": "nonpayable",
      "type": "function"
    },
    {
      "inputs": [
        {
          "internalType": "address",
          "name": "newOwner",
          "type": "address"
        }
      ],
      "name": "transferOwnership",
      "outputs": [],
      "stateMutability": "nonpayable",
      "type": "function"
    },
    {
      "inputs": [
        {
          "internalType": "uint256",
          "name": "newLimit",
          "type": "uint256"
        }
      ],
      "name": "updateDefaultLimit",
      "outputs": [],
      "stateMutability": "nonpayable",
      "type": "function"
    },
    {
      "inputs": [
        {
          "internalType": "uint256",
          "name": "tokenId",
          "type": "uint256"
        },
        {
          "internalType": "uint256",
          "name": "amount",
          "type": "uint256"
        }
      ],
      "name": "updateUsage",
      "outputs": [
        {
          "internalType": "uint256",
          "name": "",
          "type": "uint256"
        }
      ],
      "stateMutability": "nonpayable",
      "type": "function"
    },
    {
      "inputs": [
        {
          "internalType": "uint256",
          "name": "",
          "type": "uint256"
        }
      ],
      "name": "usedChars",
      "outputs": [
        {
          "internalType": "uint256",
          "name": "",
          "type": "uint256"
        }
      ],
      "stateMutability": "view",
      "type": "function"
    }
  ],
  "bytecode": "0x608060405234801561001057600080fd5b5060405161345938038061345983398181016040528101906100329190610251565b336040518060400160405280600481526020017f4449534b000000000000000000000000000000000000000000000000000000008152506040518060400160405280600381526020017f444f42000000000000000000000000000000000000000000000000000000000081525081600090816100ae91906104c4565b5080600190816100be91906104c4565b505050600073ffffffffffffffffffffffffffffffffffffffff168173ffffffffffffffffffffffffffffffffffffffff16036101335760006040517f1e4fbdf700000000000000000000000000000000000000000000000000000000815260040161012a91906105d7565b60405180910390fd5b6101428161015060201b60201c565b5080600d81905550506105f2565b6000600b60009054906101000a900473ffffffffffffffffffffffffffffffffffffffff16905081600b60006101000a81548173ffffffffffffffffffffffffffffffffffffffff021916908373ffffffffffffffffffffffffffffffffffffffff1602179055508173ffffffffffffffffffffffffffffffffffffffff168173ffffffffffffffffffffffffffffffffffffffff167f8be0079c531659141344cd1fd0a4f28419497f9722a3daafe3b4186f6b6457e060405160405180910390a35050565b600080fd5b6000819050919050565b61022e8161021b565b811461023957600080fd5b50565b60008151905061024b81610225565b92915050565b60006020828403121561026757610266610216565b5b60006102758482850161023c565b91505092915050565b600081519050919050565b7f4e487b7100000000000000000000000000000000000000000000000000000000600052604160045260246000fd5b7f4e487b7100000000000000000000000000000000000000000000000000000000600052602260045260246000fd5b600060028204905060018216806102ff57607f821691505b602082108103610312576103116102b8565b5b50919050565b60008190508160005260206000209050919050565b60006020601f8301049050919050565b600082821b905092915050565b60006008830261037a7fffffffffffffffffffffffffffffffffffffffffffffffffffffffffffffffff8261033d565b610384868361033d565b95508019841693508086168417925050509392505050565b6000819050919050565b60006103c16103bc6103b78461021b565b61039c565b61021b565b9050919050565b6000819050919050565b6103db836103a6565b6103ef6103e7826103c8565b84845461034a565b825550505050565b600090565b6104046103f7565b61040f8184846103d2565b505050565b5b81811015610433576104286000826103fc565b600181019050610415565b5050565b601f8211156104785761044981610318565b6104528461032d565b81016020851015610461578190505b61047561046d8561032d565b830182610414565b50505b505050565b600082821c905092915050565b600061049b6000198460080261047d565b1980831691505092915050565b60006104b4838361048a565b9150826002028217905092915050565b6104cd8261027e565b67ffffffffffffffff8111156104e6576104e5610289565b5b6104f082546102e7565b6104fb828285610437565b600060209050601f83116001811461052e576000841561051c578287015190505b61052685826104a8565b86555061058e565b601f19841661053c86610318565b60005b828110156105645784890151825560018201915060208501945060208101905061053f565b86831015610581578489015161057d601f89168261048a565b8355505b6001600288020188555050505b505050505050565b600073ffffffffffffffffffffffffffffffffffffffff82169050919050565b60006105c182610596565b9050919050565b6105d1816105b6565b82525050565b60006020820190506105ec60008301846105c8565b92915050565b612e58806106016000396000f3fe608060405234801561001057600080fd5b506004361061018e5760003560e01c80636352211e116100de578063a20cccb311610097578063b8dd302911610071578063b8dd302914610497578063c87b56dd146104c7578063e985e9c5146104f7578063f2fde38b146105275761018e565b8063a20cccb31461042f578063a22cb4651461045f578063b88d4fde1461047b5761018e565b80636352211e1461036b57806370a082311461039b578063715018a6146103cb5780638da5cb5b146103d557806395d89b41146103f35780639f181b5e146104115761018e565b806323b872dd1161014b57806349661fca1161012557806349661fca146102d15780634f6ccce7146102ef5780635521c2db1461031f578063629dee601461034f5761018e565b806323b872dd146102695780632f745c591461028557806342842e0e146102b55761018e565b806301ffc9a71461019357806306fdde03146101c3578063081812fc146101e1578063095ea7b3146102115780631249c58b1461022d57806318160ddd1461024b575b600080fd5b6101ad60048036038101906101a891906123b2565b610543565b6040516101ba91906123fa565b60405180910390f35b6101cb610555565b6040516101d891906124a5565b60405180910390f35b6101fb60048036038101906101f691906124fd565b6105e7565b604051610208919061256b565b60405180910390f35b61022b600480360381019061022691906125b2565b610603565b005b610235610619565b6040516102429190612601565b60405180910390f35b610253610663565b6040516102609190612601565b60405180910390f35b610283600480360381019061027e919061261c565b610670565b005b61029f600480360381019061029a91906125b2565b610772565b6040516102ac9190612601565b60405180910390f35b6102cf60048036038101906102ca919061261c565b61081b565b005b6102d961083b565b6040516102e69190612601565b60405180910390f35b610309600480360381019061030491906124fd565b610841565b6040516103169190612601565b60405180910390f35b610339600480360381019061033491906124fd565b6108b7565b6040516103469190612601565b60405180910390f35b610369600480360381019061036491906124fd565b6108cf565b005b610385600480360381019061038091906124fd565b610924565b604051610392919061256b565b60405180910390f35b6103b560048036038101906103b0919061266f565b610936565b6040516103c29190612601565b60405180910390f35b6103d36109f0565b005b6103dd610a04565b6040516103ea919061256b565b60405180910390f35b6103fb610a2e565b60405161040891906124a5565b60405180910390f35b610419610ac0565b6040516104269190612601565b60405180910390f35b610449600480360381019061044491906124fd565b610ac6565b6040516104569190612601565b60405180910390f35b610479600480360381019061047491906126c8565b610ade565b005b6104956004803603810190610490919061283d565b610af4565b005b6104b160048036038101906104ac91906128c0565b610b19565b6040516104be9190612601565b60405180910390f35b6104e160048036038101906104dc91906124fd565b610c4b565b6040516104ee91906124a5565b60405180910390f35b610511600480360381019061050c9190612900565b610c5d565b60405161051e91906123fa565b60405180910390f35b610541600480360381019061053c919061266f565b610cf1565b005b600061054e82610d77565b9050919050565b6060600080546105649061296f565b80601f01602080910402602001604051908101604052809291908181526020018280546105909061296f565b80156105dd5780601f106105b2576101008083540402835291602001916105dd565b820191906000526020600020905b8154815290600101906020018083116105c057829003601f168201915b5050505050905090565b60006105f282610df1565b506105fc82610e79565b9050919050565b6106158282610610610eb6565b610ebe565b5050565b6000600c600081548092919061062e906129cf565b9190505550600d54600e6000600c5481526020019081526020016000208190555061065b33600c54610ed0565b600c54905090565b6000600980549050905090565b600073ffffffffffffffffffffffffffffffffffffffff168273ffffffffffffffffffffffffffffffffffffffff16036106e25760006040517f64a0ae920000000000000000000000000000000000000000000000000000000081526004016106d9919061256b565b60405180910390fd5b60006106f683836106f1610eb6565b610eee565b90508373ffffffffffffffffffffffffffffffffffffffff168173ffffffffffffffffffffffffffffffffffffffff161461076c578382826040517f64283d7b00000000000000000000000000000000000000000000000000000000815260040161076393929190612a17565b60405180910390fd5b50505050565b600061077d83610936565b82106107c25782826040517fa57d13dc0000000000000000000000000000000000000000000000000000000081526004016107b9929190612a4e565b60405180910390fd5b600760008473ffffffffffffffffffffffffffffffffffffffff1673ffffffffffffffffffffffffffffffffffffffff168152602001908152602001600020600083815260200190815260200160002054905092915050565b61083683838360405180602001604052806000815250610af4565b505050565b600d5481565b600061084b610663565b8210610891576000826040517fa57d13dc000000000000000000000000000000000000000000000000000000008152600401610888929190612a4e565b60405180910390fd5b600982815481106108a5576108a4612a77565b5b90600052602060002001549050919050565b600f6020528060005260406000206000915090505481565b6108d7610f04565b6000811161091a576040517f08c379a000000000000000000000000000000000000000000000000000000000815260040161091190612af2565b60405180910390fd5b80600d8190555050565b600061092f82610df1565b9050919050565b60008073ffffffffffffffffffffffffffffffffffffffff168273ffffffffffffffffffffffffffffffffffffffff16036109a95760006040517f89c62b640000000000000000000000000000000000000000000000000000000081526004016109a0919061256b565b60405180910390fd5b600360008373ffffffffffffffffffffffffffffffffffffffff1673ffffffffffffffffffffffffffffffffffffffff168152602001908152602001600020549050919050565b6109f8610f04565b610a026000610f8b565b565b6000600b60009054906101000a900473ffffffffffffffffffffffffffffffffffffffff16905090565b606060018054610a3d9061296f565b80601f0160208091040260200160405190810160405280929190818152602001828054610a699061296f565b8015610ab65780601f10610a8b57610100808354040283529160200191610ab6565b820191906000526020600020905b815481529060010190602001808311610a9957829003601f168201915b5050505050905090565b600c5481565b600e6020528060005260406000206000915090505481565b610af0610ae9610eb6565b8383611051565b5050565b610aff848484610670565b610b13610b0a610eb6565b858585856111c0565b50505050565b6000610b2483610924565b73ffffffffffffffffffffffffffffffffffffffff163373ffffffffffffffffffffffffffffffffffffffff1614610b91576040517f08c379a0000000000000000000000000000000000000000000000000000000008152600401610b8890612b5e565b60405180910390fd5b600e60008481526020019081526020016000205482600f600086815260200190815260200160002054610bc49190612b7e565b1115610c05576040517f08c379a0000000000000000000000000000000000000000000000000000000008152600401610bfc90612bfe565b60405180910390fd5b81600f60008581526020019081526020016000206000828254610c289190612b7e565b92505081905550600f600084815260200190815260200160002054905092915050565b6060610c5682611371565b9050919050565b6000600560008473ffffffffffffffffffffffffffffffffffffffff1673ffffffffffffffffffffffffffffffffffffffff16815260200190815260200160002060008373ffffffffffffffffffffffffffffffffffffffff1673ffffffffffffffffffffffffffffffffffffffff16815260200190815260200160002060009054906101000a900460ff16905092915050565b610cf9610f04565b600073ffffffffffffffffffffffffffffffffffffffff168173ffffffffffffffffffffffffffffffffffffffff1603610d6b5760006040517f1e4fbdf7000000000000000000000000000000000000000000000000000000008152600401610d62919061256b565b60405180910390fd5b610d7481610f8b565b50565b60007f780e9d63000000000000000000000000000000000000000000000000000000007bffffffffffffffffffffffffffffffffffffffffffffffffffffffff1916827bffffffffffffffffffffffffffffffffffffffffffffffffffffffff19161480610dea5750610de982611484565b5b9050919050565b600080610dfd836114e5565b9050600073ffffffffffffffffffffffffffffffffffffffff168173ffffffffffffffffffffffffffffffffffffffff1603610e7057826040517f7e273289000000000000000000000000000000000000000000000000000000008152600401610e679190612601565b60405180910390fd5b80915050919050565b60006004600083815260200190815260200160002060009054906101000a900473ffffffffffffffffffffffffffffffffffffffff169050919050565b600033905090565b610ecb8383836001611522565b505050565b610eea8282604051806020016040528060008152506116e7565b5050565b6000610efb84848461170b565b90509392505050565b610f0c610eb6565b73ffffffffffffffffffffffffffffffffffffffff16610f2a610a04565b73ffffffffffffffffffffffffffffffffffffffff1614610f8957610f4d610eb6565b6040517f118cdaa7000000000000000000000000000000000000000000000000000000008152600401610f80919061256b565b60405180910390fd5b565b6000600b60009054906101000a900473ffffffffffffffffffffffffffffffffffffffff16905081600b60006101000a81548173ffffffffffffffffffffffffffffffffffffffff021916908373ffffffffffffffffffffffffffffffffffffffff1602179055508173ffffffffffffffffffffffffffffffffffffffff168173ffffffffffffffffffffffffffffffffffffffff167f8be0079c531659141344cd1fd0a4f28419497f9722a3daafe3b4186f6b6457e060405160405180910390a35050565b600073ffffffffffffffffffffffffffffffffffffffff168273ffffffffffffffffffffffffffffffffffffffff16036110c257816040517f5b08ba180000000000000000000000000000000000000000000000000000000081526004016110b9919061256b565b60405180910390fd5b80600560008573ffffffffffffffffffffffffffffffffffffffff1673ffffffffffffffffffffffffffffffffffffffff16815260200190815260200160002060008473ffffffffffffffffffffffffffffffffffffffff1673ffffffffffffffffffffffffffffffffffffffff16815260200190815260200160002060006101000a81548160ff0219169083151502179055508173ffffffffffffffffffffffffffffffffffffffff168373ffffffffffffffffffffffffffffffffffffffff167f17307eab39ab6107e8899845ad3d59bd9653f200f220920489ca2b5937696c31836040516111b391906123fa565b60405180910390a3505050565b60008373ffffffffffffffffffffffffffffffffffffffff163b111561136a578273ffffffffffffffffffffffffffffffffffffffff1663150b7a02868685856040518563ffffffff1660e01b815260040161121f9493929190612c73565b6020604051808303816000875af192505050801561125b57506040513d601f19601f820116820180604052508101906112589190612cd4565b60015b6112df573d806000811461128b576040519150601f19603f3d011682016040523d82523d6000602084013e611290565b606091505b5060008151036112d757836040517f64a0ae920000000000000000000000000000000000000000000000000000000081526004016112ce919061256b565b60405180910390fd5b805181602001fd5b63150b7a0260e01b7bffffffffffffffffffffffffffffffffffffffffffffffffffffffff1916817bffffffffffffffffffffffffffffffffffffffffffffffffffffffff19161461136857836040517f64a0ae9200000000000000000000000000000000000000000000000000000000815260040161135f919061256b565b60405180910390fd5b505b5050505050565b606061137c82610df1565b50600060066000848152602001908152602001600020805461139d9061296f565b80601f01602080910402602001604051908101604052809291908181526020018280546113c99061296f565b80156114165780601f106113eb57610100808354040283529160200191611416565b820191906000526020600020905b8154815290600101906020018083116113f957829003601f168201915b505050505090506000611427611828565b9050600081510361143c57819250505061147f565b600082511115611471578082604051602001611459929190612d3d565b6040516020818303038152906040529250505061147f565b61147a84611848565b925050505b919050565b6000634906490660e01b7bffffffffffffffffffffffffffffffffffffffffffffffffffffffff1916827bffffffffffffffffffffffffffffffffffffffffffffffffffffffff191614806114de57506114dd826118b1565b5b9050919050565b60006002600083815260200190815260200160002060009054906101000a900473ffffffffffffffffffffffffffffffffffffffff169050919050565b808061155b5750600073ffffffffffffffffffffffffffffffffffffffff168273ffffffffffffffffffffffffffffffffffffffff1614155b1561168f57600061156b84610df1565b9050600073ffffffffffffffffffffffffffffffffffffffff168373ffffffffffffffffffffffffffffffffffffffff16141580156115d657508273ffffffffffffffffffffffffffffffffffffffff168173ffffffffffffffffffffffffffffffffffffffff1614155b80156115e957506115e78184610c5d565b155b1561162b57826040517fa9fbf51f000000000000000000000000000000000000000000000000000000008152600401611622919061256b565b60405180910390fd5b811561168d57838573ffffffffffffffffffffffffffffffffffffffff168273ffffffffffffffffffffffffffffffffffffffff167f8c5be1e5ebec7d5bd14f71427d1e84f3dd0314c0f7b2291e5b200ac8c7c3b92560405160405180910390a45b505b836004600085815260200190815260200160002060006101000a81548173ffffffffffffffffffffffffffffffffffffffff021916908373ffffffffffffffffffffffffffffffffffffffff16021790555050505050565b6116f18383611993565b6117066116fc610eb6565b60008585856111c0565b505050565b600080611719858585611a8c565b9050600073ffffffffffffffffffffffffffffffffffffffff168173ffffffffffffffffffffffffffffffffffffffff160361175d5761175884611ca6565b61179c565b8473ffffffffffffffffffffffffffffffffffffffff168173ffffffffffffffffffffffffffffffffffffffff161461179b5761179a8185611cef565b5b5b600073ffffffffffffffffffffffffffffffffffffffff168573ffffffffffffffffffffffffffffffffffffffff16036117de576117d984611dda565b61181d565b8473ffffffffffffffffffffffffffffffffffffffff168173ffffffffffffffffffffffffffffffffffffffff161461181c5761181b8585611eab565b5b5b809150509392505050565b60606040518060600160405280602f8152602001612df4602f9139905090565b606061185382610df1565b50600061185e611828565b9050600081511161187e57604051806020016040528060008152506118a9565b8061188884611f36565b604051602001611899929190612d3d565b6040516020818303038152906040525b915050919050565b60007f80ac58cd000000000000000000000000000000000000000000000000000000007bffffffffffffffffffffffffffffffffffffffffffffffffffffffff1916827bffffffffffffffffffffffffffffffffffffffffffffffffffffffff1916148061197c57507f5b5e139f000000000000000000000000000000000000000000000000000000007bffffffffffffffffffffffffffffffffffffffffffffffffffffffff1916827bffffffffffffffffffffffffffffffffffffffffffffffffffffffff1916145b8061198c575061198b82612004565b5b9050919050565b600073ffffffffffffffffffffffffffffffffffffffff168273ffffffffffffffffffffffffffffffffffffffff1603611a055760006040517f64a0ae920000000000000000000000000000000000000000000000000000000081526004016119fc919061256b565b60405180910390fd5b6000611a1383836000610eee565b9050600073ffffffffffffffffffffffffffffffffffffffff168173ffffffffffffffffffffffffffffffffffffffff1614611a875760006040517f73c6ac6e000000000000000000000000000000000000000000000000000000008152600401611a7e919061256b565b60405180910390fd5b505050565b600080611a98846114e5565b9050600073ffffffffffffffffffffffffffffffffffffffff168373ffffffffffffffffffffffffffffffffffffffff1614611ada57611ad981848661206e565b5b600073ffffffffffffffffffffffffffffffffffffffff168173ffffffffffffffffffffffffffffffffffffffff1614611b6b57611b1c600085600080611522565b6001600360008373ffffffffffffffffffffffffffffffffffffffff1673ffffffffffffffffffffffffffffffffffffffff168152602001908152602001600020600082825403925050819055505b600073ffffffffffffffffffffffffffffffffffffffff168573ffffffffffffffffffffffffffffffffffffffff1614611bee576001600360008773ffffffffffffffffffffffffffffffffffffffff1673ffffffffffffffffffffffffffffffffffffffff168152602001908152602001600020600082825401925050819055505b846002600086815260200190815260200160002060006101000a81548173ffffffffffffffffffffffffffffffffffffffff021916908373ffffffffffffffffffffffffffffffffffffffff160217905550838573ffffffffffffffffffffffffffffffffffffffff168273ffffffffffffffffffffffffffffffffffffffff167fddf252ad1be2c89b69c2b068fc378daa952ba7f163c4a11628f55a4df523b3ef60405160405180910390a4809150509392505050565b600980549050600a600083815260200190815260200160002081905550600981908060018154018082558091505060019003906000526020600020016000909190919091505550565b6000611cfa83610936565b90506000600860008481526020019081526020016000205490506000600760008673ffffffffffffffffffffffffffffffffffffffff1673ffffffffffffffffffffffffffffffffffffffff1681526020019081526020016000209050828214611da65760008160008581526020019081526020016000205490508082600085815260200190815260200160002081905550826008600083815260200190815260200160002081905550505b6008600085815260200190815260200160002060009055806000848152602001908152602001600020600090555050505050565b60006001600980549050611dee9190612d61565b90506000600a6000848152602001908152602001600020549050600060098381548110611e1e57611e1d612a77565b5b906000526020600020015490508060098381548110611e4057611e3f612a77565b5b906000526020600020018190555081600a600083815260200190815260200160002081905550600a6000858152602001908152602001600020600090556009805480611e8f57611e8e612d95565b5b6001900381819060005260206000200160009055905550505050565b60006001611eb884610936565b611ec29190612d61565b905081600760008573ffffffffffffffffffffffffffffffffffffffff1673ffffffffffffffffffffffffffffffffffffffff168152602001908152602001600020600083815260200190815260200160002081905550806008600084815260200190815260200160002081905550505050565b606060006001611f4584612132565b01905060008167ffffffffffffffff811115611f6457611f63612712565b5b6040519080825280601f01601f191660200182016040528015611f965781602001600182028036833780820191505090505b509050600082602001820190505b600115611ff9578080600190039150507f3031323334353637383961626364656600000000000000000000000000000000600a86061a8153600a8581611fed57611fec612dc4565b5b04945060008503611fa4575b819350505050919050565b60007f01ffc9a7000000000000000000000000000000000000000000000000000000007bffffffffffffffffffffffffffffffffffffffffffffffffffffffff1916827bffffffffffffffffffffffffffffffffffffffffffffffffffffffff1916149050919050565b612079838383612285565b61212d57600073ffffffffffffffffffffffffffffffffffffffff168373ffffffffffffffffffffffffffffffffffffffff16036120ee57806040517f7e2732890000000000000000000000000000000000000000000000000000000081526004016120e59190612601565b60405180910390fd5b81816040517f177e802f000000000000000000000000000000000000000000000000000000008152600401612124929190612a4e565b60405180910390fd5b505050565b600080600090507a184f03e93ff9f4daa797ed6e38ed64bf6a1f0100000000000000008310612190577a184f03e93ff9f4daa797ed6e38ed64bf6a1f010000000000000000838161218657612185612dc4565b5b0492506040810190505b6d04ee2d6d415b85acef810000000083106121cd576d04ee2d6d415b85acef810000000083816121c3576121c2612dc4565b5b0492506020810190505b662386f26fc1000083106121fc57662386f26fc1000083816121f2576121f1612dc4565b5b0492506010810190505b6305f5e1008310612225576305f5e100838161221b5761221a612dc4565b5b0492506008810190505b612710831061224a5761271083816122405761223f612dc4565b5b0492506004810190505b6064831061226d576064838161226357612262612dc4565b5b0492506002810190505b600a831061227c576001810190505b80915050919050565b60008073ffffffffffffffffffffffffffffffffffffffff168373ffffffffffffffffffffffffffffffffffffffff161415801561233d57508273ffffffffffffffffffffffffffffffffffffffff168473ffffffffffffffffffffffffffffffffffffffff1614806122fe57506122fd8484610c5d565b5b8061233c57508273ffffffffffffffffffffffffffffffffffffffff1661232483610e79565b73ffffffffffffffffffffffffffffffffffffffff16145b5b90509392505050565b6000604051905090565b600080fd5b600080fd5b60007fffffffff0000000000000000000000000000000000000000000000000000000082169050919050565b61238f8161235a565b811461239a57600080fd5b50565b6000813590506123ac81612386565b92915050565b6000602082840312156123c8576123c7612350565b5b60006123d68482850161239d565b91505092915050565b60008115159050919050565b6123f4816123df565b82525050565b600060208201905061240f60008301846123eb565b92915050565b600081519050919050565b600082825260208201905092915050565b60005b8381101561244f578082015181840152602081019050612434565b60008484015250505050565b6000601f19601f8301169050919050565b600061247782612415565b6124818185612420565b9350612491818560208601612431565b61249a8161245b565b840191505092915050565b600060208201905081810360008301526124bf818461246c565b905092915050565b6000819050919050565b6124da816124c7565b81146124e557600080fd5b50565b6000813590506124f7816124d1565b92915050565b60006020828403121561251357612512612350565b5b6000612521848285016124e8565b91505092915050565b600073ffffffffffffffffffffffffffffffffffffffff82169050919050565b60006125558261252a565b9050919050565b6125658161254a565b82525050565b6000602082019050612580600083018461255c565b92915050565b61258f8161254a565b811461259a57600080fd5b50565b6000813590506125ac81612586565b92915050565b600080604083850312156125c9576125c8612350565b5b60006125d78582860161259d565b92505060206125e8858286016124e8565b9150509250929050565b6125fb816124c7565b82525050565b600060208201905061261660008301846125f2565b92915050565b60008060006060848603121561263557612634612350565b5b60006126438682870161259d565b93505060206126548682870161259d565b9250506040612665868287016124e8565b9150509250925092565b60006020828403121561268557612684612350565b5b60006126938482850161259d565b91505092915050565b6126a5816123df565b81146126b057600080fd5b50565b6000813590506126c28161269c565b92915050565b600080604083850312156126df576126de612350565b5b60006126ed8582860161259d565b92505060206126fe858286016126b3565b9150509250929050565b600080fd5b600080fd5b7f4e487b7100000000000000000000000000000000000000000000000000000000600052604160045260246000fd5b61274a8261245b565b810181811067ffffffffffffffff8211171561276957612768612712565b5b80604052505050565b600061277c612346565b90506127888282612741565b919050565b600067ffffffffffffffff8211156127a8576127a7612712565b5b6127b18261245b565b9050602081019050919050565b82818337600083830152505050565b60006127e06127db8461278d565b612772565b9050828152602081018484840111156127fc576127fb61270d565b5b6128078482856127be565b509392505050565b600082601f83011261282457612823612708565b5b81356128348482602086016127cd565b91505092915050565b6000806000806080858703121561285757612856612350565b5b60006128658782880161259d565b94505060206128768782880161259d565b9350506040612887878288016124e8565b925050606085013567ffffffffffffffff8111156128a8576128a7612355565b5b6128b48782880161280f565b91505092959194509250565b600080604083850312156128d7576128d6612350565b5b60006128e5858286016124e8565b92505060206128f6858286016124e8565b9150509250929050565b6000806040838503121561291757612916612350565b5b60006129258582860161259d565b92505060206129368582860161259d565b9150509250929050565b7f4e487b7100000000000000000000000000000000000000000000000000000000600052602260045260246000fd5b6000600282049050600182168061298757607f821691505b60208210810361299a57612999612940565b5b50919050565b7f4e487b7100000000000000000000000000000000000000000000000000000000600052601160045260246000fd5b60006129da826124c7565b91507fffffffffffffffffffffffffffffffffffffffffffffffffffffffffffffffff8203612a0c57612a0b6129a0565b5b600182019050919050565b6000606082019050612a2c600083018661255c565b612a3960208301856125f2565b612a46604083018461255c565b949350505050565b6000604082019050612a63600083018561255c565b612a7060208301846125f2565b9392505050565b7f4e487b7100000000000000000000000000000000000000000000000000000000600052603260045260246000fd5b7f44656661756c74206c696d69742063616e206e6f74206265207a65726f000000600082015250565b6000612adc601d83612420565b9150612ae782612aa6565b602082019050919050565b60006020820190508181036000830152612b0b81612acf565b9050919050565b7f4e6f742074686520746f6b656e206f776e657200000000000000000000000000600082015250565b6000612b48601383612420565b9150612b5382612b12565b602082019050919050565b60006020820190508181036000830152612b7781612b3b565b9050919050565b6000612b89826124c7565b9150612b94836124c7565b9250828201905080821115612bac57612bab6129a0565b5b92915050565b7f4e6f2063686172616374657273206c6566740000000000000000000000000000600082015250565b6000612be8601283612420565b9150612bf382612bb2565b602082019050919050565b60006020820190508181036000830152612c1781612bdb565b9050919050565b600081519050919050565b600082825260208201905092915050565b6000612c4582612c1e565b612c4f8185612c29565b9350612c5f818560208601612431565b612c688161245b565b840191505092915050565b6000608082019050612c88600083018761255c565b612c95602083018661255c565b612ca260408301856125f2565b8181036060830152612cb48184612c3a565b905095945050505050565b600081519050612cce81612386565b92915050565b600060208284031215612cea57612ce9612350565b5b6000612cf884828501612cbf565b91505092915050565b600081905092915050565b6000612d1782612415565b612d218185612d01565b9350612d31818560208601612431565b80840191505092915050565b6000612d498285612d0c565b9150612d558284612d0c565b91508190509392505050565b6000612d6c826124c7565b9150612d77836124c7565b9250828203905081811115612d8f57612d8e6129a0565b5b92915050565b7f4e487b7100000000000000000000000000000000000000000000000000000000600052603160045260246000fd5b7f4e487b7100000000000000000000000000000000000000000000000000000000600052601260045260246000fdfe68747470733a2f2f6261736577726974652d6e696e652e76657263656c2e6170702f6170692f6d657461646174612fa2646970667358221220e515fe105f8ccc80cea011aa98d1e33e76019556defa79063ebb906076e391f164736f6c634300081c0033",
  "linkReferences": {},
  "deployedLinkReferences": {}
}