{
  "_format": "hh-sol-artifact-1",
  "contractName": "Disk",
  "sourceName": "contracts/Disk.sol",
  "abi": [
    {
      "inputs": [
        {
          "internalType": "uint256",
          "name": "initalLimit",
          "type": "uint256"
        }
      ],
      "stateMutability": "nonpayable",
      "type": "constructor"
    },
    {
      "inputs": [],
      "name": "ERC721EnumerableForbiddenBatchMint",
      "type": "error"
    },
    {
      "inputs": [
        {
          "internalType": "address",
          "name": "sender",
          "type": "address"
        },
        {
          "internalType": "uint256",
          "name": "tokenId",
          "type": "uint256"
        },
        {
          "internalType": "address",
          "name": "owner",
          "type": "address"
        }
      ],
      "name": "ERC721IncorrectOwner",
      "type": "error"
    },
    {
      "inputs": [
        {
          "internalType": "address",
          "name": "operator",
          "type": "address"
        },
        {
          "internalType": "uint256",
          "name": "tokenId",
          "type": "uint256"
        }
      ],
      "name": "ERC721InsufficientApproval",
      "type": "error"
    },
    {
      "inputs": [
        {
          "internalType": "address",
          "name": "approver",
          "type": "address"
        }
      ],
      "name": "ERC721InvalidApprover",
      "type": "error"
    },
    {
      "inputs": [
        {
          "internalType": "address",
          "name": "operator",
          "type": "address"
        }
      ],
      "name": "ERC721InvalidOperator",
      "type": "error"
    },
    {
      "inputs": [
        {
          "internalType": "address",
          "name": "owner",
          "type": "address"
        }
      ],
      "name": "ERC721InvalidOwner",
      "type": "error"
    },
    {
      "inputs": [
        {
          "internalType": "address",
          "name": "receiver",
          "type": "address"
        }
      ],
      "name": "ERC721InvalidReceiver",
      "type": "error"
    },
    {
      "inputs": [
        {
          "internalType": "address",
          "name": "sender",
          "type": "address"
        }
      ],
      "name": "ERC721InvalidSender",
      "type": "error"
    },
    {
      "inputs": [
        {
          "internalType": "uint256",
          "name": "tokenId",
          "type": "uint256"
        }
      ],
      "name": "ERC721NonexistentToken",
      "type": "error"
    },
    {
      "inputs": [
        {
          "internalType": "address",
          "name": "owner",
          "type": "address"
        },
        {
          "internalType": "uint256",
          "name": "index",
          "type": "uint256"
        }
      ],
      "name": "ERC721OutOfBoundsIndex",
      "type": "error"
    },
    {
      "inputs": [
        {
          "internalType": "address",
          "name": "owner",
          "type": "address"
        }
      ],
      "name": "OwnableInvalidOwner",
      "type": "error"
    },
    {
      "inputs": [
        {
          "internalType": "address",
          "name": "account",
          "type": "address"
        }
      ],
      "name": "OwnableUnauthorizedAccount",
      "type": "error"
    },
    {
      "anonymous": false,
      "inputs": [
        {
          "indexed": true,
          "internalType": "address",
          "name": "owner",
          "type": "address"
        },
        {
          "indexed": true,
          "internalType": "address",
          "name": "approved",
          "type": "address"
        },
        {
          "indexed": true,
          "internalType": "uint256",
          "name": "tokenId",
          "type": "uint256"
        }
      ],
      "name": "Approval",
      "type": "event"
    },
    {
      "anonymous": false,
      "inputs": [
        {
          "indexed": true,
          "internalType": "address",
          "name": "owner",
          "type": "address"
        },
        {
          "indexed": true,
          "internalType": "address",
          "name": "operator",
          "type": "address"
        },
        {
          "indexed": false,
          "internalType": "bool",
          "name": "approved",
          "type": "bool"
        }
      ],
      "name": "ApprovalForAll",
      "type": "event"
    },
    {
      "anonymous": false,
      "inputs": [
        {
          "indexed": false,
          "internalType": "uint256",
          "name": "_fromTokenId",
          "type": "uint256"
        },
        {
          "indexed": false,
          "internalType": "uint256",
          "name": "_toTokenId",
          "type": "uint256"
        }
      ],
      "name": "BatchMetadataUpdate",
      "type": "event"
    },
    {
      "anonymous": false,
      "inputs": [
        {
          "indexed": false,
          "internalType": "uint256",
          "name": "_tokenId",
          "type": "uint256"
        }
      ],
      "name": "MetadataUpdate",
      "type": "event"
    },
    {
      "anonymous": false,
      "inputs": [
        {
          "indexed": true,
          "internalType": "address",
          "name": "previousOwner",
          "type": "address"
        },
        {
          "indexed": true,
          "internalType": "address",
          "name": "newOwner",
          "type": "address"
        }
      ],
      "name": "OwnershipTransferred",
      "type": "event"
    },
    {
      "anonymous": false,
      "inputs": [
        {
          "indexed": true,
          "internalType": "address",
          "name": "from",
          "type": "address"
        },
        {
          "indexed": true,
          "internalType": "address",
          "name": "to",
          "type": "address"
        },
        {
          "indexed": true,
          "internalType": "uint256",
          "name": "tokenId",
          "type": "uint256"
        }
      ],
      "name": "Transfer",
      "type": "event"
    },
    {
      "inputs": [
        {
          "internalType": "address",
          "name": "to",
          "type": "address"
        },
        {
          "internalType": "uint256",
          "name": "tokenId",
          "type": "uint256"
        }
      ],
      "name": "approve",
      "outputs": [],
      "stateMutability": "nonpayable",
      "type": "function"
    },
    {
      "inputs": [
        {
          "internalType": "address",
          "name": "owner",
          "type": "address"
        }
      ],
      "name": "balanceOf",
      "outputs": [
        {
          "internalType": "uint256",
          "name": "",
          "type": "uint256"
        }
      ],
      "stateMutability": "view",
      "type": "function"
    },
    {
      "inputs": [
        {
          "internalType": "uint256",
          "name": "",
          "type": "uint256"
        }
      ],
      "name": "charLimits",
      "outputs": [
        {
          "internalType": "uint256",
          "name": "",
          "type": "uint256"
        }
      ],
      "stateMutability": "view",
      "type": "function"
    },
    {
      "inputs": [],
      "name": "defaultCharLimit",
      "outputs": [
        {
          "internalType": "uint256",
          "name": "",
          "type": "uint256"
        }
      ],
      "stateMutability": "view",
      "type": "function"
    },
    {
      "inputs": [
        {
          "internalType": "uint256",
          "name": "tokenId",
          "type": "uint256"
        }
      ],
      "name": "getApproved",
      "outputs": [
        {
          "internalType": "address",
          "name": "",
          "type": "address"
        }
      ],
      "stateMutability": "view",
      "type": "function"
    },
    {
      "inputs": [
        {
          "internalType": "address",
          "name": "owner",
          "type": "address"
        },
        {
          "internalType": "address",
          "name": "operator",
          "type": "address"
        }
      ],
      "name": "isApprovedForAll",
      "outputs": [
        {
          "internalType": "bool",
          "name": "",
          "type": "bool"
        }
      ],
      "stateMutability": "view",
      "type": "function"
    },
    {
      "inputs": [],
      "name": "mint",
      "outputs": [
        {
          "internalType": "uint256",
          "name": "",
          "type": "uint256"
        }
      ],
      "stateMutability": "nonpayable",
      "type": "function"
    },
    {
      "inputs": [],
      "name": "name",
      "outputs": [
        {
          "internalType": "string",
          "name": "",
          "type": "string"
        }
      ],
      "stateMutability": "view",
      "type": "function"
    },
    {
      "inputs": [],
      "name": "owner",
      "outputs": [
        {
          "internalType": "address",
          "name": "",
          "type": "address"
        }
      ],
      "stateMutability": "view",
      "type": "function"
    },
    {
      "inputs": [
        {
          "internalType": "uint256",
          "name": "tokenId",
          "type": "uint256"
        }
      ],
      "name": "ownerOf",
      "outputs": [
        {
          "internalType": "address",
          "name": "",
          "type": "address"
        }
      ],
      "stateMutability": "view",
      "type": "function"
    },
    {
      "inputs": [],
      "name": "renounceOwnership",
      "outputs": [],
      "stateMutability": "nonpayable",
      "type": "function"
    },
    {
      "inputs": [
        {
          "internalType": "address",
          "name": "from",
          "type": "address"
        },
        {
          "internalType": "address",
          "name": "to",
          "type": "address"
        },
        {
          "internalType": "uint256",
          "name": "tokenId",
          "type": "uint256"
        }
      ],
      "name": "safeTransferFrom",
      "outputs": [],
      "stateMutability": "nonpayable",
      "type": "function"
    },
    {
      "inputs": [
        {
          "internalType": "address",
          "name": "from",
          "type": "address"
        },
        {
          "internalType": "address",
          "name": "to",
          "type": "address"
        },
        {
          "internalType": "uint256",
          "name": "tokenId",
          "type": "uint256"
        },
        {
          "internalType": "bytes",
          "name": "data",
          "type": "bytes"
        }
      ],
      "name": "safeTransferFrom",
      "outputs": [],
      "stateMutability": "nonpayable",
      "type": "function"
    },
    {
      "inputs": [
        {
          "internalType": "address",
          "name": "operator",
          "type": "address"
        },
        {
          "internalType": "bool",
          "name": "approved",
          "type": "bool"
        }
      ],
      "name": "setApprovalForAll",
      "outputs": [],
      "stateMutability": "nonpayable",
      "type": "function"
    },
    {
      "inputs": [
        {
          "internalType": "uint256",
          "name": "tokenId",
          "type": "uint256"
        },
        {
          "internalType": "uint256",
          "name": "limit",
          "type": "uint256"
        }
      ],
      "name": "setCharLimit",
      "outputs": [],
      "stateMutability": "nonpayable",
      "type": "function"
    },
    {
      "inputs": [
        {
          "internalType": "bytes4",
          "name": "interfaceId",
          "type": "bytes4"
        }
      ],
      "name": "supportsInterface",
      "outputs": [
        {
          "internalType": "bool",
          "name": "",
          "type": "bool"
        }
      ],
      "stateMutability": "view",
      "type": "function"
    },
    {
      "inputs": [],
      "name": "symbol",
      "outputs": [
        {
          "internalType": "string",
          "name": "",
          "type": "string"
        }
      ],
      "stateMutability": "view",
      "type": "function"
    },
    {
      "inputs": [
        {
          "internalType": "uint256",
          "name": "index",
          "type": "uint256"
        }
      ],
      "name": "tokenByIndex",
      "outputs": [
        {
          "internalType": "uint256",
          "name": "",
          "type": "uint256"
        }
      ],
      "stateMutability": "view",
      "type": "function"
    },
    {
      "inputs": [],
      "name": "tokenCount",
      "outputs": [
        {
          "internalType": "uint256",
          "name": "",
          "type": "uint256"
        }
      ],
      "stateMutability": "view",
      "type": "function"
    },
    {
      "inputs": [
        {
          "internalType": "address",
          "name": "owner",
          "type": "address"
        },
        {
          "internalType": "uint256",
          "name": "index",
          "type": "uint256"
        }
      ],
      "name": "tokenOfOwnerByIndex",
      "outputs": [
        {
          "internalType": "uint256",
          "name": "",
          "type": "uint256"
        }
      ],
      "stateMutability": "view",
      "type": "function"
    },
    {
      "inputs": [
        {
          "internalType": "uint256",
          "name": "tokenId",
          "type": "uint256"
        }
      ],
      "name": "tokenURI",
      "outputs": [
        {
          "internalType": "string",
          "name": "",
          "type": "string"
        }
      ],
      "stateMutability": "view",
      "type": "function"
    },
    {
      "inputs": [],
      "name": "totalSupply",
      "outputs": [
        {
          "internalType": "uint256",
          "name": "",
          "type": "uint256"
        }
      ],
      "stateMutability": "view",
      "type": "function"
    },
    {
      "inputs": [
        {
          "internalType": "address",
          "name": "from",
          "type": "address"
        },
        {
          "internalType": "address",
          "name": "to",
          "type": "address"
        },
        {
          "internalType": "uint256",
          "name": "tokenId",
          "type": "uint256"
        }
      ],
      "name": "transferFrom",
      "outputs": [],
      "stateMutability": "nonpayable",
      "type": "function"
    },
    {
      "inputs": [
        {
          "internalType": "address",
          "name": "newOwner",
          "type": "address"
        }
      ],
      "name": "transferOwnership",
      "outputs": [],
      "stateMutability": "nonpayable",
      "type": "function"
    },
    {
      "inputs": [
        {
          "internalType": "uint256",
          "name": "newLimit",
          "type": "uint256"
        }
      ],
      "name": "updateDefaultLimit",
      "outputs": [],
      "stateMutability": "nonpayable",
      "type": "function"
    },
    {
      "inputs": [
        {
          "internalType": "uint256",
          "name": "",
          "type": "uint256"
        }
      ],
      "name": "usedChars",
      "outputs": [
        {
          "internalType": "uint256",
          "name": "",
          "type": "uint256"
        }
      ],
      "stateMutability": "view",
      "type": "function"
    }
  ],
  "bytecode": "0x608060405234801561001057600080fd5b5060405161318138038061318183398181016040528101906100329190610251565b336040518060400160405280600481526020017f4449534b000000000000000000000000000000000000000000000000000000008152506040518060400160405280600381526020017f444f42000000000000000000000000000000000000000000000000000000000081525081600090816100ae91906104c4565b5080600190816100be91906104c4565b505050600073ffffffffffffffffffffffffffffffffffffffff168173ffffffffffffffffffffffffffffffffffffffff16036101335760006040517f1e4fbdf700000000000000000000000000000000000000000000000000000000815260040161012a91906105d7565b60405180910390fd5b6101428161015060201b60201c565b5080600d81905550506105f2565b6000600b60009054906101000a900473ffffffffffffffffffffffffffffffffffffffff16905081600b60006101000a81548173ffffffffffffffffffffffffffffffffffffffff021916908373ffffffffffffffffffffffffffffffffffffffff1602179055508173ffffffffffffffffffffffffffffffffffffffff168173ffffffffffffffffffffffffffffffffffffffff167f8be0079c531659141344cd1fd0a4f28419497f9722a3daafe3b4186f6b6457e060405160405180910390a35050565b600080fd5b6000819050919050565b61022e8161021b565b811461023957600080fd5b50565b60008151905061024b81610225565b92915050565b60006020828403121561026757610266610216565b5b60006102758482850161023c565b91505092915050565b600081519050919050565b7f4e487b7100000000000000000000000000000000000000000000000000000000600052604160045260246000fd5b7f4e487b7100000000000000000000000000000000000000000000000000000000600052602260045260246000fd5b600060028204905060018216806102ff57607f821691505b602082108103610312576103116102b8565b5b50919050565b60008190508160005260206000209050919050565b60006020601f8301049050919050565b600082821b905092915050565b60006008830261037a7fffffffffffffffffffffffffffffffffffffffffffffffffffffffffffffffff8261033d565b610384868361033d565b95508019841693508086168417925050509392505050565b6000819050919050565b60006103c16103bc6103b78461021b565b61039c565b61021b565b9050919050565b6000819050919050565b6103db836103a6565b6103ef6103e7826103c8565b84845461034a565b825550505050565b600090565b6104046103f7565b61040f8184846103d2565b505050565b5b81811015610433576104286000826103fc565b600181019050610415565b5050565b601f8211156104785761044981610318565b6104528461032d565b81016020851015610461578190505b61047561046d8561032d565b830182610414565b50505b505050565b600082821c905092915050565b600061049b6000198460080261047d565b1980831691505092915050565b60006104b4838361048a565b9150826002028217905092915050565b6104cd8261027e565b67ffffffffffffffff8111156104e6576104e5610289565b5b6104f082546102e7565b6104fb828285610437565b600060209050601f83116001811461052e576000841561051c578287015190505b61052685826104a8565b86555061058e565b601f19841661053c86610318565b60005b828110156105645784890151825560018201915060208501945060208101905061053f565b86831015610581578489015161057d601f89168261048a565b8355505b6001600288020188555050505b505050505050565b600073ffffffffffffffffffffffffffffffffffffffff82169050919050565b60006105c182610596565b9050919050565b6105d1816105b6565b82525050565b60006020820190506105ec60008301846105c8565b92915050565b612b80806106016000396000f3fe608060405234801561001057600080fd5b506004361061018e5760003560e01c8063629dee60116100de5780639f181b5e11610097578063b88d4fde11610071578063b88d4fde14610497578063c87b56dd146104b3578063e985e9c5146104e3578063f2fde38b146105135761018e565b80639f181b5e1461042d578063a20cccb31461044b578063a22cb4651461047b5761018e565b8063629dee601461036b5780636352211e1461038757806370a08231146103b7578063715018a6146103e75780638da5cb5b146103f157806395d89b411461040f5761018e565b806318160ddd1161014b57806342842e0e1161012557806342842e0e146102d157806349661fca146102ed5780634f6ccce71461030b5780635521c2db1461033b5761018e565b806318160ddd1461026757806323b872dd146102855780632f745c59146102a15761018e565b806301ffc9a71461019357806306fdde03146101c3578063081812fc146101e1578063095ea7b3146102115780630ffe30f61461022d5780631249c58b14610249575b600080fd5b6101ad60048036038101906101a8919061224d565b61052f565b6040516101ba9190612295565b60405180910390f35b6101cb610541565b6040516101d89190612340565b60405180910390f35b6101fb60048036038101906101f69190612398565b6105d3565b6040516102089190612406565b60405180910390f35b61022b6004803603810190610226919061244d565b6105ef565b005b6102476004803603810190610242919061248d565b610605565b005b610251610629565b60405161025e91906124dc565b60405180910390f35b61026f610673565b60405161027c91906124dc565b60405180910390f35b61029f600480360381019061029a91906124f7565b610680565b005b6102bb60048036038101906102b6919061244d565b610782565b6040516102c891906124dc565b60405180910390f35b6102eb60048036038101906102e691906124f7565b61082b565b005b6102f561084b565b60405161030291906124dc565b60405180910390f35b61032560048036038101906103209190612398565b610851565b60405161033291906124dc565b60405180910390f35b61035560048036038101906103509190612398565b6108c7565b60405161036291906124dc565b60405180910390f35b61038560048036038101906103809190612398565b6108df565b005b6103a1600480360381019061039c9190612398565b6108f1565b6040516103ae9190612406565b60405180910390f35b6103d160048036038101906103cc919061254a565b610903565b6040516103de91906124dc565b60405180910390f35b6103ef6109bd565b005b6103f96109d1565b6040516104069190612406565b60405180910390f35b6104176109fb565b6040516104249190612340565b60405180910390f35b610435610a8d565b60405161044291906124dc565b60405180910390f35b61046560048036038101906104609190612398565b610a93565b60405161047291906124dc565b60405180910390f35b610495600480360381019061049091906125a3565b610aab565b005b6104b160048036038101906104ac9190612718565b610ac1565b005b6104cd60048036038101906104c89190612398565b610ae6565b6040516104da9190612340565b60405180910390f35b6104fd60048036038101906104f8919061279b565b610af8565b60405161050a9190612295565b60405180910390f35b61052d6004803603810190610528919061254a565b610b8c565b005b600061053a82610c12565b9050919050565b6060600080546105509061280a565b80601f016020809104026020016040519081016040528092919081815260200182805461057c9061280a565b80156105c95780601f1061059e576101008083540402835291602001916105c9565b820191906000526020600020905b8154815290600101906020018083116105ac57829003601f168201915b5050505050905090565b60006105de82610c8c565b506105e882610d14565b9050919050565b61060182826105fc610d51565b610d59565b5050565b61060d610d6b565b80600e6000848152602001908152602001600020819055505050565b6000600c600081548092919061063e9061286a565b9190505550600d54600e6000600c5481526020019081526020016000208190555061066b33600c54610df2565b600c54905090565b6000600980549050905090565b600073ffffffffffffffffffffffffffffffffffffffff168273ffffffffffffffffffffffffffffffffffffffff16036106f25760006040517f64a0ae920000000000000000000000000000000000000000000000000000000081526004016106e99190612406565b60405180910390fd5b60006107068383610701610d51565b610e10565b90508373ffffffffffffffffffffffffffffffffffffffff168173ffffffffffffffffffffffffffffffffffffffff161461077c578382826040517f64283d7b000000000000000000000000000000000000000000000000000000008152600401610773939291906128b2565b60405180910390fd5b50505050565b600061078d83610903565b82106107d25782826040517fa57d13dc0000000000000000000000000000000000000000000000000000000081526004016107c99291906128e9565b60405180910390fd5b600760008473ffffffffffffffffffffffffffffffffffffffff1673ffffffffffffffffffffffffffffffffffffffff168152602001908152602001600020600083815260200190815260200160002054905092915050565b61084683838360405180602001604052806000815250610ac1565b505050565b600d5481565b600061085b610673565b82106108a1576000826040517fa57d13dc0000000000000000000000000000000000000000000000000000000081526004016108989291906128e9565b60405180910390fd5b600982815481106108b5576108b4612912565b5b90600052602060002001549050919050565b600f6020528060005260406000206000915090505481565b6108e7610d6b565b80600d8190555050565b60006108fc82610c8c565b9050919050565b60008073ffffffffffffffffffffffffffffffffffffffff168273ffffffffffffffffffffffffffffffffffffffff16036109765760006040517f89c62b6400000000000000000000000000000000000000000000000000000000815260040161096d9190612406565b60405180910390fd5b600360008373ffffffffffffffffffffffffffffffffffffffff1673ffffffffffffffffffffffffffffffffffffffff168152602001908152602001600020549050919050565b6109c5610d6b565b6109cf6000610e26565b565b6000600b60009054906101000a900473ffffffffffffffffffffffffffffffffffffffff16905090565b606060018054610a0a9061280a565b80601f0160208091040260200160405190810160405280929190818152602001828054610a369061280a565b8015610a835780601f10610a5857610100808354040283529160200191610a83565b820191906000526020600020905b815481529060010190602001808311610a6657829003601f168201915b5050505050905090565b600c5481565b600e6020528060005260406000206000915090505481565b610abd610ab6610d51565b8383610eec565b5050565b610acc848484610680565b610ae0610ad7610d51565b8585858561105b565b50505050565b6060610af18261120c565b9050919050565b6000600560008473ffffffffffffffffffffffffffffffffffffffff1673ffffffffffffffffffffffffffffffffffffffff16815260200190815260200160002060008373ffffffffffffffffffffffffffffffffffffffff1673ffffffffffffffffffffffffffffffffffffffff16815260200190815260200160002060009054906101000a900460ff16905092915050565b610b94610d6b565b600073ffffffffffffffffffffffffffffffffffffffff168173ffffffffffffffffffffffffffffffffffffffff1603610c065760006040517f1e4fbdf7000000000000000000000000000000000000000000000000000000008152600401610bfd9190612406565b60405180910390fd5b610c0f81610e26565b50565b60007f780e9d63000000000000000000000000000000000000000000000000000000007bffffffffffffffffffffffffffffffffffffffffffffffffffffffff1916827bffffffffffffffffffffffffffffffffffffffffffffffffffffffff19161480610c855750610c848261131f565b5b9050919050565b600080610c9883611380565b9050600073ffffffffffffffffffffffffffffffffffffffff168173ffffffffffffffffffffffffffffffffffffffff1603610d0b57826040517f7e273289000000000000000000000000000000000000000000000000000000008152600401610d0291906124dc565b60405180910390fd5b80915050919050565b60006004600083815260200190815260200160002060009054906101000a900473ffffffffffffffffffffffffffffffffffffffff169050919050565b600033905090565b610d6683838360016113bd565b505050565b610d73610d51565b73ffffffffffffffffffffffffffffffffffffffff16610d916109d1565b73ffffffffffffffffffffffffffffffffffffffff1614610df057610db4610d51565b6040517f118cdaa7000000000000000000000000000000000000000000000000000000008152600401610de79190612406565b60405180910390fd5b565b610e0c828260405180602001604052806000815250611582565b5050565b6000610e1d8484846115a6565b90509392505050565b6000600b60009054906101000a900473ffffffffffffffffffffffffffffffffffffffff16905081600b60006101000a81548173ffffffffffffffffffffffffffffffffffffffff021916908373ffffffffffffffffffffffffffffffffffffffff1602179055508173ffffffffffffffffffffffffffffffffffffffff168173ffffffffffffffffffffffffffffffffffffffff167f8be0079c531659141344cd1fd0a4f28419497f9722a3daafe3b4186f6b6457e060405160405180910390a35050565b600073ffffffffffffffffffffffffffffffffffffffff168273ffffffffffffffffffffffffffffffffffffffff1603610f5d57816040517f5b08ba18000000000000000000000000000000000000000000000000000000008152600401610f549190612406565b60405180910390fd5b80600560008573ffffffffffffffffffffffffffffffffffffffff1673ffffffffffffffffffffffffffffffffffffffff16815260200190815260200160002060008473ffffffffffffffffffffffffffffffffffffffff1673ffffffffffffffffffffffffffffffffffffffff16815260200190815260200160002060006101000a81548160ff0219169083151502179055508173ffffffffffffffffffffffffffffffffffffffff168373ffffffffffffffffffffffffffffffffffffffff167f17307eab39ab6107e8899845ad3d59bd9653f200f220920489ca2b5937696c318360405161104e9190612295565b60405180910390a3505050565b60008373ffffffffffffffffffffffffffffffffffffffff163b1115611205578273ffffffffffffffffffffffffffffffffffffffff1663150b7a02868685856040518563ffffffff1660e01b81526004016110ba9493929190612996565b6020604051808303816000875af19250505080156110f657506040513d601f19601f820116820180604052508101906110f391906129f7565b60015b61117a573d8060008114611126576040519150601f19603f3d011682016040523d82523d6000602084013e61112b565b606091505b50600081510361117257836040517f64a0ae920000000000000000000000000000000000000000000000000000000081526004016111699190612406565b60405180910390fd5b805181602001fd5b63150b7a0260e01b7bffffffffffffffffffffffffffffffffffffffffffffffffffffffff1916817bffffffffffffffffffffffffffffffffffffffffffffffffffffffff19161461120357836040517f64a0ae920000000000000000000000000000000000000000000000000000000081526004016111fa9190612406565b60405180910390fd5b505b5050505050565b606061121782610c8c565b5060006006600084815260200190815260200160002080546112389061280a565b80601f01602080910402602001604051908101604052809291908181526020018280546112649061280a565b80156112b15780601f10611286576101008083540402835291602001916112b1565b820191906000526020600020905b81548152906001019060200180831161129457829003601f168201915b5050505050905060006112c26116c3565b905060008151036112d757819250505061131a565b60008251111561130c5780826040516020016112f4929190612a60565b6040516020818303038152906040529250505061131a565b611315846116e3565b925050505b919050565b6000634906490660e01b7bffffffffffffffffffffffffffffffffffffffffffffffffffffffff1916827bffffffffffffffffffffffffffffffffffffffffffffffffffffffff1916148061137957506113788261174c565b5b9050919050565b60006002600083815260200190815260200160002060009054906101000a900473ffffffffffffffffffffffffffffffffffffffff169050919050565b80806113f65750600073ffffffffffffffffffffffffffffffffffffffff168273ffffffffffffffffffffffffffffffffffffffff1614155b1561152a57600061140684610c8c565b9050600073ffffffffffffffffffffffffffffffffffffffff168373ffffffffffffffffffffffffffffffffffffffff161415801561147157508273ffffffffffffffffffffffffffffffffffffffff168173ffffffffffffffffffffffffffffffffffffffff1614155b801561148457506114828184610af8565b155b156114c657826040517fa9fbf51f0000000000000000000000000000000000000000000000000000000081526004016114bd9190612406565b60405180910390fd5b811561152857838573ffffffffffffffffffffffffffffffffffffffff168273ffffffffffffffffffffffffffffffffffffffff167f8c5be1e5ebec7d5bd14f71427d1e84f3dd0314c0f7b2291e5b200ac8c7c3b92560405160405180910390a45b505b836004600085815260200190815260200160002060006101000a81548173ffffffffffffffffffffffffffffffffffffffff021916908373ffffffffffffffffffffffffffffffffffffffff16021790555050505050565b61158c838361182e565b6115a1611597610d51565b600085858561105b565b505050565b6000806115b4858585611927565b9050600073ffffffffffffffffffffffffffffffffffffffff168173ffffffffffffffffffffffffffffffffffffffff16036115f8576115f384611b41565b611637565b8473ffffffffffffffffffffffffffffffffffffffff168173ffffffffffffffffffffffffffffffffffffffff1614611636576116358185611b8a565b5b5b600073ffffffffffffffffffffffffffffffffffffffff168573ffffffffffffffffffffffffffffffffffffffff16036116795761167484611c75565b6116b8565b8473ffffffffffffffffffffffffffffffffffffffff168173ffffffffffffffffffffffffffffffffffffffff16146116b7576116b68585611d46565b5b5b809150509392505050565b6060604051806060016040528060348152602001612b1760349139905090565b60606116ee82610c8c565b5060006116f96116c3565b905060008151116117195760405180602001604052806000815250611744565b8061172384611dd1565b604051602001611734929190612a60565b6040516020818303038152906040525b915050919050565b60007f80ac58cd000000000000000000000000000000000000000000000000000000007bffffffffffffffffffffffffffffffffffffffffffffffffffffffff1916827bffffffffffffffffffffffffffffffffffffffffffffffffffffffff1916148061181757507f5b5e139f000000000000000000000000000000000000000000000000000000007bffffffffffffffffffffffffffffffffffffffffffffffffffffffff1916827bffffffffffffffffffffffffffffffffffffffffffffffffffffffff1916145b80611827575061182682611e9f565b5b9050919050565b600073ffffffffffffffffffffffffffffffffffffffff168273ffffffffffffffffffffffffffffffffffffffff16036118a05760006040517f64a0ae920000000000000000000000000000000000000000000000000000000081526004016118979190612406565b60405180910390fd5b60006118ae83836000610e10565b9050600073ffffffffffffffffffffffffffffffffffffffff168173ffffffffffffffffffffffffffffffffffffffff16146119225760006040517f73c6ac6e0000000000000000000000000000000000000000000000000000000081526004016119199190612406565b60405180910390fd5b505050565b60008061193384611380565b9050600073ffffffffffffffffffffffffffffffffffffffff168373ffffffffffffffffffffffffffffffffffffffff161461197557611974818486611f09565b5b600073ffffffffffffffffffffffffffffffffffffffff168173ffffffffffffffffffffffffffffffffffffffff1614611a06576119b76000856000806113bd565b6001600360008373ffffffffffffffffffffffffffffffffffffffff1673ffffffffffffffffffffffffffffffffffffffff168152602001908152602001600020600082825403925050819055505b600073ffffffffffffffffffffffffffffffffffffffff168573ffffffffffffffffffffffffffffffffffffffff1614611a89576001600360008773ffffffffffffffffffffffffffffffffffffffff1673ffffffffffffffffffffffffffffffffffffffff168152602001908152602001600020600082825401925050819055505b846002600086815260200190815260200160002060006101000a81548173ffffffffffffffffffffffffffffffffffffffff021916908373ffffffffffffffffffffffffffffffffffffffff160217905550838573ffffffffffffffffffffffffffffffffffffffff168273ffffffffffffffffffffffffffffffffffffffff167fddf252ad1be2c89b69c2b068fc378daa952ba7f163c4a11628f55a4df523b3ef60405160405180910390a4809150509392505050565b600980549050600a600083815260200190815260200160002081905550600981908060018154018082558091505060019003906000526020600020016000909190919091505550565b6000611b9583610903565b90506000600860008481526020019081526020016000205490506000600760008673ffffffffffffffffffffffffffffffffffffffff1673ffffffffffffffffffffffffffffffffffffffff1681526020019081526020016000209050828214611c415760008160008581526020019081526020016000205490508082600085815260200190815260200160002081905550826008600083815260200190815260200160002081905550505b6008600085815260200190815260200160002060009055806000848152602001908152602001600020600090555050505050565b60006001600980549050611c899190612a84565b90506000600a6000848152602001908152602001600020549050600060098381548110611cb957611cb8612912565b5b906000526020600020015490508060098381548110611cdb57611cda612912565b5b906000526020600020018190555081600a600083815260200190815260200160002081905550600a6000858152602001908152602001600020600090556009805480611d2a57611d29612ab8565b5b6001900381819060005260206000200160009055905550505050565b60006001611d5384610903565b611d5d9190612a84565b905081600760008573ffffffffffffffffffffffffffffffffffffffff1673ffffffffffffffffffffffffffffffffffffffff168152602001908152602001600020600083815260200190815260200160002081905550806008600084815260200190815260200160002081905550505050565b606060006001611de084611fcd565b01905060008167ffffffffffffffff811115611dff57611dfe6125ed565b5b6040519080825280601f01601f191660200182016040528015611e315781602001600182028036833780820191505090505b509050600082602001820190505b600115611e94578080600190039150507f3031323334353637383961626364656600000000000000000000000000000000600a86061a8153600a8581611e8857611e87612ae7565b5b04945060008503611e3f575b819350505050919050565b60007f01ffc9a7000000000000000000000000000000000000000000000000000000007bffffffffffffffffffffffffffffffffffffffffffffffffffffffff1916827bffffffffffffffffffffffffffffffffffffffffffffffffffffffff1916149050919050565b611f14838383612120565b611fc857600073ffffffffffffffffffffffffffffffffffffffff168373ffffffffffffffffffffffffffffffffffffffff1603611f8957806040517f7e273289000000000000000000000000000000000000000000000000000000008152600401611f8091906124dc565b60405180910390fd5b81816040517f177e802f000000000000000000000000000000000000000000000000000000008152600401611fbf9291906128e9565b60405180910390fd5b505050565b600080600090507a184f03e93ff9f4daa797ed6e38ed64bf6a1f010000000000000000831061202b577a184f03e93ff9f4daa797ed6e38ed64bf6a1f010000000000000000838161202157612020612ae7565b5b0492506040810190505b6d04ee2d6d415b85acef81000000008310612068576d04ee2d6d415b85acef8100000000838161205e5761205d612ae7565b5b0492506020810190505b662386f26fc10000831061209757662386f26fc10000838161208d5761208c612ae7565b5b0492506010810190505b6305f5e10083106120c0576305f5e10083816120b6576120b5612ae7565b5b0492506008810190505b61271083106120e55761271083816120db576120da612ae7565b5b0492506004810190505b6064831061210857606483816120fe576120fd612ae7565b5b0492506002810190505b600a8310612117576001810190505b80915050919050565b60008073ffffffffffffffffffffffffffffffffffffffff168373ffffffffffffffffffffffffffffffffffffffff16141580156121d857508273ffffffffffffffffffffffffffffffffffffffff168473ffffffffffffffffffffffffffffffffffffffff16148061219957506121988484610af8565b5b806121d757508273ffffffffffffffffffffffffffffffffffffffff166121bf83610d14565b73ffffffffffffffffffffffffffffffffffffffff16145b5b90509392505050565b6000604051905090565b600080fd5b600080fd5b60007fffffffff0000000000000000000000000000000000000000000000000000000082169050919050565b61222a816121f5565b811461223557600080fd5b50565b60008135905061224781612221565b92915050565b600060208284031215612263576122626121eb565b5b600061227184828501612238565b91505092915050565b60008115159050919050565b61228f8161227a565b82525050565b60006020820190506122aa6000830184612286565b92915050565b600081519050919050565b600082825260208201905092915050565b60005b838110156122ea5780820151818401526020810190506122cf565b60008484015250505050565b6000601f19601f8301169050919050565b6000612312826122b0565b61231c81856122bb565b935061232c8185602086016122cc565b612335816122f6565b840191505092915050565b6000602082019050818103600083015261235a8184612307565b905092915050565b6000819050919050565b61237581612362565b811461238057600080fd5b50565b6000813590506123928161236c565b92915050565b6000602082840312156123ae576123ad6121eb565b5b60006123bc84828501612383565b91505092915050565b600073ffffffffffffffffffffffffffffffffffffffff82169050919050565b60006123f0826123c5565b9050919050565b612400816123e5565b82525050565b600060208201905061241b60008301846123f7565b92915050565b61242a816123e5565b811461243557600080fd5b50565b60008135905061244781612421565b92915050565b60008060408385031215612464576124636121eb565b5b600061247285828601612438565b925050602061248385828601612383565b9150509250929050565b600080604083850312156124a4576124a36121eb565b5b60006124b285828601612383565b92505060206124c385828601612383565b9150509250929050565b6124d681612362565b82525050565b60006020820190506124f160008301846124cd565b92915050565b6000806000606084860312156125105761250f6121eb565b5b600061251e86828701612438565b935050602061252f86828701612438565b925050604061254086828701612383565b9150509250925092565b6000602082840312156125605761255f6121eb565b5b600061256e84828501612438565b91505092915050565b6125808161227a565b811461258b57600080fd5b50565b60008135905061259d81612577565b92915050565b600080604083850312156125ba576125b96121eb565b5b60006125c885828601612438565b92505060206125d98582860161258e565b9150509250929050565b600080fd5b600080fd5b7f4e487b7100000000000000000000000000000000000000000000000000000000600052604160045260246000fd5b612625826122f6565b810181811067ffffffffffffffff82111715612644576126436125ed565b5b80604052505050565b60006126576121e1565b9050612663828261261c565b919050565b600067ffffffffffffffff821115612683576126826125ed565b5b61268c826122f6565b9050602081019050919050565b82818337600083830152505050565b60006126bb6126b684612668565b61264d565b9050828152602081018484840111156126d7576126d66125e8565b5b6126e2848285612699565b509392505050565b600082601f8301126126ff576126fe6125e3565b5b813561270f8482602086016126a8565b91505092915050565b60008060008060808587031215612732576127316121eb565b5b600061274087828801612438565b945050602061275187828801612438565b935050604061276287828801612383565b925050606085013567ffffffffffffffff811115612783576127826121f0565b5b61278f878288016126ea565b91505092959194509250565b600080604083850312156127b2576127b16121eb565b5b60006127c085828601612438565b92505060206127d185828601612438565b9150509250929050565b7f4e487b7100000000000000000000000000000000000000000000000000000000600052602260045260246000fd5b6000600282049050600182168061282257607f821691505b602082108103612835576128346127db565b5b50919050565b7f4e487b7100000000000000000000000000000000000000000000000000000000600052601160045260246000fd5b600061287582612362565b91507fffffffffffffffffffffffffffffffffffffffffffffffffffffffffffffffff82036128a7576128a661283b565b5b600182019050919050565b60006060820190506128c760008301866123f7565b6128d460208301856124cd565b6128e160408301846123f7565b949350505050565b60006040820190506128fe60008301856123f7565b61290b60208301846124cd565b9392505050565b7f4e487b7100000000000000000000000000000000000000000000000000000000600052603260045260246000fd5b600081519050919050565b600082825260208201905092915050565b600061296882612941565b612972818561294c565b93506129828185602086016122cc565b61298b816122f6565b840191505092915050565b60006080820190506129ab60008301876123f7565b6129b860208301866123f7565b6129c560408301856124cd565b81810360608301526129d7818461295d565b905095945050505050565b6000815190506129f181612221565b92915050565b600060208284031215612a0d57612a0c6121eb565b5b6000612a1b848285016129e2565b91505092915050565b600081905092915050565b6000612a3a826122b0565b612a448185612a24565b9350612a548185602086016122cc565b80840191505092915050565b6000612a6c8285612a2f565b9150612a788284612a2f565b91508190509392505050565b6000612a8f82612362565b9150612a9a83612362565b9250828203905081811115612ab257612ab161283b565b5b92915050565b7f4e487b7100000000000000000000000000000000000000000000000000000000600052603160045260246000fd5b7f4e487b7100000000000000000000000000000000000000000000000000000000600052601260045260246000fdfe68747470733a2f2f6261736577726974652d6e696e652e76657263656c2e6170702f6170692f6d657461646174612f6469736b2fa2646970667358221220f07c72561bb7f11a59f80d5d70481129e7b11aea3cd022d40f2a39b5eea7657064736f6c634300081c0033",
  "linkReferences": {},
  "deployedLinkReferences": {}
}