{
  "_format": "hh-sol-artifact-1",
  "contractName": "Disk",
  "sourceName": "contracts/Disk.sol",
  "abi": [
    {
      "inputs": [
        {
          "internalType": "uint256",
          "name": "initalLimit",
          "type": "uint256"
        }
      ],
      "stateMutability": "nonpayable",
      "type": "constructor"
    },
    {
      "inputs": [
        {
          "internalType": "address",
          "name": "sender",
          "type": "address"
        },
        {
          "internalType": "uint256",
          "name": "tokenId",
          "type": "uint256"
        },
        {
          "internalType": "address",
          "name": "owner",
          "type": "address"
        }
      ],
      "name": "ERC721IncorrectOwner",
      "type": "error"
    },
    {
      "inputs": [
        {
          "internalType": "address",
          "name": "operator",
          "type": "address"
        },
        {
          "internalType": "uint256",
          "name": "tokenId",
          "type": "uint256"
        }
      ],
      "name": "ERC721InsufficientApproval",
      "type": "error"
    },
    {
      "inputs": [
        {
          "internalType": "address",
          "name": "approver",
          "type": "address"
        }
      ],
      "name": "ERC721InvalidApprover",
      "type": "error"
    },
    {
      "inputs": [
        {
          "internalType": "address",
          "name": "operator",
          "type": "address"
        }
      ],
      "name": "ERC721InvalidOperator",
      "type": "error"
    },
    {
      "inputs": [
        {
          "internalType": "address",
          "name": "owner",
          "type": "address"
        }
      ],
      "name": "ERC721InvalidOwner",
      "type": "error"
    },
    {
      "inputs": [
        {
          "internalType": "address",
          "name": "receiver",
          "type": "address"
        }
      ],
      "name": "ERC721InvalidReceiver",
      "type": "error"
    },
    {
      "inputs": [
        {
          "internalType": "address",
          "name": "sender",
          "type": "address"
        }
      ],
      "name": "ERC721InvalidSender",
      "type": "error"
    },
    {
      "inputs": [
        {
          "internalType": "uint256",
          "name": "tokenId",
          "type": "uint256"
        }
      ],
      "name": "ERC721NonexistentToken",
      "type": "error"
    },
    {
      "inputs": [
        {
          "internalType": "address",
          "name": "owner",
          "type": "address"
        }
      ],
      "name": "OwnableInvalidOwner",
      "type": "error"
    },
    {
      "inputs": [
        {
          "internalType": "address",
          "name": "account",
          "type": "address"
        }
      ],
      "name": "OwnableUnauthorizedAccount",
      "type": "error"
    },
    {
      "anonymous": false,
      "inputs": [
        {
          "indexed": true,
          "internalType": "address",
          "name": "owner",
          "type": "address"
        },
        {
          "indexed": true,
          "internalType": "address",
          "name": "approved",
          "type": "address"
        },
        {
          "indexed": true,
          "internalType": "uint256",
          "name": "tokenId",
          "type": "uint256"
        }
      ],
      "name": "Approval",
      "type": "event"
    },
    {
      "anonymous": false,
      "inputs": [
        {
          "indexed": true,
          "internalType": "address",
          "name": "owner",
          "type": "address"
        },
        {
          "indexed": true,
          "internalType": "address",
          "name": "operator",
          "type": "address"
        },
        {
          "indexed": false,
          "internalType": "bool",
          "name": "approved",
          "type": "bool"
        }
      ],
      "name": "ApprovalForAll",
      "type": "event"
    },
    {
      "anonymous": false,
      "inputs": [
        {
          "indexed": false,
          "internalType": "uint256",
          "name": "_fromTokenId",
          "type": "uint256"
        },
        {
          "indexed": false,
          "internalType": "uint256",
          "name": "_toTokenId",
          "type": "uint256"
        }
      ],
      "name": "BatchMetadataUpdate",
      "type": "event"
    },
    {
      "anonymous": false,
      "inputs": [
        {
          "indexed": false,
          "internalType": "uint256",
          "name": "_tokenId",
          "type": "uint256"
        }
      ],
      "name": "MetadataUpdate",
      "type": "event"
    },
    {
      "anonymous": false,
      "inputs": [
        {
          "indexed": true,
          "internalType": "address",
          "name": "previousOwner",
          "type": "address"
        },
        {
          "indexed": true,
          "internalType": "address",
          "name": "newOwner",
          "type": "address"
        }
      ],
      "name": "OwnershipTransferred",
      "type": "event"
    },
    {
      "anonymous": false,
      "inputs": [
        {
          "indexed": true,
          "internalType": "address",
          "name": "from",
          "type": "address"
        },
        {
          "indexed": true,
          "internalType": "address",
          "name": "to",
          "type": "address"
        },
        {
          "indexed": true,
          "internalType": "uint256",
          "name": "tokenId",
          "type": "uint256"
        }
      ],
      "name": "Transfer",
      "type": "event"
    },
    {
      "inputs": [
        {
          "internalType": "address",
          "name": "to",
          "type": "address"
        },
        {
          "internalType": "uint256",
          "name": "tokenId",
          "type": "uint256"
        }
      ],
      "name": "approve",
      "outputs": [],
      "stateMutability": "nonpayable",
      "type": "function"
    },
    {
      "inputs": [
        {
          "internalType": "address",
          "name": "owner",
          "type": "address"
        }
      ],
      "name": "balanceOf",
      "outputs": [
        {
          "internalType": "uint256",
          "name": "",
          "type": "uint256"
        }
      ],
      "stateMutability": "view",
      "type": "function"
    },
    {
      "inputs": [
        {
          "internalType": "uint256",
          "name": "",
          "type": "uint256"
        }
      ],
      "name": "charLimits",
      "outputs": [
        {
          "internalType": "uint256",
          "name": "",
          "type": "uint256"
        }
      ],
      "stateMutability": "view",
      "type": "function"
    },
    {
      "inputs": [],
      "name": "defaultCharLimit",
      "outputs": [
        {
          "internalType": "uint256",
          "name": "",
          "type": "uint256"
        }
      ],
      "stateMutability": "view",
      "type": "function"
    },
    {
      "inputs": [
        {
          "internalType": "uint256",
          "name": "tokenId",
          "type": "uint256"
        }
      ],
      "name": "getApproved",
      "outputs": [
        {
          "internalType": "address",
          "name": "",
          "type": "address"
        }
      ],
      "stateMutability": "view",
      "type": "function"
    },
    {
      "inputs": [
        {
          "internalType": "address",
          "name": "owner",
          "type": "address"
        },
        {
          "internalType": "address",
          "name": "operator",
          "type": "address"
        }
      ],
      "name": "isApprovedForAll",
      "outputs": [
        {
          "internalType": "bool",
          "name": "",
          "type": "bool"
        }
      ],
      "stateMutability": "view",
      "type": "function"
    },
    {
      "inputs": [],
      "name": "mint",
      "outputs": [
        {
          "internalType": "uint256",
          "name": "",
          "type": "uint256"
        }
      ],
      "stateMutability": "nonpayable",
      "type": "function"
    },
    {
      "inputs": [],
      "name": "name",
      "outputs": [
        {
          "internalType": "string",
          "name": "",
          "type": "string"
        }
      ],
      "stateMutability": "view",
      "type": "function"
    },
    {
      "inputs": [],
      "name": "owner",
      "outputs": [
        {
          "internalType": "address",
          "name": "",
          "type": "address"
        }
      ],
      "stateMutability": "view",
      "type": "function"
    },
    {
      "inputs": [
        {
          "internalType": "uint256",
          "name": "tokenId",
          "type": "uint256"
        }
      ],
      "name": "ownerOf",
      "outputs": [
        {
          "internalType": "address",
          "name": "",
          "type": "address"
        }
      ],
      "stateMutability": "view",
      "type": "function"
    },
    {
      "inputs": [],
      "name": "renounceOwnership",
      "outputs": [],
      "stateMutability": "nonpayable",
      "type": "function"
    },
    {
      "inputs": [
        {
          "internalType": "address",
          "name": "from",
          "type": "address"
        },
        {
          "internalType": "address",
          "name": "to",
          "type": "address"
        },
        {
          "internalType": "uint256",
          "name": "tokenId",
          "type": "uint256"
        }
      ],
      "name": "safeTransferFrom",
      "outputs": [],
      "stateMutability": "nonpayable",
      "type": "function"
    },
    {
      "inputs": [
        {
          "internalType": "address",
          "name": "from",
          "type": "address"
        },
        {
          "internalType": "address",
          "name": "to",
          "type": "address"
        },
        {
          "internalType": "uint256",
          "name": "tokenId",
          "type": "uint256"
        },
        {
          "internalType": "bytes",
          "name": "data",
          "type": "bytes"
        }
      ],
      "name": "safeTransferFrom",
      "outputs": [],
      "stateMutability": "nonpayable",
      "type": "function"
    },
    {
      "inputs": [
        {
          "internalType": "address",
          "name": "operator",
          "type": "address"
        },
        {
          "internalType": "bool",
          "name": "approved",
          "type": "bool"
        }
      ],
      "name": "setApprovalForAll",
      "outputs": [],
      "stateMutability": "nonpayable",
      "type": "function"
    },
    {
      "inputs": [
        {
          "internalType": "bytes4",
          "name": "interfaceId",
          "type": "bytes4"
        }
      ],
      "name": "supportsInterface",
      "outputs": [
        {
          "internalType": "bool",
          "name": "",
          "type": "bool"
        }
      ],
      "stateMutability": "view",
      "type": "function"
    },
    {
      "inputs": [],
      "name": "symbol",
      "outputs": [
        {
          "internalType": "string",
          "name": "",
          "type": "string"
        }
      ],
      "stateMutability": "view",
      "type": "function"
    },
    {
      "inputs": [],
      "name": "tokenCount",
      "outputs": [
        {
          "internalType": "uint256",
          "name": "",
          "type": "uint256"
        }
      ],
      "stateMutability": "view",
      "type": "function"
    },
    {
      "inputs": [
        {
          "internalType": "uint256",
          "name": "tokenId",
          "type": "uint256"
        }
      ],
      "name": "tokenURI",
      "outputs": [
        {
          "internalType": "string",
          "name": "",
          "type": "string"
        }
      ],
      "stateMutability": "view",
      "type": "function"
    },
    {
      "inputs": [
        {
          "internalType": "address",
          "name": "from",
          "type": "address"
        },
        {
          "internalType": "address",
          "name": "to",
          "type": "address"
        },
        {
          "internalType": "uint256",
          "name": "tokenId",
          "type": "uint256"
        }
      ],
      "name": "transferFrom",
      "outputs": [],
      "stateMutability": "nonpayable",
      "type": "function"
    },
    {
      "inputs": [
        {
          "internalType": "address",
          "name": "newOwner",
          "type": "address"
        }
      ],
      "name": "transferOwnership",
      "outputs": [],
      "stateMutability": "nonpayable",
      "type": "function"
    },
    {
      "inputs": [
        {
          "internalType": "uint256",
          "name": "newLimit",
          "type": "uint256"
        }
      ],
      "name": "updateDefaultLimit",
      "outputs": [],
      "stateMutability": "nonpayable",
      "type": "function"
    },
    {
      "inputs": [
        {
          "internalType": "uint256",
          "name": "tokenId",
          "type": "uint256"
        },
        {
          "internalType": "uint256",
          "name": "amount",
          "type": "uint256"
        }
      ],
      "name": "updateUsage",
      "outputs": [
        {
          "internalType": "uint256",
          "name": "",
          "type": "uint256"
        }
      ],
      "stateMutability": "nonpayable",
      "type": "function"
    },
    {
      "inputs": [
        {
          "internalType": "uint256",
          "name": "",
          "type": "uint256"
        }
      ],
      "name": "usedChars",
      "outputs": [
        {
          "internalType": "uint256",
          "name": "",
          "type": "uint256"
        }
      ],
      "stateMutability": "view",
      "type": "function"
    }
  ],
  "bytecode": "0x608060405234801561001057600080fd5b50604051612d7b380380612d7b83398181016040528101906100329190610251565b336040518060400160405280600481526020017f4449534b000000000000000000000000000000000000000000000000000000008152506040518060400160405280600381526020017f444f42000000000000000000000000000000000000000000000000000000000081525081600090816100ae91906104c4565b5080600190816100be91906104c4565b505050600073ffffffffffffffffffffffffffffffffffffffff168173ffffffffffffffffffffffffffffffffffffffff16036101335760006040517f1e4fbdf700000000000000000000000000000000000000000000000000000000815260040161012a91906105d7565b60405180910390fd5b6101428161015060201b60201c565b5080600981905550506105f2565b6000600760009054906101000a900473ffffffffffffffffffffffffffffffffffffffff16905081600760006101000a81548173ffffffffffffffffffffffffffffffffffffffff021916908373ffffffffffffffffffffffffffffffffffffffff1602179055508173ffffffffffffffffffffffffffffffffffffffff168173ffffffffffffffffffffffffffffffffffffffff167f8be0079c531659141344cd1fd0a4f28419497f9722a3daafe3b4186f6b6457e060405160405180910390a35050565b600080fd5b6000819050919050565b61022e8161021b565b811461023957600080fd5b50565b60008151905061024b81610225565b92915050565b60006020828403121561026757610266610216565b5b60006102758482850161023c565b91505092915050565b600081519050919050565b7f4e487b7100000000000000000000000000000000000000000000000000000000600052604160045260246000fd5b7f4e487b7100000000000000000000000000000000000000000000000000000000600052602260045260246000fd5b600060028204905060018216806102ff57607f821691505b602082108103610312576103116102b8565b5b50919050565b60008190508160005260206000209050919050565b60006020601f8301049050919050565b600082821b905092915050565b60006008830261037a7fffffffffffffffffffffffffffffffffffffffffffffffffffffffffffffffff8261033d565b610384868361033d565b95508019841693508086168417925050509392505050565b6000819050919050565b60006103c16103bc6103b78461021b565b61039c565b61021b565b9050919050565b6000819050919050565b6103db836103a6565b6103ef6103e7826103c8565b84845461034a565b825550505050565b600090565b6104046103f7565b61040f8184846103d2565b505050565b5b81811015610433576104286000826103fc565b600181019050610415565b5050565b601f8211156104785761044981610318565b6104528461032d565b81016020851015610461578190505b61047561046d8561032d565b830182610414565b50505b505050565b600082821c905092915050565b600061049b6000198460080261047d565b1980831691505092915050565b60006104b4838361048a565b9150826002028217905092915050565b6104cd8261027e565b67ffffffffffffffff8111156104e6576104e5610289565b5b6104f082546102e7565b6104fb828285610437565b600060209050601f83116001811461052e576000841561051c578287015190505b61052685826104a8565b86555061058e565b601f19841661053c86610318565b60005b828110156105645784890151825560018201915060208501945060208101905061053f565b86831015610581578489015161057d601f89168261048a565b8355505b6001600288020188555050505b505050505050565b600073ffffffffffffffffffffffffffffffffffffffff82169050919050565b60006105c182610596565b9050919050565b6105d1816105b6565b82525050565b60006020820190506105ec60008301846105c8565b92915050565b61277a806106016000396000f3fe608060405234801561001057600080fd5b506004361061014d5760003560e01c806370a08231116100c3578063a22cb4651161007c578063a22cb465146103a0578063b88d4fde146103bc578063b8dd3029146103d8578063c87b56dd14610408578063e985e9c514610438578063f2fde38b146104685761014d565b806370a08231146102dc578063715018a61461030c5780638da5cb5b1461031657806395d89b41146103345780639f181b5e14610352578063a20cccb3146103705761014d565b806323b872dd1161011557806323b872dd1461020a57806342842e0e1461022657806349661fca146102425780635521c2db14610260578063629dee60146102905780636352211e146102ac5761014d565b806301ffc9a71461015257806306fdde0314610182578063081812fc146101a0578063095ea7b3146101d05780631249c58b146101ec575b600080fd5b61016c60048036038101906101679190611d66565b610484565b6040516101799190611dae565b60405180910390f35b61018a6104e5565b6040516101979190611e59565b60405180910390f35b6101ba60048036038101906101b59190611eb1565b610577565b6040516101c79190611f1f565b60405180910390f35b6101ea60048036038101906101e59190611f66565b610593565b005b6101f46105a9565b6040516102019190611fb5565b60405180910390f35b610224600480360381019061021f9190611fd0565b6105f3565b005b610240600480360381019061023b9190611fd0565b6106f5565b005b61024a610715565b6040516102579190611fb5565b60405180910390f35b61027a60048036038101906102759190611eb1565b61071b565b6040516102879190611fb5565b60405180910390f35b6102aa60048036038101906102a59190611eb1565b610733565b005b6102c660048036038101906102c19190611eb1565b610788565b6040516102d39190611f1f565b60405180910390f35b6102f660048036038101906102f19190612023565b61079a565b6040516103039190611fb5565b60405180910390f35b610314610854565b005b61031e610868565b60405161032b9190611f1f565b60405180910390f35b61033c610892565b6040516103499190611e59565b60405180910390f35b61035a610924565b6040516103679190611fb5565b60405180910390f35b61038a60048036038101906103859190611eb1565b61092a565b6040516103979190611fb5565b60405180910390f35b6103ba60048036038101906103b5919061207c565b610942565b005b6103d660048036038101906103d191906121f1565b610958565b005b6103f260048036038101906103ed9190612274565b61097d565b6040516103ff9190611fb5565b60405180910390f35b610422600480360381019061041d9190611eb1565b610aaf565b60405161042f9190611e59565b60405180910390f35b610452600480360381019061044d91906122b4565b610bc2565b60405161045f9190611dae565b60405180910390f35b610482600480360381019061047d9190612023565b610c56565b005b6000634906490660e01b7bffffffffffffffffffffffffffffffffffffffffffffffffffffffff1916827bffffffffffffffffffffffffffffffffffffffffffffffffffffffff191614806104de57506104dd82610cdc565b5b9050919050565b6060600080546104f490612323565b80601f016020809104026020016040519081016040528092919081815260200182805461052090612323565b801561056d5780601f106105425761010080835404028352916020019161056d565b820191906000526020600020905b81548152906001019060200180831161055057829003601f168201915b5050505050905090565b600061058282610dbe565b5061058c82610e46565b9050919050565b6105a582826105a0610e83565b610e8b565b5050565b6000600860008154809291906105be90612383565b9190505550600954600a60006008548152602001908152602001600020819055506105eb33600854610e9d565b600854905090565b600073ffffffffffffffffffffffffffffffffffffffff168273ffffffffffffffffffffffffffffffffffffffff16036106655760006040517f64a0ae9200000000000000000000000000000000000000000000000000000000815260040161065c9190611f1f565b60405180910390fd5b60006106798383610674610e83565b610ebb565b90508373ffffffffffffffffffffffffffffffffffffffff168173ffffffffffffffffffffffffffffffffffffffff16146106ef578382826040517f64283d7b0000000000000000000000000000000000000000000000000000000081526004016106e6939291906123cb565b60405180910390fd5b50505050565b61071083838360405180602001604052806000815250610958565b505050565b60095481565b600b6020528060005260406000206000915090505481565b61073b6110d5565b6000811161077e576040517f08c379a00000000000000000000000000000000000000000000000000000000081526004016107759061244e565b60405180910390fd5b8060098190555050565b600061079382610dbe565b9050919050565b60008073ffffffffffffffffffffffffffffffffffffffff168273ffffffffffffffffffffffffffffffffffffffff160361080d5760006040517f89c62b640000000000000000000000000000000000000000000000000000000081526004016108049190611f1f565b60405180910390fd5b600360008373ffffffffffffffffffffffffffffffffffffffff1673ffffffffffffffffffffffffffffffffffffffff168152602001908152602001600020549050919050565b61085c6110d5565b610866600061115c565b565b6000600760009054906101000a900473ffffffffffffffffffffffffffffffffffffffff16905090565b6060600180546108a190612323565b80601f01602080910402602001604051908101604052809291908181526020018280546108cd90612323565b801561091a5780601f106108ef5761010080835404028352916020019161091a565b820191906000526020600020905b8154815290600101906020018083116108fd57829003601f168201915b5050505050905090565b60085481565b600a6020528060005260406000206000915090505481565b61095461094d610e83565b8383611222565b5050565b6109638484846105f3565b61097761096e610e83565b85858585611391565b50505050565b600061098883610788565b73ffffffffffffffffffffffffffffffffffffffff163373ffffffffffffffffffffffffffffffffffffffff16146109f5576040517f08c379a00000000000000000000000000000000000000000000000000000000081526004016109ec906124ba565b60405180910390fd5b600a60008481526020019081526020016000205482600b600086815260200190815260200160002054610a2891906124da565b1115610a69576040517f08c379a0000000000000000000000000000000000000000000000000000000008152600401610a609061255a565b60405180910390fd5b81600b60008581526020019081526020016000206000828254610a8c91906124da565b92505081905550600b600084815260200190815260200160002054905092915050565b6060610aba82610dbe565b506000600660008481526020019081526020016000208054610adb90612323565b80601f0160208091040260200160405190810160405280929190818152602001828054610b0790612323565b8015610b545780601f10610b2957610100808354040283529160200191610b54565b820191906000526020600020905b815481529060010190602001808311610b3757829003601f168201915b505050505090506000610b65611542565b90506000815103610b7a578192505050610bbd565b600082511115610baf578082604051602001610b979291906125b6565b60405160208183030381529060405292505050610bbd565b610bb884611562565b925050505b919050565b6000600560008473ffffffffffffffffffffffffffffffffffffffff1673ffffffffffffffffffffffffffffffffffffffff16815260200190815260200160002060008373ffffffffffffffffffffffffffffffffffffffff1673ffffffffffffffffffffffffffffffffffffffff16815260200190815260200160002060009054906101000a900460ff16905092915050565b610c5e6110d5565b600073ffffffffffffffffffffffffffffffffffffffff168173ffffffffffffffffffffffffffffffffffffffff1603610cd05760006040517f1e4fbdf7000000000000000000000000000000000000000000000000000000008152600401610cc79190611f1f565b60405180910390fd5b610cd98161115c565b50565b60007f80ac58cd000000000000000000000000000000000000000000000000000000007bffffffffffffffffffffffffffffffffffffffffffffffffffffffff1916827bffffffffffffffffffffffffffffffffffffffffffffffffffffffff19161480610da757507f5b5e139f000000000000000000000000000000000000000000000000000000007bffffffffffffffffffffffffffffffffffffffffffffffffffffffff1916827bffffffffffffffffffffffffffffffffffffffffffffffffffffffff1916145b80610db75750610db6826115cb565b5b9050919050565b600080610dca83611635565b9050600073ffffffffffffffffffffffffffffffffffffffff168173ffffffffffffffffffffffffffffffffffffffff1603610e3d57826040517f7e273289000000000000000000000000000000000000000000000000000000008152600401610e349190611fb5565b60405180910390fd5b80915050919050565b60006004600083815260200190815260200160002060009054906101000a900473ffffffffffffffffffffffffffffffffffffffff169050919050565b600033905090565b610e988383836001611672565b505050565b610eb7828260405180602001604052806000815250611837565b5050565b600080610ec784611635565b9050600073ffffffffffffffffffffffffffffffffffffffff168373ffffffffffffffffffffffffffffffffffffffff1614610f0957610f0881848661185b565b5b600073ffffffffffffffffffffffffffffffffffffffff168173ffffffffffffffffffffffffffffffffffffffff1614610f9a57610f4b600085600080611672565b6001600360008373ffffffffffffffffffffffffffffffffffffffff1673ffffffffffffffffffffffffffffffffffffffff168152602001908152602001600020600082825403925050819055505b600073ffffffffffffffffffffffffffffffffffffffff168573ffffffffffffffffffffffffffffffffffffffff161461101d576001600360008773ffffffffffffffffffffffffffffffffffffffff1673ffffffffffffffffffffffffffffffffffffffff168152602001908152602001600020600082825401925050819055505b846002600086815260200190815260200160002060006101000a81548173ffffffffffffffffffffffffffffffffffffffff021916908373ffffffffffffffffffffffffffffffffffffffff160217905550838573ffffffffffffffffffffffffffffffffffffffff168273ffffffffffffffffffffffffffffffffffffffff167fddf252ad1be2c89b69c2b068fc378daa952ba7f163c4a11628f55a4df523b3ef60405160405180910390a4809150509392505050565b6110dd610e83565b73ffffffffffffffffffffffffffffffffffffffff166110fb610868565b73ffffffffffffffffffffffffffffffffffffffff161461115a5761111e610e83565b6040517f118cdaa70000000000000000000000000000000000000000000000000000000081526004016111519190611f1f565b60405180910390fd5b565b6000600760009054906101000a900473ffffffffffffffffffffffffffffffffffffffff16905081600760006101000a81548173ffffffffffffffffffffffffffffffffffffffff021916908373ffffffffffffffffffffffffffffffffffffffff1602179055508173ffffffffffffffffffffffffffffffffffffffff168173ffffffffffffffffffffffffffffffffffffffff167f8be0079c531659141344cd1fd0a4f28419497f9722a3daafe3b4186f6b6457e060405160405180910390a35050565b600073ffffffffffffffffffffffffffffffffffffffff168273ffffffffffffffffffffffffffffffffffffffff160361129357816040517f5b08ba1800000000000000000000000000000000000000000000000000000000815260040161128a9190611f1f565b60405180910390fd5b80600560008573ffffffffffffffffffffffffffffffffffffffff1673ffffffffffffffffffffffffffffffffffffffff16815260200190815260200160002060008473ffffffffffffffffffffffffffffffffffffffff1673ffffffffffffffffffffffffffffffffffffffff16815260200190815260200160002060006101000a81548160ff0219169083151502179055508173ffffffffffffffffffffffffffffffffffffffff168373ffffffffffffffffffffffffffffffffffffffff167f17307eab39ab6107e8899845ad3d59bd9653f200f220920489ca2b5937696c31836040516113849190611dae565b60405180910390a3505050565b60008373ffffffffffffffffffffffffffffffffffffffff163b111561153b578273ffffffffffffffffffffffffffffffffffffffff1663150b7a02868685856040518563ffffffff1660e01b81526004016113f0949392919061262f565b6020604051808303816000875af192505050801561142c57506040513d601f19601f820116820180604052508101906114299190612690565b60015b6114b0573d806000811461145c576040519150601f19603f3d011682016040523d82523d6000602084013e611461565b606091505b5060008151036114a857836040517f64a0ae9200000000000000000000000000000000000000000000000000000000815260040161149f9190611f1f565b60405180910390fd5b805181602001fd5b63150b7a0260e01b7bffffffffffffffffffffffffffffffffffffffffffffffffffffffff1916817bffffffffffffffffffffffffffffffffffffffffffffffffffffffff19161461153957836040517f64a0ae920000000000000000000000000000000000000000000000000000000081526004016115309190611f1f565b60405180910390fd5b505b5050505050565b60606040518060600160405280602f8152602001612716602f9139905090565b606061156d82610dbe565b506000611578611542565b9050600081511161159857604051806020016040528060008152506115c3565b806115a28461191f565b6040516020016115b39291906125b6565b6040516020818303038152906040525b915050919050565b60007f01ffc9a7000000000000000000000000000000000000000000000000000000007bffffffffffffffffffffffffffffffffffffffffffffffffffffffff1916827bffffffffffffffffffffffffffffffffffffffffffffffffffffffff1916149050919050565b60006002600083815260200190815260200160002060009054906101000a900473ffffffffffffffffffffffffffffffffffffffff169050919050565b80806116ab5750600073ffffffffffffffffffffffffffffffffffffffff168273ffffffffffffffffffffffffffffffffffffffff1614155b156117df5760006116bb84610dbe565b9050600073ffffffffffffffffffffffffffffffffffffffff168373ffffffffffffffffffffffffffffffffffffffff161415801561172657508273ffffffffffffffffffffffffffffffffffffffff168173ffffffffffffffffffffffffffffffffffffffff1614155b801561173957506117378184610bc2565b155b1561177b57826040517fa9fbf51f0000000000000000000000000000000000000000000000000000000081526004016117729190611f1f565b60405180910390fd5b81156117dd57838573ffffffffffffffffffffffffffffffffffffffff168273ffffffffffffffffffffffffffffffffffffffff167f8c5be1e5ebec7d5bd14f71427d1e84f3dd0314c0f7b2291e5b200ac8c7c3b92560405160405180910390a45b505b836004600085815260200190815260200160002060006101000a81548173ffffffffffffffffffffffffffffffffffffffff021916908373ffffffffffffffffffffffffffffffffffffffff16021790555050505050565b61184183836119ed565b61185661184c610e83565b6000858585611391565b505050565b611866838383611ae6565b61191a57600073ffffffffffffffffffffffffffffffffffffffff168373ffffffffffffffffffffffffffffffffffffffff16036118db57806040517f7e2732890000000000000000000000000000000000000000000000000000000081526004016118d29190611fb5565b60405180910390fd5b81816040517f177e802f0000000000000000000000000000000000000000000000000000000081526004016119119291906126bd565b60405180910390fd5b505050565b60606000600161192e84611ba7565b01905060008167ffffffffffffffff81111561194d5761194c6120c6565b5b6040519080825280601f01601f19166020018201604052801561197f5781602001600182028036833780820191505090505b509050600082602001820190505b6001156119e2578080600190039150507f3031323334353637383961626364656600000000000000000000000000000000600a86061a8153600a85816119d6576119d56126e6565b5b0494506000850361198d575b819350505050919050565b600073ffffffffffffffffffffffffffffffffffffffff168273ffffffffffffffffffffffffffffffffffffffff1603611a5f5760006040517f64a0ae92000000000000000000000000000000000000000000000000000000008152600401611a569190611f1f565b60405180910390fd5b6000611a6d83836000610ebb565b9050600073ffffffffffffffffffffffffffffffffffffffff168173ffffffffffffffffffffffffffffffffffffffff1614611ae15760006040517f73c6ac6e000000000000000000000000000000000000000000000000000000008152600401611ad89190611f1f565b60405180910390fd5b505050565b60008073ffffffffffffffffffffffffffffffffffffffff168373ffffffffffffffffffffffffffffffffffffffff1614158015611b9e57508273ffffffffffffffffffffffffffffffffffffffff168473ffffffffffffffffffffffffffffffffffffffff161480611b5f5750611b5e8484610bc2565b5b80611b9d57508273ffffffffffffffffffffffffffffffffffffffff16611b8583610e46565b73ffffffffffffffffffffffffffffffffffffffff16145b5b90509392505050565b600080600090507a184f03e93ff9f4daa797ed6e38ed64bf6a1f0100000000000000008310611c05577a184f03e93ff9f4daa797ed6e38ed64bf6a1f0100000000000000008381611bfb57611bfa6126e6565b5b0492506040810190505b6d04ee2d6d415b85acef81000000008310611c42576d04ee2d6d415b85acef81000000008381611c3857611c376126e6565b5b0492506020810190505b662386f26fc100008310611c7157662386f26fc100008381611c6757611c666126e6565b5b0492506010810190505b6305f5e1008310611c9a576305f5e1008381611c9057611c8f6126e6565b5b0492506008810190505b6127108310611cbf576127108381611cb557611cb46126e6565b5b0492506004810190505b60648310611ce25760648381611cd857611cd76126e6565b5b0492506002810190505b600a8310611cf1576001810190505b80915050919050565b6000604051905090565b600080fd5b600080fd5b60007fffffffff0000000000000000000000000000000000000000000000000000000082169050919050565b611d4381611d0e565b8114611d4e57600080fd5b50565b600081359050611d6081611d3a565b92915050565b600060208284031215611d7c57611d7b611d04565b5b6000611d8a84828501611d51565b91505092915050565b60008115159050919050565b611da881611d93565b82525050565b6000602082019050611dc36000830184611d9f565b92915050565b600081519050919050565b600082825260208201905092915050565b60005b83811015611e03578082015181840152602081019050611de8565b60008484015250505050565b6000601f19601f8301169050919050565b6000611e2b82611dc9565b611e358185611dd4565b9350611e45818560208601611de5565b611e4e81611e0f565b840191505092915050565b60006020820190508181036000830152611e738184611e20565b905092915050565b6000819050919050565b611e8e81611e7b565b8114611e9957600080fd5b50565b600081359050611eab81611e85565b92915050565b600060208284031215611ec757611ec6611d04565b5b6000611ed584828501611e9c565b91505092915050565b600073ffffffffffffffffffffffffffffffffffffffff82169050919050565b6000611f0982611ede565b9050919050565b611f1981611efe565b82525050565b6000602082019050611f346000830184611f10565b92915050565b611f4381611efe565b8114611f4e57600080fd5b50565b600081359050611f6081611f3a565b92915050565b60008060408385031215611f7d57611f7c611d04565b5b6000611f8b85828601611f51565b9250506020611f9c85828601611e9c565b9150509250929050565b611faf81611e7b565b82525050565b6000602082019050611fca6000830184611fa6565b92915050565b600080600060608486031215611fe957611fe8611d04565b5b6000611ff786828701611f51565b935050602061200886828701611f51565b925050604061201986828701611e9c565b9150509250925092565b60006020828403121561203957612038611d04565b5b600061204784828501611f51565b91505092915050565b61205981611d93565b811461206457600080fd5b50565b60008135905061207681612050565b92915050565b6000806040838503121561209357612092611d04565b5b60006120a185828601611f51565b92505060206120b285828601612067565b9150509250929050565b600080fd5b600080fd5b7f4e487b7100000000000000000000000000000000000000000000000000000000600052604160045260246000fd5b6120fe82611e0f565b810181811067ffffffffffffffff8211171561211d5761211c6120c6565b5b80604052505050565b6000612130611cfa565b905061213c82826120f5565b919050565b600067ffffffffffffffff82111561215c5761215b6120c6565b5b61216582611e0f565b9050602081019050919050565b82818337600083830152505050565b600061219461218f84612141565b612126565b9050828152602081018484840111156121b0576121af6120c1565b5b6121bb848285612172565b509392505050565b600082601f8301126121d8576121d76120bc565b5b81356121e8848260208601612181565b91505092915050565b6000806000806080858703121561220b5761220a611d04565b5b600061221987828801611f51565b945050602061222a87828801611f51565b935050604061223b87828801611e9c565b925050606085013567ffffffffffffffff81111561225c5761225b611d09565b5b612268878288016121c3565b91505092959194509250565b6000806040838503121561228b5761228a611d04565b5b600061229985828601611e9c565b92505060206122aa85828601611e9c565b9150509250929050565b600080604083850312156122cb576122ca611d04565b5b60006122d985828601611f51565b92505060206122ea85828601611f51565b9150509250929050565b7f4e487b7100000000000000000000000000000000000000000000000000000000600052602260045260246000fd5b6000600282049050600182168061233b57607f821691505b60208210810361234e5761234d6122f4565b5b50919050565b7f4e487b7100000000000000000000000000000000000000000000000000000000600052601160045260246000fd5b600061238e82611e7b565b91507fffffffffffffffffffffffffffffffffffffffffffffffffffffffffffffffff82036123c0576123bf612354565b5b600182019050919050565b60006060820190506123e06000830186611f10565b6123ed6020830185611fa6565b6123fa6040830184611f10565b949350505050565b7f44656661756c74206c696d69742063616e206e6f74206265207a65726f000000600082015250565b6000612438601d83611dd4565b915061244382612402565b602082019050919050565b600060208201905081810360008301526124678161242b565b9050919050565b7f4e6f742074686520746f6b656e206f776e657200000000000000000000000000600082015250565b60006124a4601383611dd4565b91506124af8261246e565b602082019050919050565b600060208201905081810360008301526124d381612497565b9050919050565b60006124e582611e7b565b91506124f083611e7b565b925082820190508082111561250857612507612354565b5b92915050565b7f4e6f2063686172616374657273206c6566740000000000000000000000000000600082015250565b6000612544601283611dd4565b915061254f8261250e565b602082019050919050565b6000602082019050818103600083015261257381612537565b9050919050565b600081905092915050565b600061259082611dc9565b61259a818561257a565b93506125aa818560208601611de5565b80840191505092915050565b60006125c28285612585565b91506125ce8284612585565b91508190509392505050565b600081519050919050565b600082825260208201905092915050565b6000612601826125da565b61260b81856125e5565b935061261b818560208601611de5565b61262481611e0f565b840191505092915050565b60006080820190506126446000830187611f10565b6126516020830186611f10565b61265e6040830185611fa6565b818103606083015261267081846125f6565b905095945050505050565b60008151905061268a81611d3a565b92915050565b6000602082840312156126a6576126a5611d04565b5b60006126b48482850161267b565b91505092915050565b60006040820190506126d26000830185611f10565b6126df6020830184611fa6565b9392505050565b7f4e487b7100000000000000000000000000000000000000000000000000000000600052601260045260246000fdfe68747470733a2f2f6261736577726974652d6e696e652e76657263656c2e6170702f6170692f6d657461646174612fa264697066735822122018109a4ee708bc39cb01ec25577d8af36019bb099c5319658d22cac4e7db863d64736f6c634300081c0033",
  "linkReferences": {},
  "deployedLinkReferences": {}
}